:100000000C9405020C943D020C943D020C943D02AC
:100010000C943D020C943D020C943D020C943D0264
:100020000C943D020C943D020C94AA1D0C947D1E70
:100030000C9486180C943D020C943D020C943D02E5
:100040000C943D020C943D020C943D020C943D0234
:100050000C943D020C9420190C943D020C943D022A
:100060000C943D020C943D020C943D020C943D0214
:100070000C943D020C943D020C943D020C943D0204
:100080000C943D020C943D020C943D020C943D02F4
:100090000C943D020C943D020C943D020C943D02E4
:1000A0000C943D020C943D020C943D0235001E0060
:1000B0001F0020002100220023002400250026002C
:1000C00027002A002B0014001A0008001500170052
:1000D0001C0018000C00120013002F00290004005F
:1000E0001600070009000A000B000D000E000F00AB
:1000F00033003400E1001D001B000600190005005C
:1001000011001000360037003800DA5CE4000351BB
:10011000E300E20002512C000000015150005100A8
:1001200052004F003A003B003C003D003E003F00C3
:10013000400041004200430044004500010001002E
:1001400001000100010001000100010001000100A7
:1001500046004C0001000100010001000100010007
:100160000100010001000100010001000100010087
:100170000100010001000100010001000100010077
:100180003100010001000100010001000100010037
:10019000000001004A004E004B004D0001001E14FB
:1001A00001000100010001000100010001002D001B
:1001B0002E004C00010001000100081401000100A4
:1001C0000100010001002F14301446000100041446
:1001D0000100010009140A14640031022F023314D3
:1001E00034140100010001001B1406141914051435
:1001F00011141014361437143814010001000100D2
:1002000001000100010001000000010001000100E7
:1002100001000100005C010001000100010001007B
:1002200001000100010001000100010001000100C6
:1002300001000100010001000100010001000100B6
:1002400001000100010001000100010001000100A6
:100250000100010001000100010001000100010096
:1002600001000100010001000100BD00BE0001000D
:100270000100010001000100010001000100AE00C9
:1002800000000100AC00AA00A900AB001E0373002F
:100290006D006F006C0062006F00610074007200FE
:1002A00065006D00690078006400000016034600D8
:1002B000720061006E0074006900610165006B00EE
:1002C00000000403090409023B00020100A0FA092E
:1002D0000400000103010100092111010001224075
:1002E0000007058103080001090401000103000063
:1002F0000009211101000122B60007058203200038
:10030000011201000200000008EDFE0000000101E2
:1003100002000105010902A10185020901A10005F0
:1003200009190129081500250195087501810205A3
:1003300001093009311581257F950275088106096B
:10034000381581257F950175088106050C0A38024C
:100350001581257F950175088106C0C005010980BA
:10036000A101850319012AB700150126B7009501DF
:1003700075108100C0050C0901A101850419012A2D
:10038000A002150126A002950175108100C005018B
:100390000906A1018506050719E029E715002501D1
:1003A0009508750181020507190029EF150025013F
:1003B00095F075018102050819012905950575015A
:1003C0009102950175039101C005010906A101057E
:1003D0000719E029E71500250195087501810295A7
:1003E00001750881010507190029FF150026FF0086
:1003F00095067508810005081901290595057501FF
:100400009102950175039101C00011241FBECFEF29
:10041000DAE0DEBFCDBF04B603FE18C08091B102A2
:100420009091B202A091B302B091B4028730904B88
:10043000A740B04B59F41092B1021092B202109240
:10044000B3021092B402E0E0F8E3099511E0A0E0F5
:10045000B1E0EAEEF1E402C005900D92A638B107D2
:10046000D9F722E0A6E8B1E001C01D92A13BB20796
:10047000E1F70E94C0120C94AF200C94000081E0C0
:10048000089581E008950C94410208950C9445026A
:100490001F93CF93DF9300D000D00F92CDB7DEB77C
:1004A00049835A836B833091890189819A81311103
:1004B0001DC06623B9F02223A9F00E944509182F18
:1004C000682F89819A810E94EE0869817A81812F43
:1004D0000F900F900F900F900F90DF91CF911F9181
:1004E0000C9414100E941C09182FEFCF0E9445098C
:1004F00069817A81EDCFFC01262F40815181628193
:10050000738184810C94480281E00895CF93DF9336
:10051000D82FC92F60E00E947B026D2F7C2FDF91C6
:10052000CF910C9446020C945D110C9460110895C7
:100530000E94D2060E9497022FEF84E39CE0215094
:1005400080409040E1F700C000000C9444190F93E4
:100550001F93CF93DF938C0161E00E947B02EC013B
:10056000B8010E9443028823A9F1B801CE010E947C
:10057000D116882379F1B801CE010E943F15882356
:1005800049F1B801CE010E943B16882319F1F80108
:100590008281882361F0CB35FDE5DF0721F170F41E
:1005A000C115ECE5DE07A1F0CF3DDC45C9F0C8017F
:1005B000DF91CF911F910F910C943F02CC358DE5C7
:1005C000D807A1F0CD35DD4591F70E947A0DEFCF28
:1005D0000E94980280E0DF91CF911F910F910895C2
:1005E0000E94340EF7CF0E94830DE1CF0E94860D4A
:1005F000DECF0E946A180C9411030E9414030C941D
:100600006E1808950C94010381E008950C9404037E
:100610000895CF93C82F0E9402038C2FCF910C9482
:10062000060380E00C9409030E9430170C94090320
:100630000E94301790918801981721F080938801CB
:100640000C9409030895EF92FF920F931F93CF9399
:10065000DF93CDB7DEB72B970FB6F894DEBF0FBE92
:10066000CDBF042F4F83152F588769877A878B87D3
:10067000EA84FB8461110E94C80C1E8285E0FE01A1
:100680003796DE01119601900D928A95E1F7EF28D9
:10069000A9F449815A816B817C818D819E810E9460
:1006A000E70B2B960FB6F894DEBF0FBECDBFDF91E0
:1006B000CF911F910F91FF90EF90089510231F3F4E
:1006C00041F3CE0101960E9484028111E2CFE9CF6D
:1006D000FC01808191810C948709CF93C82F8823D6
:1006E00009F446C08CEF8C0F813AA0F46C2F8091F6
:1006F0000201909103010E94A617882329F08C2FF4
:100700000E94880C0E94E80C8C2F0E94810CCF91D3
:100710000C94E80C80E28C0F883048F4C77081E0BC
:1007200001C0880FCA95EAF70E94A90CF0CF8BE5AB
:100730008C0F833038F42C2F2452330BC901CF9106
:100740000C946617E8E5EC0FE73150F4F0E0EE0F9B
:10075000FF1FE75EFE4F80819181CF910C947C1743
:10076000CD3E30F08C2F0E944413CF910C94061490
:10077000CF910895882361F19CEF980F913A20F46E
:100780000E94880C0C94E80C90E2980F983050F47A
:10079000877091E001C0990F8A95EAF7892F0E942E
:1007A000AF0CF0CF9BE5980F933020F490E080E001
:1007B0000C94661798E5980F973120F490E080E04C
:1007C0000C947C178D3E20F00E948D130C9406141F
:1007D00008951F93CF93DF93182FEB010E946D03B1
:1007E000209731F4812FDF91CF911F910C94BA03A0
:1007F0008FE99FE00197F1F700C000002197F0CF4B
:1008000070E060E0893311F460E570E00C94E90376
:10081000882321F00E94A90C0C94E80C08958823E9
:1008200021F00E94AF0C0C94E80C0895AF92BF9297
:10083000CF92DF92EF92FF920F931F93CF93DF93AC
:1008400000D000D00F92CDB7DEB76C016D837983F5
:10085000FC011281F580F2948FE0F8220E949F0C37
:10086000E82E8823B9F0E12E1123A1F08981807F41
:10087000803421F08D81805E8830C8F080918B02B9
:1008800082FD15C082E00E94490D0E949F0C91E0FC
:10089000E82EE926898182958F70A82EB12C8C30A4
:1008A00008F06CC0F501EF54FF4D0C944620E12C8C
:1008B000F1CF09810F70F981F07F11F00295007F6F
:1008C0001123A1F0002361F08D81805E883018F043
:1008D0001D81111107C0802F0E94A90C0E94E80CF5
:1008E0008D8144C0802F0E94BA0CF8CF8D810E9468
:1008F000BA03002309F442C08D81805E883018F06D
:100900001D81111104C0802F0E94AF0C03C0802FE5
:100910000E94C00C0E94E80C31C009810F7029812F
:10092000207F203211F00295007F3D81332381F03A
:10093000313009F471C0112309F47BC0FF2009F4A0
:1009400071C0F601858180FFCBCF8F7085836AC02F
:1009500080918B0282FF40C0112359F0002329F0BF
:10096000802F0E94A90C0E94E80C80E00E946D0379
:1009700005C080E00E94BA030111C5CF88E0A81A23
:10098000B10894E0A916B10420F40E9430170E9427
:100990000903EE2009F49FC10E949B0C80FD9BC1BE
:1009A000F60112820E94950C0E94DE07C6010E9489
:1009B00092060E94950C0F900F900F900F900F9041
:1009C000DF91CF911F910F91FF90EF90DF90CF902B
:1009D000BF90AF900C940F08112389F0F11006C05E
:1009E0000E94CB0C802B0E940804C8CF81E0F81233
:1009F000F7CF0E94CB0C802B0E94D10CBFCFF110FF
:100A000006C00E94DE0C802F0E940F04B7CF91E039
:100A1000F91609F4B3CFF5CF112331F0E5E0EF1566
:100A200008F4ACCF802FDFCFF4E0FF1508F4A6CF99
:100A3000EACFFF2041F30D81093349F41FEF27EE80
:100A400033E0115020403040E1F700C000008D81BC
:100A50000E94BA0393CF898186958695837069F049
:100A6000813009F08BCF8D8199819370111102C073
:100A700090E080E00E947C1781CF8D8199819370F6
:100A8000111102C090E080E00E94661777CF8D813F
:100A9000112329F00E9444130E9406146FCF0E9474
:100AA0008D13FACF8981837009F050C0111166CF80
:100AB0002D81229526952770220F220F4D814F7090
:100AC00050E070E060E0022E04C0440F551F661F26
:100AD000771F0A94D2F70D8180E090E0DC0104FFDB
:100AE0000FC08FE090E0A0E0B0E004C0880F991F35
:100AF000AA1FBB1F2A95D2F780959095A095B09517
:100B000019811695169513701D838C019D01042B78
:100B1000152B262B372B09831A832B833C831D81AE
:100B200069817A818B819C81123051F0133059F0A8
:100B3000113019F00E94540721CF0E942C071ECFBC
:100B40000E947C071BCF0E942A0718CF112309F4AB
:100B500048C0098100FF12CF2D812295269527706C
:100B6000220F220F4D814F7050E070E060E0022EA6
:100B700004C0440F551F661F771F0A94D2F70D81DA
:100B800080E090E0DC0104FF0FC08FE090E0A0E087
:100B9000B0E004C0880F991FAA1FBB1F2A95D2F787
:100BA00080959095A095B09519811695169513701E
:100BB0001D838C019D01042B152B262B372B0983BC
:100BC0001A832B833C831D8169817A818B819C816F
:100BD000123071F0133079F0113039F00E949D0815
:100BE000CDCE198111FFCACEB7CF0E947508C6CEEF
:100BF0000E94C508C3CE0E94A807C0CE09810F700D
:100C00000983112329F0802F0E94DE078D81EBCE0E
:100C10008D810E940F0489810E940F08AFCE0D8143
:100C2000023F59F160F4003FC1F0013F89F0112308
:100C300009F44CC0F11054CE89818F7122C00D810E
:100C4000033F11F1043F99F780918B0282FF26C088
:100C500089818F71112301F314C0112349F014E02D
:100C60001F1508F48BCE89818F710E94440886CEAF
:100C700025E02F1508F482CEF6CF89818F711111EE
:100C8000CBCF0E94DE077ACE112329F089818F71A4
:100C90000E94B90773CE0E94B40770CE112359F099
:100CA00009810F710983802F0E94DE0763E089812B
:100CB0000E942E0D63CE81E00E94490D11E01F15A8
:100CC00008F05CCE82E00E94490D58CEF110B3CE00
:100CD00089818F71A1CF0F900F900F900F900F907F
:100CE000DF91CF911F910F91FF90EF90DF90CF9008
:100CF000BF90AF9008950F931F93CF93DF93EC01B4
:100D0000688179818A810E9493098C010E94ED0893
:100D10000E942907B801CE01DF91CF911F910F9159
:100D20000C941604CF93DF93EC01988189812B8179
:100D30003C81232B19F089238F3F59F4DF91CF9108
:100D40000895CE010E947B06CE01DF91CF910C94D5
:100D50008602CE010E94A7028111F3CF0E949F0C50
:100D6000882361F38A81882349F380918B0282FD75
:100D7000E5CF82E0DF91CF910C94490D90E080E0C7
:100D80000E94661790E080E00E947C170E94C80CC9
:100D90000E94E80C0E9431150C9406140E948F0CDE
:100DA0000C94BE060E94B70C0C94CE06282F929588
:100DB0009F70963091F060F4925F9F70923030F4A3
:100DC00081E0203F81F030F4283E30F080E008954B
:100DD0009A5FF3CF243FD1F7089581E0283EE0F3F6
:100DE000213FA1F7F9CF0895FC01808191810E94F4
:100DF00087090C94D606CF93DF9300D000D00F92D2
:100E0000CDB7DEB70F900F900F900F900F90DF913E
:100E1000CF910895CF93DF9300D000D000D0CDB70D
:100E2000DEB726960FB6F894DEBF0FBECDBFDF91BA
:100E3000CF91089508950C941A070E941B076093A0
:100E4000B6017093B7018093B8019093B9010C94E7
:100E5000BE0608950C941D07CF93DF9300D000D0F9
:100E6000CDB7DEB769837A838B839C838091B6018B
:100E70009091B701A091B801B091B90129813A814F
:100E80004B815C81282B392B4A2B5B2B29833A839E
:100E90004B835C83CA01B9010F900F900F900F90A4
:100EA000DF91CF910C941D07CF93DF9300D000D03A
:100EB000CDB7DEB769837A838B839C838091B6013B
:100EC0009091B701A091B801B091B90129813A81FF
:100ED0004B815C81282339234A235B2329833A836E
:100EE0004B835C83CA01B9010F900F900F900F9054
:100EF000DF91CF910C941D07CF93DF9300D000D0EA
:100F0000CDB7DEB769837A838B839C838091B601EA
:100F10009091B701A091B801B091B90129813A81AE
:100F20004B815C81282739274A275B2729833A830D
:100F30004B835C83CA01B9010F900F900F900F9003
:100F4000DF91CF910C941D070C941A070C94A40701
:100F50000E94A6076093B2017093B3018093B4011D
:100F60009093B5010C94BE0660E070E0CB010C9448
:100F7000A8070F931F93CF93DF9300D000D0CDB776
:100F8000DEB741E050E060E070E08A019B0104C000
:100F9000000F111F221F331F8A95D2F709831A836E
:100FA0002B833C83C901B8010F900F900F900F90D5
:100FB000DF91CF911F910F910C94A8070F931F936E
:100FC000CF93DF9300D000D0CDB7DEB741E050E043
:100FD00060E070E004C0440F551F661F771F8A95BC
:100FE000D2F78091B2019091B301A091B401B09178
:100FF000B5018A019B01082B192B2A2B3B2B098356
:101000001A832B833C83C901B8010F900F900F9076
:101010000F90DF91CF911F910F910C94A8070F9320
:101020001F93CF93DF9300D000D0CDB7DEB741E060
:1010300050E060E070E004C0440F551F661F771F4A
:101040008A95D2F740955095609570958091B20140
:101050009091B301A091B401B091B5018A019B01B7
:10106000082319232A233B2309831A832B833C83D8
:10107000C901B8010F900F900F900F90DF91CF91A1
:101080001F910F910C94A8070F931F93CF93DF9399
:1010900000D000D0CDB7DEB741E050E060E070E0B6
:1010A00004C0440F551F661F771F8A95D2F78091A1
:1010B000B2019091B301A091B401B091B5018A0140
:1010C0009B01082719272A273B2709831A832B838B
:1010D0003C83C901B8010F900F900F900F90DF91E2
:1010E000CF911F910F910C94A807CF93DF9300D05D
:1010F00000D0CDB7DEB769837A838B839C838091E0
:10110000B2019091B301A091B401B091B5012981D0
:101110003A814B815C81282B392B4A2B5B2B29830D
:101120003A834B835C83CA01B9010F900F900F90F3
:101130000F90DF91CF910C94A807CF93DF9300D04D
:1011400000D0CDB7DEB769837A838B839C8380918F
:10115000B2019091B301A091B401B091B501298180
:101160003A814B815C81282339234A235B232983DD
:101170003A834B835C83CA01B9010F900F900F90A3
:101180000F90DF91CF910C94A807CF93DF9300D0FD
:1011900000D0CDB7DEB769837A838B839C8380913F
:1011A000B2019091B301A091B401B091B501298130
:1011B0003A814B815C81282739274A275B2729837D
:1011C0003A834B835C83CA01B9010F900F900F9053
:1011D0000F90DF91CF910C94A8070895E82F2CE091
:1011E000929FE00D11248E2F877041E001C0440FC3
:1011F0008A95EAF7E695E695E69585E0E89FF001A1
:101200001124E657FE4F30E020E070E05191DF01FD
:101210001197CB01022E02C0969587950A94E2F7AA
:10122000817081958527842385278C932F5F3F4F7D
:101230002530310559F70895E82F2CE0929FE00DF5
:1012400011249E2F9770E695E695E69585E0E89F38
:10125000F0011124E657FE4F50E040E080E021917C
:1012600030E0092E02C0369527950A94E2F72170E6
:101270003327042E01C0220F0A94EAF7822B4F5F16
:101280005F4F4530510559F70895BF92CF92DF92D5
:10129000EF92FF920F931F93CF93DF938C01C09037
:1012A000B201D090B301E090B401F090B50180910B
:1012B000B6019091B701A091B801B091B901C82AC7
:1012C000D92AEA2AFB2ACFE1D0E0BC2ED701C601F9
:1012D0000C2E04C0B695A795979587950A94D2F7DA
:1012E00080FD0EC0219788F7B12C8B2DDF91CF9117
:1012F0001F910F91FF90EF90DF90CF90BF900895D6
:10130000B8018C2F0E942810019761F3EECFCF9384
:10131000DF93D82FC92F0E9445096D2F7C2FDF91B5
:10132000CF910C9428101F93CF93DF93162FD72FB4
:1013300090918901992339F0862F972FDF91CF91D2
:101340001F910C948709882391F0862F972F0E9474
:101350004509C82F682F812F9D2F0E94EE08612F0D
:101360007D2F8C2FDF91CF911F910C942810862F09
:10137000972F0E941C09C82FF2CF1F93CF93DF93A2
:10138000E091BA0116E08091BB018E1304C0DF9199
:10139000CF911F910895CE2FD0E01E9FF001112410
:1013A000E454FE4F40815181628173818481958133
:1013B0000E940A072196EC2FE770E5CF4091EC01DF
:1013C0005091ED016091EE017091EF018091F0017B
:1013D0009091F1010C940A07FF920F931F93CF9302
:1013E000DF938091F101807FD1F48091EE01882319
:1013F000B1F08091BA011091BB017091EC01609144
:10140000ED01A091EF01B091F001062F0723C091EB
:101410000001D091010196E0F92E181306C0DF916A
:10142000CF911F910F91FF90089590E0109711F0C8
:101430000F3F19F401968770F0CFF89E9001F99E46
:10144000300D1124F901E454FE4F41816413F2CFB1
:1014500040814713EFCF42814111ECCF438154814A
:101460004A1B5B0B4C175D0728F78091F1018F70C9
:1014700080618093F101F901EF53FE4F80818F70FD
:10148000806180838CEE91E00E949206DF91CF9183
:101490001F910F91FF900C94BD09AF92BF92CF9214
:1014A000DF92EF92FF920F931F93CF93DF93CDB70D
:1014B000DEB72B970FB6F894DEBF0FBECDBF8C0101
:1014C00085E0F801DE01179601900D928A95E1F70B
:1014D000D8011296EC9012971396CD90DC908CEE7A
:1014E000A82E81E0B82E2091EC019091ED01409161
:1014F000EF015091F0014115510529F0892F822308
:101500008F3F09F04DC1EE2009F45DC1C8010E9472
:10151000F406F82E882309F456C186E0F801ACEEF3
:10152000B1E001900D928A95E1F78CEE91E00E9476
:1015300068030E94EC0903C18091F101E82FE07F6C
:101540004617570708F0ABC0D80111963C91119788
:10155000E111E1C0FE2C391325C09C91921322C0E9
:10156000E11020C08F7080618093F1010E94DE093C
:101570008CEE91E00E9492068091F101F801858342
:101580008F2D2B960FB6F894DEBF0FBECDBFDF9127
:10159000CF911F910F91FF90EF90DF90CF90BF9070
:1015A000AF9008952F81CD2829F0832F82238F3F7C
:1015B00009F0AEC080E0F82FF170DF2EE091BA01A3
:1015C0004091BB0156E080FD1CC0EE20C9F2809125
:1015D000F10181608093F101F12CD2CF8E2F90E048
:1015E0005E9FF0011124E454FE4F6181361306C062
:1015F0006081621303C06281E612E7CF0196E82F93
:10160000E770E413EBCF8F8198850E948709292F1B
:1016100022952F70903268F0225F2F70223080F474
:101620009F7059F0D80115969C91907F31F4D12C80
:101630000AC09F7011F08823D1F3805E8830B8F320
:10164000C8010E949206FD2C9BCFC8010E94F4069F
:10165000882309F4B8C0EE2009F4B5C08091F101E7
:10166000803270F02091EC013091ED013A832983B2
:101670001B82DD82CC828E83CE0101960E9492066F
:1016800086E0F801ACEEB1E001900D928A95E1F7A9
:101690000E94EC090E94DE09FF24F39471CFE1114E
:1016A00051C04F81588569857A858B850E94FB06DC
:1016B0008CEE91E00E94920686E0D5011D928A95FB
:1016C000E9F70E94DE0988CF86E0F801ACEEB1E0D0
:1016D00001900D928A95E1F753CFC8010E94F4065C
:1016E0008111CECF8091F10181608093F101C80119
:1016F0000E94920645CF4F81588569857A858B85F2
:101700000E94FB0686E0D5011D928A95E9F717C075
:1017100081E08E2550CF391398CFF8019081921334
:1017200094CFE11092CF8583C8010E94920686E093
:10173000F801ACEEB1E001900D928A95E1F70E94BC
:10174000DE091ECFF801318193137FCFF80190811C
:1017500092137BCFE11079CF8583C8010E94920656
:1017600086E0D5011D928A95E9F70ACFD801119636
:101770008C919813B2CFF80180818213AECF809103
:10178000F10180FDA1CF982F907F09F49DCF858333
:10179000903F51F2982F907F905F8F70892BC3CF2D
:1017A000F090EE01F601E41BF50BAF016091000132
:1017B00070910101F110C0CE4617570708F09BCF7A
:1017C000FE2CE110D3CFC8010E94920665CF1F9373
:1017D000CF93DF93CDB7DEB72C970FB6F894DEBF6B
:1017E0000FBECDBF4F83588769877A878B879C87C9
:1017F000CE0107960E944D0A882369F08A859B8551
:10180000892B39F058854F81852F84238F3F09F02C
:1018100071C016E05FC086E0FE013796DE011196CA
:1018200001900D928A95E1F78F8198852091BB01F7
:101830004091BA016A857B85672B59F389238F3FD5
:1018400041F330E0C90101968770992748171906BE
:1018500071F40E94D2061092BB011092BA0186E088
:10186000ECEEF1E0DF011D928A95E9F7D2CF96E028
:10187000929FD001939FB00D1124A454BE4FFE013E
:10188000319601900D929A95E1F78093BB010E94E9
:10189000BD09BFCF819FC001112484549E4F0E9477
:1018A0004D0A8823E9F0E091BA011E9FF00111244E
:1018B000E454FE4F4081518162817381848195811E
:1018C0000E940A078091BA0190E0019687709927DB
:1018D0008093BA018091BA019091BB018913DACF4C
:1018E0002C960FB6F894DEBF0FBECDBFDF91CF911F
:1018F0001F91089569857A858B859C850E940A07CA
:1019000088CF682F80910201909103010C942A18CE
:10191000682F80910201909103010C9435188091F9
:101920000201909103010C94401880911202859558
:1019300085958595089580911202877008959091FC
:101940001202977081E009F480E0089580913502D9
:10195000089590913502982B909335020895982F11
:1019600090958091350289238093350208951092D5
:101970003502089590913402982B90933402089583
:10198000982F909580913402892380933402089592
:1019900010923402089580911302089508950C94D2
:1019A000CE0C90918B0292FD08C090911302981773
:1019B00021F0809313020C94CF0C089580911302B0
:1019C000882329F01092130280E00C94CF0C089524
:1019D000CF93DF93E0910201F091030180913502F2
:1019E0008083E0910201F0910301808190913402A3
:1019F000892B808390911302992381F0E091020159
:101A0000F09103018081892B808380910201909164
:101A100003010E94921781110E94DE0CC091020105
:101A2000D091030140E250E062EF71E0CE010E94EC
:101A30006020892B69F080E2FE01A2EFB1E0019005
:101A40000D928A95E1F7CE01DF91CF910C943C176E
:101A5000DF91CF91089508950C942B0D90918B02F6
:101A600092FD10C098E0899F90011124622B609331
:101A700012020E94DE078091120285958595859558
:101A80000C942C0D0C94DE071092120280E00C9442
:101A90002C0D909112028095892380931202282F99
:101AA000277091F4282F082E000C330B9217130681
:101AB00059F090918B0292FD07C08595859585958B
:101AC0000E940F080C94440D089590918B0292FB94
:101AD000222720F9281769F080FB92F990938B0256
:101AE00080918A0290918B020E94B00D82E00C944A
:101AF000490D089580918B0282FB882780F991E03F
:101B000089270C94650D81E00C94650D80E00C94A0
:101B1000650D6FEF7FEF90E080E00C94992090E0EE
:101B200080E00E9475209C0181E0293E3E4F09F033
:101B300080E0089582E090E00C946D2083E090E0D6
:101B40000C946D20CF9384E090E00E946D20C82F0C
:101B500082E290E00E946D20982F8C2FCF91089503
:101B6000CF93682FC92F84E090E00E947B206C2FD8
:101B700082E290E0CF910C947B20AB01BC018FE01E
:101B800090E00C948D20AB01BC0183E190E00C94BB
:101B90008D2060E070E0CB010C94C30D60E070E03C
:101BA000CB010E94BD0D0C94C90D69EE7EEF90E053
:101BB00080E00E94992060E082E090E00E947B201B
:101BC00060E083E090E00E947B201092B6011092CA
:101BD000B7011092B8011092B90160E084E090E082
:101BE0000E947B2060E082E290E00E947B2060E027
:101BF00085E090E00E947B2060E086E090E00E941B
:101C00007B206FEF87E090E00E947B2040E050E077
:101C1000BA0188E090E00E948D2060E08DE090E0C5
:101C20000E947B2040E050E0BA0188E190E00E94F1
:101C30008D2060E087E190E00E947B2040E050E052
:101C4000BA018CE190E00E948D2070E060E080E2BB
:101C500090E00E94992040E050E0BA0188E190E0D5
:101C60000E948D200C94CE0D0C94D50D682F8EE023
:101C700090E00C947B200E94F118609344027093D2
:101C8000450280934602909347026093400270930E
:101C900041028093420290934302089585B7806881
:101CA00085BF85B7806885BF0895089508950C9411
:101CB000560E08950C94590E0E944E0E87E091E145
:101CC0000E9426170E94550E0C94570E81E008952D
:101CD0000C94660E089508950E946A0E0C946B0E83
:101CE0000E9424110C9408030E94DC180E94171211
:101CF0000E94700EEAE8F2E0808180688083809123
:101D00008A0290918B020E94B00D0C945A0E7F9221
:101D10008F929F92AF92BF92CF92DF92EF92FF92FB
:101D20000F931F93CF93DF9300D000D00F92CDB7C6
:101D3000DEB70E942C12B82E81110E943B0E56E392
:101D4000852E52E0952E10E000E0702E802F0E942C
:101D500062117C01F401C190D1904F01C816D906DF
:101D600009F452C08091480281FD0E946B11C601A6
:101D70008E259F25A12CCC24C394D12C9C012C21F1
:101D80003D21232BD9F10E94680E8823A9F0A98256
:101D90007A82EC20FD2081E0EF2809F480E08B833B
:101DA0000E94E5188160782F9D838C8349815A8138
:101DB0006B81892F0E942303000F111FF801EA5C39
:101DC000FD4F808191818C259D259183808381E0C9
:101DD000B11001C080E00F900F900F900F900F9006
:101DE000DF91CF911F910F91FF90EF90DF90CF90F7
:101DF000BF90AF909F908F907F900895A394CC0C4C
:101E0000DD1CFCE0AF12BACF0F5F1F4F053011058C
:101E100009F09BCF8FEF89838A831B820E94E5188C
:101E20008160782F9D838C8349815A816B81892FB2
:101E30000E942303CCCF0E94870E0E9420140C9492
:101E40001803CF93DF930E942C10EC01811522E53B
:101E5000920708F05AC0811531E5930708F0B7C022
:101E6000883E9105E8F4803E910570F4883A91052A
:101E700078F4853A910508F099C08130910521F0F8
:101E80000497813A910548F4CE01DF91CF910895EE
:101E9000885A9109479708F48CC0D0E0C0E0F4CF8D
:101EA000C11580E5D807A0F4C11590E4D90708F062
:101EB0008BC0CF3FD10509F028F4CD3ED10568F3A2
:101EC000D065E2CFCE019A9581159F41E8F2E5CF2A
:101ED0009E01F4E036952795FA95E1F723708C2F53
:101EE00086958695837030E2839FC0011124922BE2
:101EF000C37021E030E002C0220F331FCA95E2F721
:101F0000822B932BEC01DC68BFCFC11586E5D80787
:101F100030F5C11595E5D90708F06DC0C11524E568
:101F2000D207C0F48C2F869586959E0123703327A7
:101F3000C115D34508F050C0C1E0D0E002C0CC0FBD
:101F4000DD1F2A95E2F720E2829FC0011124C82BF1
:101F5000D92BD9CFDC2FCC27C46FD06A95CFC11530
:101F60003AE5D30788F4C11589E5D80708F04EC0D3
:101F7000CE0198558F3F910511F008F08ECFDC2FE0
:101F8000CC27C06FD06A80CFCE0190568115904289
:101F900008F083CF8D2F8F710E94C41090E0982F8E
:101FA000882788279F718C2BEC012EC0A497D064C2
:101FB0006BCFC85AD0E0CC0FDD1FC95BDE4F099054
:101FC000D881C02DD46460CFDF70D06A5DCFD82FA8
:101FD000CC27C16FD06A58CFC1E0D0E002C0CC0F8F
:101FE000DD1F2A95E2F730E2839FC0011124C82B40
:101FF000D92BDA6849CF8C2F0E94C410C82FD0E0AB
:10200000DC2FCC27CC27DF71D0623ECF8C2F8F7096
:102010000E94C41034E0D695C7953A95E1F7CF7089
:102020009C2FEC01D06930CF972F70E02CE0929F6D
:10203000600D711D1124FB019CE3899FE00DF11DD2
:102040001124EE0FFF1FE455FF4F859194910895E1
:102050000E9414100C94210F803E910599F1C8F450
:102060008133910509F476C048F48932910509F469
:102070006AC08A32910509F474C0089589339105C4
:10208000D1F082389105B9F08533910509F454C037
:102090000895843E910599F138F4823E9105F9F056
:1020A000833E910509F10895863E910599F1873E99
:1020B0009105B9F1089520918A022370A1F080EE74
:1020C00090E0089520918A0220FD52C030918B0249
:1020D00030FF09C024FF4FC090E080E004C0209191
:1020E0008A0222FDF7CF089520918A0222FD46C080
:1020F00030918B0230FDE3CF24FFF5CFEDCF20915F
:102100008B0221FFF0CF80918A0284FDE5CF87EE1C
:1021100090E0089520918A0223FFE5CF24FDDCCFD3
:10212000F6CF20918A0223FD2CC030918B0231FF23
:10213000E3CF84EE90E0089520918A0225FFD3CF6B
:1021400089E290E0089520918A0225FFCCCF85E3B3
:1021500090E0089520918A0226FFC5CF8AE290E0A0
:10216000089520918A0226FFBECF81E390E0089572
:1021700089E390E0089583EE90E0089582EE90E088
:10218000089586EE90E0089590918A0292FF06C02D
:10219000282F28712830F9F4877F846093FF06C0C8
:1021A000282F28712831F1F4877E846120918B02D9
:1021B00020FF06C0382F38713830D9F4877F81600E
:1021C00021FF06C0282F28712831D1F4877E816134
:1021D00094FD877E0895282F24712430F9F68B7F93
:1021E0008860DCCF282F2471243101F78B7E886131
:1021F000DDCF382F3171313019F78E7F8860E0CF15
:10220000282F2171213121F78E7E8861E1CF80E076
:1022100008950C94890D0E942C122FEF86E791E00F
:10222000215080409040E1F700C000000E942C1235
:1022300080E00E94621180FF04C00E9409110C948A
:10224000441908950C940B11CF93DF9300D000D064
:10225000CDB7DEB70E948F0D811102C00E94340EEF
:102260000E949A0D809348020E94A20D90938B02C7
:1022700080938A020E9422110E949E0D282F30E036
:1022800050E040E0CA01B9010E942A078091B201E2
:102290009091B301A091B401B091B50189839A8363
:1022A000AB83BC83BC01CD010F900F900F900F90BA
:1022B000DF91CF910C94A60708950C945C110895BA
:1022C0000C945F11E82FF0E0EE0FFF1FEA56FD4F70
:1022D000808191810895089580EA8A95F1F70895A3
:1022E00000C008950C946C11F894E82FE295EF70FB
:1022F000F0E041A18F7021E030E0B90102C0660F2B
:10230000771F8A95E2F7CB01962F9095942391A39E
:1023100092A1892B82A378940895CF93DF93C1E88B
:10232000D1E089918F3F11F00E94741181E0C6388D
:10233000D807B9F7C5E7D1E089918F3F11F00E9426
:10234000741181E0C138D807B9F7DF91CF910895B2
:10235000AF92BF92DF92EF92FF920F931F93CF93B2
:10236000DF93EC01D62E062F10E0C8018F579E4F49
:102370007C01FC0180818F3F09F44FC0F894E82F65
:10238000E295EF70F0E091A18F7021E030E001C0A4
:10239000220F8A95EAF7892F822B81A382A12095AB
:1023A000282322A378940E947011E5E7F1E061E808
:1023B00071E041E050E0B12CA12C21912F3F81F040
:1023C000A22FA295AF70A05EB0E08C9190E02F702C
:1023D00002C0959587952A95E2F79A0180FF02C081
:1023E00020E030E0A22AB32A440F551F6E177F0762
:1023F00021F7F70180818F3F11F00E94741161E095
:10240000A114B10409F460E08D2D0E947211000F37
:10241000111FC00FD11FB982A882DF91CF911F91E8
:102420000F91FF90EF90DF90BF90AF9008950E94C2
:102430008D118AE0E6E9F2E0DF01982F1D929A956E
:10244000E9F7ECE8F2E0DF011D928A95E9F785E013
:102450000E947A120C949302FF920F931F93CF93D2
:10246000DF93CDB7DEB72A970FB6F894DEBF0FBE65
:10247000CDBFFE0131968AE0DF011D928A95E9F712
:1024800010E0FE2E0F2F612F8F2D902F0E94A8118C
:102490001F5F1530C1F74AE050E06F2D702F8CE8B8
:1024A00092E00E9460209C0111E0892B09F410E069
:1024B000232B49F08AE0EF2DF02FACE8B2E0019039
:1024C0000D928A95E1F7212F45E066E972E08CE8EC
:1024D00092E00E947B120E949502812F2A960FB6ED
:1024E000F894DEBF0FBECDBFDF91CF911F910F914A
:1024F000FF9008950895FF920F931F93CF93DF935A
:10250000F82E092F162FD72FC42F222349F081E050
:1025100080934B020E94E51890934A0280934902EF
:1025200080914B028823A1F08091490290914A0248
:102530000E941119059760F0EF2DF02FA12FBD2FEC
:1025400090E080E0D0E08C179D0744F010924B02A1
:10255000DF91CF911F910F91FF90089521913191BB
:102560002D933D930196EFCF0E940A1B0E94740E9B
:102570000C94161B0E941A1B0E941B0F0C94341BF8
:102580000E9485180E94F11A0E945C0E0E94B412EB
:102590000E94BA120E946C0EFBCF8091520280FF03
:1025A0000DC06091090170E0660F771F60387105FA
:1025B00070F56115710569F1862F089581FF07C0D7
:1025C0006091090184E0689FB0011124EFCF609110
:1025D000090182FD0AC0809151028823A9F020914F
:1025E000080160910901821710F088E0ECCF869F06
:1025F000C001112433E0880F991F3A95E1F7622F4B
:1026000070E00E943220D2CF68E070E0D5CF8FE733
:10261000089581E008958091520280FF0CC060917E
:10262000050170E07595679575956795611571055C
:1026300049F1862F089581FF06C06091050170E081
:1026400075956795F3CF6091050182FD0BC0909160
:1026500050029923A1F06091040180910501961721
:1026600038F0682F70E06038710500F38FE7089547
:10267000899FC001112470E00E943220F4CF61E0F4
:1026800070E0D7CF81E00895E3E1E80FE331E0F5B2
:10269000F0E0E354FF4D0C9446200E94CD1281954A
:1026A0008093560208950E94CD12FACF0E94CD1257
:1026B00081958093550208950E94CD12FACF0E9411
:1026C0000B138093570208950E940B138195F9CF45
:1026D0000E940B1381958093580208950E940B135A
:1026E000FACF815F990B21E030E001C0220F8A957B
:1026F000EAF780915402822B8093540208958091CE
:102700005202816080935202089580915202826049
:10271000F9CF809152028460F5CF409155028D3EF1
:1027200059F48091560287FF0DC010925602411154
:102730000BC01092510208C08E3E81F48091560267
:1027400018169CF3442381F080915702909158020F
:10275000892B09F05AC01092500208958F3E49F417
:1027600047FFF0CF10925502809156028111ECCFB5
:10277000E0CF803F19F41416ACF3E4CF90915702E8
:10278000893F29F41916F4F610925702DBCF8A3FDD
:1027900019F497FFD7CFF8CF909158028B3F29F4C7
:1027A00097FFD0CF10925802CDCF8C3F19F4191655
:1027B000CCF3C8CF9FE0980F983090F4815F990BCD
:1027C00021E030E0B90102C0660F771F8A95E2F779
:1027D000CB01809590915402892380935402B2CF0B
:1027E0008D3F31F4809152028E7F80935202AACFA6
:1027F0008E3F21F4809152028D7FF7CF8F3F09F0F9
:10280000A1CF809152028B7FF0CF08950E94E518EE
:102810002091550230915602232B21F080934E02D5
:1028200090934F022091570230915802232B21F0B0
:1028300080934C0290934D0283E592E00C945717DD
:10284000CF92DF92EF92FF920F931F93CF93DF937C
:1028500000D000D000D0CDB7DEB726E0E3E5F2E04F
:10286000CE010196DC0101900D922A95E1F7C0900E
:102870005502D0905602E0905702F0905802109204
:1028800055021092560210925702109258022C2DA7
:102890002D298C0191F080914E0290914F020E945F
:1028A00011199C0180915102882309F440C0909134
:1028B0000A019217130608F448C08E2D8F2991F053
:1028C00080914C0290914D020E9411199C018091BF
:1028D0005002882309F478C09091060192171306DC
:1028E00008F480C08091550290915602892B9091F6
:1028F0005702892B90915802892B11F00E940614DF
:1029000086E0F801A3E5B2E001900D928A95E1F727
:1029100026960FB6F894DEBF0FBECDBFDF91CF91E4
:102920001F910F91FF90EF90DF90CF90089540910D
:102930000B019AE0499FA00111244217530708F0A8
:10294000BCCF8F5F8093510202C08F3FD1F7CC2064
:1029500059F00E94CD129FEF1C140CF491E0899F56
:10296000802D112480935502DD2059F00E94CD1254
:102970009FEF1D140CF491E0899F802D112480930A
:10298000560230915502332309F497CF2091560215
:10299000222309F492CF45EB3403C001112499237B
:1029A00059F09093550245EB2403900111243323F1
:1029B00039F03093560281CF81E080935502F3CFF6
:1029C00081E08093560279CF409107019AE0499FB8
:1029D000A00111244217530708F084CF8F5F809322
:1029E000500202C08F3FD1F7EE2059F00E940B1326
:1029F0009FEF1E140CF491E0899F802D1124809389
:102A00005702FF2059F00E940B139FEF1F140CF484
:102A100091E0899F802D11248093580230915702B4
:102A200020915802332309F45DCF222309F45ACFB1
:102A300045EB3403C0011124992359F090935702B8
:102A400045EB240390011124332339F030935802CD
:102A500049CF81E080935702F3CF81E08093580201
:102A600041CF86E0E3E5F2E0DF011D928A95E9F7C8
:102A70001092510210925002109252020895CF9378
:102A8000DF93EC01FB018281882309F4F2C0C23696
:102A9000FDE5DF0749F048F5C631ECE5DE07E0F477
:102AA000C230FCE5DF07F0F00E94A20D90938B028C
:102AB00080938A02C631ECE5DE0748F5C230FCE5BA
:102AC000DF07C0F480918A0290918B020E94B00DC2
:102AD0000E94D20680E006C09E012B5F3C45293053
:102AE000310510F3DF91CF910895C63A9DE5D907DE
:102AF000C9F7DACFFE01E350FC4580918A0281607C
:102B0000E331F10528F5E053FF4D0C944620C43025
:102B10008DE5D80770F4CB3F9CE5D90798F2FE010C
:102B2000EC5FFC45E830F10510F5ED51FF4D0C94DC
:102B30004620C236EDE5DE0709F494C090918A0282
:102B4000892F8E7F90FF8160C63ADD4509F0BACFAC
:102B500080938A02B7CF80918A028260F9CF8091F8
:102B60008A028460F5CF80918A028860F1CF8091DB
:102B70008B02816080938B02A5CF80918B02826053
:102B8000F9CF80918A028061E3CF80918A028062CE
:102B9000DFCF80918A028064DBCF0E94D2068091D1
:102BA0008A028068D5CF80918A028C60D1CF8091D3
:102BB0008B028360DFCF80918A028E7FC9CF8091A4
:102BC0008A028D7FC5CF80918A028B7FC1CF809191
:102BD0008A02877FBDCF80918B028E7FCBCF809181
:102BE0008B028D7FC7CF80918A028F7EB1CF80917B
:102BF0008A028F7DADCF80918A028F7BA9CF0E9400
:102C0000D20680918A028F77A3CF80918A02837F38
:102C10009FCF80918B028C7FADCF80918A0282FB07
:102C2000992790F921E0922790FB82F990FB83F994
:102C30008FCF80918B02982F909591708E7F892BEA
:102C400090FB81F997CF0E94D20690918A02892F3A
:102C500097FB87F980587CCF81E00E94360E32CFF7
:102C600080E0FBCF90918A02892F8F7E94FF806154
:102C70006FCF81E037CFCF93DF93EB0186319C4557
:102C800011F50E94A60C9A81992399F08A7A91E015
:102C900009F490E090935902811109C089E20E94E1
:102CA000810C0E94E80C80E0DF91CF91089585E3CC
:102CB000F6CF80915902811104C089E20E94880CEC
:102CC000F0CF85E3FBCF81E0EFCF0F931F93CF933E
:102CD000DF93C42FD22FFC0182818823C9F0409357
:102CE0005C020E94E51890935B0280935A0280E296
:102CF0008C0F883008F050C0C77081E001C0880F89
:102D0000CA95EAF7DF91CF911F910F910C940804B7
:102D100010915C02141335C080915A0290915B02AD
:102D20000E941119883C910560F5C0E2CD0F1D1776
:102D3000B9F080E2810F883040F4177081E001C063
:102D4000880F1A95EAF70E940F04C83048F481E012
:102D50009D2F977001C0880F9A95EAF70E9408048A
:102D6000802F0E940004C830B8F4D77081E001C001
:102D7000880FDA95EAF7DF91CF911F910F910C94AC
:102D80000F0480E28C0F883038F4C77081E001C0F6
:102D9000880FCA95EAF7EFCFDF91CF911F910F917E
:102DA00008950F939C01CB01243F4CE53407A1F11A
:102DB00090F4293DFCE53F0749F12A3D4CE53407F5
:102DC000E9F1283D3C45C1F0FC0182818823E1F115
:102DD00010925C0219C0263FFCE53F0719F1273F1E
:102DE0004CE5340729F1253F3C4571F707E225EE14
:102DF00044EE65EF7CE505C006E221EE41EE68EDAC
:102E00007CE50E94651680E00F91089507E225EEAB
:102E100045EE69ED7CE5F5CF06E221EE40EE64EF8C
:102E20007CE5EFCF06E221EE42EE66EF7CE5E9CFEE
:102E300007E225EE46EE67EF7CE5E3CF08E221E00E
:102E400045EE6AED7CE5DDCF81E0DECF9093870132
:102E500080938601089590936202809361020895A1
:102E6000E0916102F0916202309721F00190F081CF
:102E7000E02D099480E00895DC01E0916102F09179
:102E80006202309799F080911801882351F0809167
:102E90008A0287FF06C08C9111968C93119786E069
:102EA0008C930280F381E02DCD0109940895DC011B
:102EB000E0916102F0916202309739F082E08C93E8
:102EC0000480F581E02DCD010994089520915F02E1
:102ED000309160022817390771F090936002809357
:102EE0005F02E0916102F0916202309721F006806A
:102EF000F781E02D0994089520915D0230915E02E2
:102F00002817390771F090935E0280935D02E0917B
:102F10006102F0916202309721F00084F185E02D8A
:102F200009940895FC01329680911801882321F0BC
:102F300080918A029EE187FF96E080E0915008F43C
:102F4000089521912223D1F38F5FF8CF9C0166234E
:102F500001F1809118018823F1F080918A0287FFA6
:102F60001AC0462F469546954695603F90F4677087
:102F700081E090E002C0880F991F6A95E2F7240F64
:102F8000311DF901228130E02823392381E0232BF0
:102F900071F480E00895F9013296285F3F4F8191E6
:102FA000861721F0E217F307D1F7F3CF81E00895F8
:102FB0009C01FC0132968FEF90E04191461751F051
:102FC0008F3F19F4411101C0892F9F5F9630A9F7F7
:102FD0008F3F09F40895280F311D87FD3A95F901B7
:102FE000628308959C01FC013296285F3F4F8191D6
:102FF000861303C0DF0111971C92E217F307B9F79C
:103000000895FC01862F869586958695603F60F42D
:10301000E80FF11D677021E030E001C0220F6A95D2
:10302000EAF78281822B82830895FC01862F8695A0
:1030300086958695603F68F4E80FF11D677081E022
:1030400090E001C0880F6A95EAF780959281892304
:103050008283089520911801222329F020918A0269
:1030600027FD0C9401180C94D817209118012223E5
:1030700029F020918A0227FD0C9415180C94F21760
:10308000FC01329680911801882351F080918A02C8
:1030900087FF06C08EE1DF011D928A95E9F708954A
:1030A00086E0F9CF08950C9452188F5F80936302E5
:1030B0000C94531883E0809363020C9453180C947F
:1030C000551881E0809363020C9453180C94611896
:1030D000089508950C946918089508950C9468183B
:1030E000CF930E946C180E942C120E946D18C0E0B1
:1030F0008C2F0E946211892B31F4CF5FC530C1F74C
:1031000080E0CF91089581E0FCCF08951F921FB613
:103110001F9211248F939F93AF93BF93809164026A
:10312000811113C08091A0029091A102A091A202EE
:10313000B091A3024196A11DB11D8093A00290936E
:10314000A102A093A202B093A302BF91AF919F915D
:103150008F911F901FBE1F9018958091A8028430F8
:1031600031F10E94F9021092640288E190E020E4BB
:103170000FB6F894A895809360000FBE209360006E
:1031800083B7817F846083BF83B7816083BF789476
:10319000889583B78E7F83BF0FB6F894A8958091EA
:1031A0006000886180936000109260000FBE0895F7
:1031B0000E94D2060C94FD0282E084BD93E095BD8E
:1031C0009AEF97BD80936E0008952FB7F894809181
:1031D000A0029091A102A091A202B091A3022FBFE0
:1031E0000895CF93DF9300D000D0CDB7DEB78FB76F
:1031F000F8942091A0023091A1024091A202509136
:10320000A30229833A834B835C838FBF69817A81D0
:103210008B819C810F900F900F900F90DF91CF9139
:1032200008959C014FB7F8948091A0029091A1025B
:10323000A091A202B091A3024FBF821B930B0895ED
:1032400078941F921FB61F9211248F939F93AF9370
:10325000BF938091A0029091A102A091A202B0918F
:10326000A3020196A11DB11D8093A0029093A1021B
:10327000A093A202B093A302BF91AF919F918F91AF
:103280001F901FBE1F90189581E08093E00080E2A0
:103290008093D8001092C9008FE19EE40197F1F766
:1032A00000C0000087E090EBDC018093B1029093B6
:1032B000B202A093B302B093B40288E19CE00FB6CF
:1032C000F894A895809360000FBE90936000FFCFA4
:1032D000809188020895089522E02093E9002FEF5D
:1032E0003091E800215035FD06C035ED3A95F1F7F3
:1032F00000002111F5CF2091E80025FF0BC050E020
:1033000040E066E070E00E94A71B8091E8008E77A5
:103310008093E8000895CF93DF93D82FC92F809131
:1033200018018823C1F180918A0287FF34C060E2CE
:1033300082E08093E9008FEF9091E800815095FD45
:1033400006C095ED9A95F1F700008111F5CF8091B7
:10335000E80085FF1DC08091180170E050E040E05A
:10336000811104C050E040E068E070E08D2F9C2F98
:103370000E94A71B8091E8008E778093E80080E28E
:10338000ED2FFC2FA8E6B2E001900D928A95E1F7AF
:10339000DF91CF91089568E081E0CBCF8093650203
:1033A00070936702609366028091A802843001F5F1
:1033B00082E08093E9008FEF9091E800815095FDC5
:1033C00006C095ED9A95F1F700008111F5CF809137
:1033D000E80085FF0DC050E040E063E070E085E666
:1033E00092E00E94A71B8091E8008E778093E8000E
:1033F0000895BC0184E00C94CE19BC0183E00C94C8
:10340000CE198091A702811109C00E942F1D0E9430
:103410008C1D8091E20084608093E20008951092F8
:10342000A70208950C9461186091A40281E06111D3
:1034300001C080E00C945A189091A80281E0943069
:1034400009F080E06091A4020C945F1842E061EC06
:1034500081E00E94AB1C42E261EC82E00E94AB1C66
:103460009091A80281E0943009F080E06091A4027C
:103470000C9455188091AA02893089F148F4823061
:1034800009F49EC0833009F459C0813041F0089599
:103490008A3009F485C08B3009F46BC0089580919F
:1034A000A902813A09F049C08091E800877F8093A2
:1034B000E8008091AD029091AE02892B61F460E248
:1034C00088E692E070E00E94F61B8091E8008B771E
:1034D0008093E800089560E090E080E0F3CF809171
:1034E000A902813251F58091AD029091AE0202970E
:1034F00020F58091E800877F8093E8008091E800C4
:1035000082FF17C09091F3008091F200029731F48E
:103510008091F100813011F0863021F48091F1002A
:10352000809388028091E8008B778093E8000C9468
:10353000DF1C8091A8028111E1CF08958091A9023A
:10354000813AD9F78091AD029091AE02892BA9F70B
:103550008091E800877F8093E8008091E80080FFF9
:10356000FCCF809118018093F1008091E8008E7764
:10357000DCCF8091A902813201F78091AD02909158
:10358000AE02892BD1F68091E800877F8093E80016
:103590000E94DF1C8091AB02809318010C94D2062C
:1035A0008091A902813249F68091E800877F80935B
:1035B000E8000E94DF1C8091AC028093890208958C
:1035C0008091A902813A09F0B8CF8091E800877F05
:1035D0008093E8008091E80080FFFCCF8091890211
:1035E000C2CF84B7877F84BF0FB6F894A895809127
:1035F0006000886180936000109260000FBE80E8D8
:1036000090E00FB6F89480936100909361000FBE34
:103610000C9466180E942F1D0E948C1DE2EEF0E0B3
:1036200080818460808378940C9418208CE091E0F1
:103630000C942B178091A8028530A9F48091A802E0
:10364000853011F00C94D8180E94AD188091A60214
:103650008823A1F30E947018882381F30E94911B94
:103660000E94D206EBCF089508950C94371BFC01FD
:10367000CB01DA012F2F332723303105D1F070F43D
:103680002130310509F43EC02230310569F48BE365
:1036900090E026EC32E02D933C93089521323105E1
:1036A000E9F02232310521F190E080E030E020E0C5
:1036B000F2CFCF019927E13059F08230910559F0CE
:1036C000E2ECF2E0892B81F7849190E09F01E3CF57
:1036D000ECEAF2E0F9CFECE8F2E0F6CF892BB9F0B2
:1036E0006130710509F789E090E021EF32E0D3CF36
:1036F000892B91F061307105B9F686EB90E023E1FA
:1037000033E0C9CF82E190E021E033E0C4CF89E02B
:1037100090E028ED32E0BFCF80E490E029EC33E088
:10372000BACF80E189BD82E189BD09B400FEFDCF39
:103730008091D8008F7D8093D8008091E0008260D6
:103740008093E0008091E00081FDFCCF0895AF926E
:10375000BF92CF92DF92FF920F931F93CF93DF938D
:103760006C01EB018A010E94FE1CF82E811123C01E
:103770000115110539F0F80180819181C81BD90B21
:10378000C80ED91EB12CA12C2097A9F08091E80079
:1037900085FD22C08091E8008E778093E8000115B6
:1037A0001105A1F0F801808191818A0D9B1D918303
:1037B000808385E0F82E8F2DDF91CF911F910F919F
:1037C000FF90DF90CF90BF90AF9008950E94FE1CB5
:1037D0008823D1F2F82EEFCFF60181916F0180930B
:1037E000F1002197FFEFAF1ABF0ACECFFC01CB014A
:1037F0002091AF023091B0022617370790F0009762
:1038000029F42091E8002E772093E80040E000970B
:1038100051F4411108C08091E80082FF31C080E07E
:103820000895C901F3CF2091A8022223A9F12530E0
:10383000A9F12091E80023FD2DC02091E80022FD90
:10384000EACF2091E80020FFE2CF3091F3002091F1
:10385000F200009719F02830310558F041E0283087
:10386000310509F040E02091E8002E772093E80030
:10387000CECF41914093F10001972F5F3F4FE9CFA9
:103880008091A802882341F0853041F08091E800C2
:1038900083FFC1CF81E0089582E0089583E0089519
:1038A000FC01CB012091AF023091B00226173707FF
:1038B00090F0009729F42091E8002E772093E800FB
:1038C00040E0009751F4411108C08091E80082FF68
:1038D00032C080E00895C901F3CF2091A8022223CD
:1038E000B1F12530B1F12091E80023FD2EC02091E7
:1038F000E80022FDEACF2091E80020FFE2CF3091DE
:10390000F3002091F200009719F02830310558F0AB
:1039100041E02830310509F040E02091E8002E77A1
:103920002093E800CECF44914093F1003196019767
:103930002F5F3F4FE8CF8091A802882341F0853068
:1039400041F08091E80083FFC0CF81E0089582E0DC
:10395000089583E00895982F973028F08F70809312
:10396000E90081E008959093E900242F762F50E03C
:10397000981731F07091EC002091ED005091F0001B
:1039800021FD02C09F5FE8CF3091EB003E7F309376
:10399000EB003091ED003D7F3093ED003091EB0076
:1039A00031603093EB007093EC002093ED00509366
:1039B000F0002091EE0027FDE5CF80E00895809192
:1039C000A90287FF13C08091E80082FF06C08091A2
:1039D000E8008B778093E80004C08091A8028111F1
:1039E000F2CF08958091A8028823D9F38091E8004E
:1039F00080FFF8CF8091E8008E77ECCF2091E40033
:103A00003091E50095E6A9012091EC00822F8170AC
:103A100020FF06C08091E80080FF06C080E0089586
:103A20002091E80022FD1AC08091A802882389F025
:103A3000853089F08091EB0085FD0FC02091E40076
:103A40003091E50042175307F9F29150E1F684E016
:103A5000089582E0089583E0089581E008950E942A
:103A60009D1D0E94A51DE0EEF0E0808181608083B5
:103A7000E8EDF0E080818F77808319BCA7EDB0E09E
:103A80008C918E7F8C9380818F7E80831092A70291
:103A900008950F931F93CF93DF930E949D1D0E9463
:103AA000A51DC8EDD0E088818F77888388818068E4
:103AB000888388818F7D888319BC1092A802109218
:103AC000A4021092A6021092A50200EE10E0F801E6
:103AD00080818B7F808388818160888342E060E081
:103AE00080E00E94AB1CE1EEF0E080818E7F80835D
:103AF000E2EEF0E080818160808380818860808355
:103B0000F80180818E7F8083888180618883DF9146
:103B1000CF911F910F910895E8EDF0E080818F7EA5
:103B20008083E7EDF0E080818160808384E082BF64
:103B300081E08093A7020C94491DE8EDF0E08081BC
:103B40008E7F80831092E20008951092DA00109226
:103B5000E10008951F920F920FB60F9211242F9338
:103B60003F934F935F936F937F938F939F93AF9305
:103B7000BF93EF93FF938091E10082FF0BC0809190
:103B8000E20082FF07C08091E1008B7F8093E1001B
:103B90000E9417208091DA0080FF19C08091D80020
:103BA00080FF15C08091DA008E7F8093DA008091CB
:103BB000D90080FF94C080E189BD82E189BD09B44C
:103BC00000FEFDCF81E08093A8020E94011A80913F
:103BD000E10080FF19C08091E20080FF15C0809154
:103BE000E2008E7F8093E2008091E200806180930A
:103BF000E2008091D80080628093D80019BC85E0F3
:103C00008093A8020E94141A8091E10084FF29C0C9
:103C10008091E20084FF25C080E189BD82E189BDF9
:103C200009B400FEFDCF8091D8008F7D8093D8002D
:103C30008091E1008F7E8093E1008091E2008F7E91
:103C40008093E2008091E20081608093E2008091A5
:103C5000A402882309F449C084E08093A8020E944A
:103C60001C1A8091E10083FF29C08091E20083FF4C
:103C700025C08091E100877F8093E10082E08093FE
:103C8000A8021092A4028091E1008E7F8093E1004F
:103C90008091E2008E7F8093E2008091E20080615B
:103CA0008093E20042E060E080E00E94AB1C8091E3
:103CB000F00088608093F0000E94121AFF91EF914B
:103CC000BF91AF919F918F917F916F915F914F9134
:103CD0003F912F910F900FBE0F901F90189519BC18
:103CE0001092A8020E940F1A72CF8091E30087FD04
:103CF00002C081E0B2CF83E0B0CF1F920F920FB627
:103D00000F921124FF920F931F932F933F934F9382
:103D10005F936F937F938F939F93AF93BF93CF9353
:103D2000DF93EF93FF9309EE10E0F8018081C091DB
:103D3000EC00C795CC27C7958F70FC2EF82A10820F
:103D4000C0EFD0E08881877F888378940E94C61E68
:103D5000F8011082888188608883CF2DCF70C0835E
:103D6000FF91EF91DF91CF91BF91AF919F918F9193
:103D70007F916F915F914F913F912F911F910F9183
:103D8000FF900F900FBE0F901F9018951F93CF9329
:103D9000DF93CDB7DEB7AA970FB6F894DEBF0FBE9C
:103DA000CDBF89EA92E0FC0101962091F1002083C9
:103DB00022E0813B9207B9F70E943A1A8091E8000D
:103DC00083FF1DC18091A9029091AA029A3008F048
:103DD00016C1E92FF0E0E551FF4D0C9446208038E4
:103DE00099F0823809F00BC18091AD028F70873055
:103DF00008F005C18093E9008091EB0085FB8827DE
:103E000080F91092E90006C08091A5029091A60267
:103E1000911182609091E800977F9093E8008093E1
:103E2000F1001092F1008091E8008E77E4C08823C1
:103E300009F4D2C0823009F0E2C08091AB02811156
:103E4000D5C08091AD028F702FEF280F263008F07B
:103E5000D6C08093E9002091EB0020FFC7C09330CB
:103E600031F48091EB0080628093EB00BFC09091B1
:103E7000EB0090619093EB0021E030E001C0220F55
:103E80008A95EAF72093EA001092EA008091EB000D
:103E90008860EACF8111B3C01091AB021F77809187
:103EA000E3008078812B8093E3008091E800877F96
:103EB0008093E8000E94DF1C8091E80080FFFCCF27
:103EC0008091E30080688093E30082E0111183E039
:103ED0008093A80294C08058823008F090C08091EE
:103EE000AB029091AC028C3D23E0920799F583E000
:103EF0008A838AE289834FB7F894DE01139620E023
:103F00003EE051E2E32FF0E050935700849120FF10
:103F100003C082958F703F5F8F708A30C8F0895CD4
:103F200090E08D939D932F5F243161F74FBF809177
:103F3000E800877F8093E8006AE270E0CE01019696
:103F40000E94F61B8091E8008B778093E80057C0B1
:103F5000805DE6CF6091AD027091AE02AE014F5F21
:103F60005F4F0E94351BBC01892B09F448C080912A
:103F7000E800877F8093E80089819A810E94501C25
:103F8000E1CF8038E1F58091E800877F8093E800F9
:103F90008091A4028093F10046CF811130C09091AE
:103FA000AB02923060F58091E800877F8093E80053
:103FB0009093A4020E94DF1C8091A402882311F038
:103FC00084E005C08091E30087FDFACF81E0809313
:103FD000A8020E94261A13C08091AB02813079F4A6
:103FE00081E0933009F080E08093A6021092E9000E
:103FF0008091E800877F8093E8000E94DF1C809119
:10400000E80083FF0AC08091E800877F8093E80082
:104010008091EB0080628093EB00AA960FB6F89433
:10402000DEBF0FBECDBFDF91CF911F9108950895E0
:10403000CF938091A802882399F08091E900C091E4
:10404000EC00C795CC27C7958F70C82B1092E9005C
:104050008091E80083FD0E94C61ECF70C093E900E6
:10406000CF91089597FB072E16F4009407D077FDA3
:1040700009D00E944C2007FC05D03EF49095819514
:104080009F4F0895709561957F4F0895EE0FFF1F24
:104090000590F491E02D0994AA1BBB1B51E107C0C8
:1040A000AA1FBB1FA617B70710F0A61BB70B881FC8
:1040B000991F5A95A9F780959095BC01CD01089557
:1040C000FB01DC0104C08D910190801921F4415065
:1040D0005040C8F7881B990B0895F999FECF92BDFF
:1040E00081BDF89A992780B50895A8E1B0E042E033
:1040F00050E00C94A120262FF999FECF92BD81BDEE
:10410000F89A019700B4021639F01FBA20BD0FB615
:10411000F894FA9AF99A0FBE08950396272F0E94F1
:104120007C200E947B20252F0E947C20242F0C9431
:104130007C200196272F0E947C200C947B20DC01A0
:10414000CB01FC01F999FECF06C0F2BDE1BDF89AA2
:10415000319600B40D9241505040B8F70895F8944C
:10416000FFCF590459048D048D042B054705BE0467
:10417000BE045205FE050F060F064D1353135613CA
:104180005C13711371137113711371137113711324
:1041900071135F13641368136E137F1385138913F0
:1041A000AB15AF15B315C115C515C915CD15D3156B
:1041B000DB15DF15E315E715F315F715FB15FF15EF
:1041C000051623160D16BD15EB15EF15D715091697
:1041D00019162C163016EF1E171FFF1F171FFF1F73
:0A41E0004A1F6B1FFF1FC11FCD1FF8
:1041EA00C8001402280850011E0A140168198B1904
:1041FA006C19FD19F9196B1901E200E900EA00B519
:10420A0000B600B700CD008301CC008A0192019468
:10421A00012102230224022502260227022A02B3CE
:10422A0000B4006F007000E200E900EA00B500B6D1
:10423A0000B700CD008301CC008A019201940121CC
:10424A0002230224022502260227022A02B300B40C
:10425A00006F00700097C63435F4F5F6F731333243
:06426A003693929190943E
:00000001FF
