:100000000C9405020C943D020C943D020C943D02AC
:100010000C943D020C943D020C943D020C943D0264
:100020000C943D020C943D020C94441C0C94171D3E
:100030000C940A170C943D020C943D020C943D0262
:100040000C943D020C943D020C943D020C943D0234
:100050000C943D020C94A2170C943D020C943D02AA
:100060000C943D020C943D020C943D020C943D0214
:100070000C943D020C943D020C943D020C943D0204
:100080000C943D020C943D020C943D020C943D02F4
:100090000C943D020C943D020C943D020C943D02E4
:1000A0000C943D020C943D020C943D0235001E0060
:1000B0001F0020002100220023002400250026002C
:1000C00027002A002B0014001A0008001500170052
:1000D0001C0018000C00120013002F00290004005F
:1000E0001600070009000A000B000D000E000F00AB
:1000F00033003400E1001D001B000600190005005C
:1001000011001000360037003800DA5CE4000351BB
:10011000E300E20001512C000000025150005100A8
:1001200052004F003A003B003C003D003E003F00C3
:10013000400041004200430044004500010001002E
:1001400001000100010001000100010001004C005C
:100150004600300001000100010001000100010023
:100160000100010001000100010001000100010087
:100170000100010001000100010001000100010077
:100180003100010001000100010001000100010037
:10019000000001004A004E004B004D0001001E14FB
:1001A00001000100010001000100010001002D001B
:1001B0002E004C00010001000100081401000100A4
:1001C0000100010001002F14301446000100041446
:1001D0000100010009140A14640031022F023314D3
:1001E00034140100010001001B1406141914051435
:1001F00011141014361437143814010001000100D2
:1002000001000100010001000000010001000100E7
:1002100001000100005C010001000100010001007B
:1002200001000100010001000100010001000100C6
:1002300001000100010001000100010001000100B6
:1002400001000100010001000100010001000100A6
:100250000100010001000100010001000100010096
:1002600001000100010001000100BD00BE0001000D
:100270000100010001000100010001000100AE00C9
:1002800000000100AC00AA00A900AB001E0373002F
:100290006D006F006C0062006F00610074007200FE
:1002A00065006D00690078006400000016034600D8
:1002B000720061006E0074006900610165006B00EE
:1002C00000000403090409023B00020100A0FA092E
:1002D0000400000103010100092111010001224075
:1002E0000007058103080001090401000103000063
:1002F0000009211101000122B60007058203200038
:10030000011201000200000008EDFE0000000101E2
:1003100002000105010902A10185020901A10005F0
:1003200009190129081500250195087501810205A3
:1003300001093009311581257F950275088106096B
:10034000381581257F950175088106050C0A38024C
:100350001581257F950175088106C0C005010980BA
:10036000A101850319012AB700150126B7009501DF
:1003700075108100C0050C0901A101850419012A2D
:10038000A002150126A002950175108100C005018B
:100390000906A1018506050719E029E715002501D1
:1003A0009508750181020507190029EF150025013F
:1003B00095F075018102050819012905950575015A
:1003C0009102950175039101C005010906A101057E
:1003D0000719E029E71500250195087501810295A7
:1003E00001750881010507190029FF150026FF0086
:1003F00095067508810005081901290595057501FF
:100400009102950175039101C00011241FBECFEF29
:10041000DAE0DEBFCDBF04B603FE18C08091A902AA
:100420009091AA02A091AB02B091AC028730904BA0
:10043000A740B04B59F41092A9021092AA02109250
:10044000AB021092AC02E0E0F8E3099511E0A0E005
:10045000B1E0E8E8FFE302C005900D92A438B107CF
:10046000D9F722E0A4E8B1E001C01D92A93AB20791
:10047000E1F70E940B110C947E1F0C94000081E0A8
:10048000089581E008950E944102089508950E9410
:1004900046020895A5E0B0E0E0E5F2E00C94EA1E23
:1004A00049835A8330918B0189819A81311119C016
:1004B000662399F0222389F00E94E607182F682FFF
:1004C00089819A810E94C20769817A81812F0E9465
:1004D000670E2596E3E00C94061F0E94D407182FA0
:1004E000F3CF0E94E60769817A81F1CFFC01262FC4
:1004F000408151816281738184810E944A02089502
:1005000081E00895CF93DF93D82FC92F60E00E9438
:1005100076026D2F7C2F0E944702DF91CF910895C4
:100520000E94A90F08950E94AD0F089508950E949A
:1005300089060E9496022FEF84E39CE021508040C0
:100540009040E1F700C0000008950E9497020E94C9
:10055000C61708950E9497020E94EA1708950F9304
:100560001F93CF93DF938C0161E00E947602EC0130
:10057000B8010E944302811106C080E0DF91CF9153
:100580001F910F910895B801CE010E94361588235E
:10059000A1F3B801CE010E948913882371F3B80139
:1005A000CE010E94A814882341F3F8018281882398
:1005B00081F0CC35FDE5DF0729F178F4CF3DECE59E
:1005C000DE07B9F0CB35FDE5DF07C9F0C115DC4525
:1005D00069F0C8010E943F02D1CFCD35DC0761F040
:1005E000C83ADD45B1F70E94AA02C7CF0E94A50212
:1005F000C4CF0E949A0CF7CF0E94D80BEACF0E947A
:10060000E20BE7CF0E94E60BE4CF0E94E6160E94C1
:10061000220308950E9426030E94EB160895089570
:100620000E940F03089581E008950E941303089526
:100630000895CF93C82F0E9410038C2F0E9415039A
:10064000CF91089580E00E94190308950E949515A6
:100650000E9419030895CF930E949515C82F809189
:1006600086018C1779F0C09386010E9476176093FB
:100670008701709388018093890190938A018C2F60
:100680000E941903CF910895ABE0B0E0EAE4F3E0F3
:100690000C94E71E042F4F83152F588769877A879C
:1006A0008B87EA84FB8461110E94230B1E8285E004
:1006B000FE013796DE01119601900D928A95E1F7C1
:1006C000E114F10461F449815A816B817C818D814F
:1006D0009E810E944A0A2B96E6E00C94031F102389
:1006E0001F3F89F3CE0101960E9480028111EBCF5A
:1006F000F2CFFC01808191810E9418080895CF9368
:10070000C82F8823B9F08CEF8C0F813AA8F46C2F96
:1007100080910001909101010E940C16882329F01C
:100720008C2F0E94E10A0E94440B8C2F0E94D90A50
:100730000E94440BCF91089580E28C0F883048F4DA
:10074000C77081E001C0880FCA95EAF70E94040BC8
:10075000EFCF8BE58C0F833038F42C2F2452330BE2
:10076000C9010E94CC15E6CFE8E5EC0FE73150F463
:10077000F0E0EE0FFF1FE95EFE4F808191810E9445
:10078000E215D8CFCD3EB0F28C2F0E948F110E947F
:100790005112D0CF882379F19CEF980F913A28F429
:1007A0000E94E10A0E94440B089590E2980F98304D
:1007B00050F4877091E001C0990F8A95EAF7892F6C
:1007C0000E940A0BEFCF9BE5980F933028F490E03E
:1007D00080E00E94CC15089598E5980F973128F491
:1007E00090E080E00E94E21508958D3E20F00E9486
:1007F000D8110E94511208951F93CF93DF93182FA1
:10080000EB010E947F03209739F4812F0E94CA03D5
:10081000DF91CF911F9108958FE99FE00197F1F744
:1008200000C000002197EFCF70E060E0893311F441
:1008300060E570E00E94FC030895882321F00E9487
:10084000040B0E94440B0895882321F00E940A0B98
:100850000E94440B0895B0E0A0E0E1E3F4E00C94C2
:10086000E31E6C01D62FC72FFC011281F580F29494
:100870008FE0F8220E94FA0AE82E8823B9F0E12ED0
:100880001123A1F08C2F807F803421F080E28D0F26
:100890008830C8F08091830282FF15C082E00E94F8
:1008A000A70B0E94FA0A91E0E82EE9268C2F829588
:1008B0008F70A82EB12C8C3008F067C0F501E0587D
:1008C000F04E0C94D51EE12CF1CF0C2F0F70C07F91
:1008D00011F00295007F112399F0002359F080E276
:1008E0008D0F883010F0D11107C0802F0E94040BAB
:1008F0000E94440B8D2F41C0802F0E94150BF8CF12
:100900008D2F0E94CA03002309F43FC080E28D0F9F
:10091000883010F0D11104C0802F0E940A0B03C050
:10092000802F0E941B0B0E94440B2FC00C2F0F70B6
:10093000C07FC03211F00295007FDD2381F0D130FD
:1009400009F466C0112309F470C0FF2009F466C0E1
:10095000F601858180FFCECF8F7085835FC0809147
:10096000830282FD35C0112359F0002329F0802F26
:100970000E94040B0E94440B80E00E947F0305C08C
:1009800080E00E94CA030111C7CFE8E0AE1AB108A7
:10099000F4E0AF16B10420F40E9495150E941903EB
:1009A000EE2089F00E94F60A80FD0DC0F601128249
:1009B0000E94F00A0E941F07C6010E9449060E9479
:1009C000F00A0E942F07CDB7DEB7EAE00C94FF1EB5
:1009D000112389F0F11006C00E94260B802B0E9483
:1009E0001D04D3CFF1E0FF12F7CF0E94260B802B1E
:1009F0000E942D0BCACFF11006C00E943A0B802F27
:100A00000E942404C2CF21E0F21609F4BECFF5CF34
:100A1000112331F085E08F1508F4B7CF802FDFCF99
:100A200094E09F1508F4B1CFEACFFF2041F3D9330A
:100A300049F4FFEF27EE83E0F15020408040E1F7DA
:100A400000C000008D2F0E94CA039FCF8C2F869577
:100A50008695837069F0813009F097CF8D2F9C2F98
:100A60009370111102C090E080E00E94E2158DCFDA
:100A70008D2F9C2F9370111102C090E080E00E9496
:100A8000CC1583CF8D2F112329F00E948F110E9446
:100A900051127BCF0E94D811FACF8C2F8370A9F509
:100AA000111173CF4D2F429546954770440F440F57
:100AB0002D2F2F7030E0042E02C0220F331F0A9416
:100AC000E2F790E080E0D4FF09C08FE090E002C040
:100AD000880F991F4A95E2F780959095C695C6951F
:100AE000C370822B932BC23051F0C33059F0C13008
:100AF00019F00E94ED0649CF0E94E40646CF0E94FD
:100B0000F60643CF0E94E10640CF112361F1C0FFFA
:100B10003CCF4D2F429546954770440F440F2D2FE3
:100B20002F7030E0042E02C0220F331F0A94E2F728
:100B300090E080E0D4FF09C08FE090E002C0880F11
:100B4000991F4A95E2F780959095C695C695C37012
:100B5000822B932BC23069F0C33071F0C13031F079
:100B60000E945A0712CFC1FF10CFD3CF0E94510766
:100B70000CCF0E94630709CF0E94050706CFCF70F4
:100B8000112329F08C2F0E941F078D2F28CF8D2F26
:100B90000E9424048C2F0E942F07F7CED23F51F1E0
:100BA00060F4D03FB9F0D13F81F0112309F449C07E
:100BB000F110A0CE8C2F8F7121C0D33F11F1D43F03
:100BC000A1F78091830282FD26C08C2F8F711123A3
:100BD00011F314C0112349F094E09F1508F4D5CE09
:100BE0008C2F8F710E944107D0CEE5E0EF1508F4FD
:100BF000CCCEF6CF8C2F8F711111CDCF0E941F0755
:100C0000C4CE112329F08C2F8F710E941307BDCE03
:100C10000E940E07BACE112349F0CF718C2F0E948B
:100C20001F0763E08C2F0E94890BAFCE81E00E94EA
:100C3000A70BF1E0FF1508F0A8CE82E00E94A70BF9
:100C4000A4CEFF2059F0D93309F0FCCE2FEF87EE68
:100C500093E0215080409040E1F7F2CE8C2F8F71CD
:100C60009ACF0F931F93CF93DF93EC016881798123
:100C70008A810E9425088C010E946C070E94E00670
:100C8000B801CE010E942B04DF91CF911F910F91EB
:100C90000895CF93DF93EC01988189812B813C816A
:100CA000232B19F089238F3F51F4DF91CF910895C1
:100CB000CE010E943106CE010E948202F6CFCE0103
:100CC0000E94AF028111F4CF0E94FA0A882369F3CF
:100CD0008A81882351F38091830282FFE6CF82E0EC
:100CE0000E94A70BE2CF90E080E00E94CC1590E03C
:100CF00080E00E94E2150E94230B0E94440B0E9498
:100D00006C120E94511208950E94E90A0E94730613
:100D100008950E94120B0E9484060895282F929530
:100D20009F70963091F060F4925F9F70923030F433
:100D300081E0203F81F030F4283E30F080E00895DB
:100D40009A5FF3CF243FD1F7089581E0283EE0F386
:100D5000213FA1F7F9CF0895FC0183819481892B6C
:100D600029F08181908189238F3F11F480E00895DB
:100D7000808191810E9418080E948E060895A5E046
:100D8000B0E0E5ECF6E00C94EB1E2596E2E00C9466
:100D9000071FA6E0B0E0EFECF6E00C94EB1E269601
:100DA000E2E00C94071F08950E94D30608950E9464
:100DB000D4069093AF018093AE010E94730608950C
:100DC00008950E94D70608952091AE013091AF0199
:100DD000822B932B0E94D70608952091AE0130916B
:100DE000AF01822393230E94D70608952091AE017C
:100DF0003091AF01822793270E94D70608950E9461
:100E0000D30608950E94FF0608950E94020790935A
:100E1000AD018093AC010E947306089590E080E0DC
:100E20000E940507089521E030E0A90102C0440FA7
:100E3000551F8A95E2F7CA010E940507089521E02F
:100E400030E002C0220F331F8A95E2F78091AC0197
:100E50009091AD01822B932B0E940507089521E00C
:100E600030E002C0220F331F8A95E2F720953095BB
:100E70008091AC019091AD01822393230E940507DC
:100E8000089521E030E002C0220F331F8A95E2F777
:100E90008091AC019091AD01822793270E940507B4
:100EA00008952091AC013091AD01822B932B0E94CB
:100EB000050708952091AC013091AD018223932361
:100EC0000E94050708952091AC013091AD01822761
:100ED00093270E940507089508959B01677091E08C
:100EE00001C0990F6A95EAF763E0369527956A95F0
:100EF000E1F7220F331F220F331FFA01E20FF31F16
:100F000050E040E0682F70E08191DF0111979B0174
:100F1000042E02C0369527950A94E2F72170219598
:100F20002827292328272C934F5F5F4F44305105F2
:100F300059F708959C01982F977083E0369527956F
:100F40008A95E1F7220F331F220F331FFB01E20FB7
:100F5000F31F50E040E080E0219130E0092E02C014
:100F6000369527950A94E2F721703327042E01C0A5
:100F7000220F0A94EAF7822B4F5F5F4F44305105EE
:100F800059F70895282F862F953068F42C3058F49F
:100F9000622F70E02CE0929F600D711D11244CE8CF
:100FA00051E00E946D070895292F953068F48C3028
:100FB00058F490E06CE871E03CE0239F800D911DB7
:100FC00011240E949A07089580E00895B0E0A0E0FF
:100FD000ECEEF7E00C94E41E8C01E090AC01F09094
:100FE000AD018091AE019091AF01E82AF92ACFE0DE
:100FF000D0E0CC24C394D12CBC2EC6010C2E02C050
:10100000880F991F0A94E2F78E219F21892B49F4BA
:10101000219790F7B12C8B2DCDB7DEB7E9E00C947A
:10102000001FB8018C2F0E94810E019789F3F3CF26
:10103000CF93DF93D82FC92F0E94E6076D2F7C2F07
:101040000E94810EDF91CF9108951F93CF93DF937C
:10105000162FD72F90918B01992341F0862F972F30
:101060000E941808DF91CF911F910895882381F085
:10107000862F972F0E94E607C82F682F812F9D2F5C
:101080000E94C207612F7D2F8C2F0E94810EEACF14
:10109000862F972F0E94D407C82FF4CF1F93CF938A
:1010A000DF93E091B00116E08091B1018E1304C08E
:1010B000DF91CF911F910895CE2FD0E01E9FF001B8
:1010C0001124EE54FE4F40815181628173818481ED
:1010D00095810E94C9062196EC2FE770E5CF4091DB
:1010E000E2015091E3016091E4017091E50180918A
:1010F000E6019091E7010E94C90608951F93CF93DE
:10110000DF938091E701807F09F049C08091E4017D
:10111000882309F444C08091B001C091B10170915D
:10112000E2016091E301A091E501B091E601D62FC3
:10113000D72316E0C81799F190E0109711F0DF3F20
:1011400019F401968770F6CF189F9001199F300D02
:101150001124F901EE54FE4F41816413F2CF408116
:101160004713EFCF42814111ECCF438154814A1B99
:101170005B0B483C510528F78091E7018F70806137
:101180008093E701F901E954FE4F80818F708061FF
:10119000808382EE91E00E9449060E944E08DF9112
:1011A000CF911F910895ABE0B0E0E9EDF8E00C9429
:1011B000E31E8C0185E0F801DE01179601900D9287
:1011C0008A95E1F7F801E280C380D48082EEA82EF0
:1011D00081E0B82E2091E2019091E3014091E50178
:1011E0005091E6014115510529F0892F82238F3F47
:1011F00009F03DC1EE2009F449C1C8010E94AC06C6
:10120000F82E882309F442C186E0F801A2EEB1E08D
:1012100001900D928A95E1F782EE91E00E947903A8
:101220000E947E08F4C08091E701682F607F483CEF
:10123000510508F09CC0F80131816111D4C0FE2C29
:10124000391318C09081921315C0E11013C08F702C
:1012500080618093E7010E946F0882EE91E00E9416
:1012600049068091E701F80185838F2D2B96EAE0EE
:101270000C94FF1E2F81C114D10429F0832F8223E7
:101280008F3F09F0ADC080E0F82FF170DF2EE091C4
:10129000B0014091B10156E080FD1CC0EE2029F361
:1012A0008091E70181608093E701F12CDECF8E2FE2
:1012B00090E05E9FF0011124EE54FE4F61813613E1
:1012C00006C06081621303C06281E612E7CF019617
:1012D000E82FE770E413EBCF8F8198850E94180800
:1012E000292F22952F70903260F0225F2F702230CC
:1012F00078F49F7051F0F8019581907F31F4D12CF2
:101300000AC09F7011F08823D1F3805E8830B8F353
:10131000C8010E944906FD2CA8CFC8010E94AC0656
:10132000882309F4B3C0EE2009F4B0C08091E7012E
:10133000803270F02091E2013091E3013A832983F9
:101340001B82DD82CC828E83CE0101960E944906EB
:1013500086E0F801A2EEB1E001900D928A95E1F7E6
:101360000E947E080E946F08FF24F3947ECF6111D3
:1013700051C04F81588569857A858B850E94BF064B
:1013800082EE91E00E94490686E0F50111928A956D
:10139000E9F70E946F0889CF86E0F801A2EEB1E07C
:1013A00001900D928A95E1F760CFC8010E94AC06CA
:1013B0008111CECF8091E70181608093E701C80160
:1013C0000E94490652CF4F81588569857A858B8561
:1013D0000E94BF0686E0F50111928A95E9F717C0D1
:1013E00081E08E2551CF391398CFF8019081921367
:1013F00094CFE11092CF8583C8010E94490686E010
:10140000F801A2EEB1E001900D928A95E1F70E94F9
:101410006F082BCFF801318193137FCFF8019081B2
:1014200092137BCFE11079CF8583C8010E944906D2
:1014300086E0F50111928A95E9F717CFF8018181CD
:101440009813B3CFF80180818213AFCF8091E70169
:1014500080FDA2CF982F907F09F49ECF8583903F87
:1014600059F2982F907F905F8F70892BC4CFF090A6
:10147000E401B601641B750BAB01F110D4CE483CFE
:10148000510508F0A0CFFE2CE110D8CFC8010E9472
:1014900049066ACFACE0B0E0E0E5FAE00C94EA1E61
:1014A0004F83588769877A878B879C87CE010796F9
:1014B0000E94D308882369F08A859B85892B39F09F
:1014C00058854F81852F84238F3F09F06BC016E02C
:1014D0005FC086E0FE013796DE01119601900D9205
:1014E0008A95E1F78F8198852091B1014091B001F3
:1014F0006A857B85672B59F389238F3F41F330E061
:10150000C9010196877099274817190671F40E943E
:1015100089061092B1011092B00186E0E2EEF1E08E
:10152000DF011D928A95E9F7D2CF96E0929FD00114
:10153000939FB00D1124AE54BE4FFE013196019021
:101540000D929A95E1F78093B1010E944E08BFCFAA
:10155000819FC00111248E549E4F0E94D30888237E
:10156000E9F0E091B0011E9FF0011124EE54FE4F0E
:101570004081518162817381848195810E94C90675
:101580008091B00190E00196877099278093B00117
:101590008091B0019091B1018913DACF2C96E3E0EC
:1015A0000C94061F69857A858B859C850E94C906E7
:1015B0008ECF682F80910001909101010E949016BA
:1015C0000895682F80910001909101010E949E165C
:1015D000089580910001909101010E94AC16089538
:1015E00080910802859585958595089580910802DA
:1015F0008770089590910802977081E009F480E067
:10160000089580912B02089590912B02982B90932E
:101610002B020895982F909580912B028923809317
:101620002B02089510922B02089590912A02982B74
:1016300090932A020895982F909580912A028923E9
:1016400080932A02089510922A0208958091090237
:10165000089508950E94290B08959091830292FFA6
:1016600008C090910902981721F0809309020E9406
:101670002A0B089580910902882329F0109209020B
:1016800080E00E942A0B0895CF93DF93E091000140
:10169000F091010180912B028083E0910001F09193
:1016A0000101808190912A02892B80839091090207
:1016B000992381F0E0910001F09101018081892B53
:1016C000808380910001909101010E94F8158111A1
:1016D0000E943A0BC0910001D091010140E250E01C
:1016E00068EE71E0CE010E94261F892B59F080E23E
:1016F000FE01A8EEB1E001900D928A95E1F7CE01CE
:101700000E94A215DF91CF91089508950E94850B44
:1017100008959091830292FF11C098E0899F9001F3
:101720001124622B609308020E941F078091080217
:101730008595859585950E94860B08950E941F07C3
:1017400008951092080280E00E94860B08959091FF
:1017500008028095892380930802282F277091F42E
:10176000282F082E000C330B9217130659F0909176
:10177000830292FF07C08595859585950E942F0766
:101780000E94A10B08959091830292FB222720F9D9
:10179000281769F080FB92F990938302809182026E
:1017A000909183020E94140C82E00E94A70B08957E
:1017B0008091830282FB882780F991E089270E942B
:1017C000C30B089581E00E94C30B089580E00E943E
:1017D000C30B08956FEF7FEF90E080E00E94681FD9
:1017E000089590E080E00E94441F9C0181E0283E23
:1017F0003E4F09F080E0089582E090E00E943C1F97
:10180000089583E090E00E943C1F0895CF9384E008
:1018100090E00E943C1FC82F82E290E00E943C1F93
:10182000982F8C2FCF910895CF93682FC92F84E0E4
:1018300090E00E944A1F6C2F82E290E00E944A1FB3
:10184000CF910895AB01BC018FE090E00E945C1F36
:101850000895AB01BC0183E190E00E945C1F0895F4
:1018600060E070E0CB010E94290C089560E070E018
:10187000CB010E94220C0E94300C089568EE7EEF8E
:1018800090E080E00E94681F60E082E090E00E94AB
:101890004A1F60E083E090E00E944A1F1092AF016F
:1018A0001092AE0160E084E090E00E944A1F64E084
:1018B00082E290E00E944A1F60E085E090E00E9492
:1018C0004A1F60E086E090E00E944A1F6FEF87E0C9
:1018D00090E00E944A1F40E050E0BA0188E090E0AA
:1018E0000E945C1F60E08DE090E00E944A1F40E093
:1018F00050E0BA0188E190E00E945C1F60E087E15F
:1019000090E00E944A1F40E050E0BA018CE190E074
:101910000E945C1F70E060E080E290E00E94681F1F
:1019200040E050E0BA0188E190E00E945C1F0E9414
:10193000360C08950E943E0C0895682F8EE090E0CA
:101940000E944A1F08950E94761760933C0270938C
:101950003D0280933E0290933F0260933802709361
:10196000390280933A0290933B02089508950895B6
:101970000E94B70C089508950E94BB0C08958BE651
:101980009FE00E948B150E94B60C0E94B80C08952F
:1019900081E008950E94C80C0895089508950E945A
:1019A000CD0C0E94CE0C08950E948A0F0E9418034D
:1019B00008950E9461170E9466100E94D40CE2E80C
:1019C000F2E080818068808380918202909183021E
:1019D0000E94140C0E94BC0C0895A5E0B0E0E3EF57
:1019E000FCE00C94E01E0E947C102EE2A22E22E06D
:1019F000B22E650110E0F601E190F1906F01812FA8
:101A00000E94B00F1F5F153009F44BC0E816F906AD
:101A100091F38091400281FD0E94B90F0E94CA0C8F
:101A2000782EF12C8F2D0E94B00F8C01F501C19002
:101A3000D1905F018C159D0569F1C826D126E12C56
:101A400088248394912CC60188219921892BC1F087
:101A50007720B1F0E982FA8221E0C801882199213A
:101A6000892B09F420E02B830E946A178160782F6C
:101A70009D838C8349815A816B81892F0E94440305
:101A8000E394880C991CFCE0EF12DDCFF50132974E
:101A900011830083F39485E0F812C4CF0E94A30C55
:101AA00022C0E816F90609F0B4CF0E946A178C012B
:101AB00080912C0290912D0208171907A1F08FEF49
:101AC00089838A831B820E946A178160782F9D8395
:101AD0008C8349815A816B81892F0E944403109322
:101AE0002D0200932C020E948D120E942B0325963A
:101AF000EDE00C94FC1ECF93DF930E94860EEC0168
:101B00008115924508F053C0C11581E5D80708F04A
:101B1000B1C0C83ED105F8F4C03ED10578F4C83A4A
:101B2000D10580F4C53AD10508F093C0C130D10584
:101B300029F0CE010497813A910550F4CE01DF914E
:101B4000CF910895CE01885A9109479708F484C02F
:101B5000D0E0C0E0F3CFC11590E5D907A0F4C115DE
:101B600020E4D20708F083C0CF3FD10509F028F464
:101B7000CD3ED10568F3D065E1CFCE019A958115B0
:101B80009F41E0F2E5CF9E012370332781E090E092
:101B900002C0880F991F2A95E2F7C695C69520E2E4
:101BA000C29FE0011124C82BD92BDD68C7CFC11516
:101BB00086E5D80738F5C11595E5D90708F06EC058
:101BC000C11524E5D207C8F49E01237033278C2F5A
:101BD00086958695C115D34508F051C0C1E0D0E087
:101BE00002C0CC0FDD1F2A95E2F720E2829FC001E0
:101BF0001124C82BD92BDC68A1CFDC2FCC27C46FD4
:101C0000D06A9CCFC1158AE5D80788F4C11599E53B
:101C1000D90708F04EC0CE0198558F3F910511F0BD
:101C200008F096CFDC2FCC27C06FD06A87CFCE01CB
:101C300090568115904208F08BCF8D2F8F710E94A6
:101C4000280F90E0982F882788279F718C2BEC0114
:101C50002EC0A497D06472CFC85AD0E0CC0FDD1F3D
:101C6000CB5BDE4F0990D881C02DD46467CFDF7085
:101C7000D06A64CFDC2FCC27C16FD06A5FCFC1E0C0
:101C8000D0E002C0CC0FDD1F2A95E2F720E2829F50
:101C9000C0011124C82BD92BDA6850CF8C2F0E9499
:101CA000280FC82FD0E0DC2FCC27CC27DF71D062E3
:101CB00045CF8C2F8F700E94280F34E0D695C795A2
:101CC0003A95E1F7CF709C2FEC01D06937CF753092
:101CD000A8F46C3098F4E62FF0E09CE0799FE00DDA
:101CE000F11D11249CE3899FE00DF11D1124EE0FDD
:101CF000FF1FE455FF4F85919491089580E090E097
:101D000008950E94670E0E947B0D0895803E910504
:101D1000C1F1C8F48133910509F47DC048F48932DA
:101D2000910509F46DC08A32910509F47BC00895CC
:101D300089339105D1F082389105B9F08533910549
:101D400009F459C00895843E9105C1F138F4823EEA
:101D5000910521F1833E910531F10895863E91056B
:101D6000C1F1873E9105E1F108952091820223702F
:101D700009F065C02091830223FF14C089E290E03E
:101D800008952091820220FD43C03091830230FFEC
:101D900009C024FF4EC090E080E0089520918202A7
:101DA00022FDF7CF08952091820222FD45C0309197
:101DB000830230FD44C024FFF5CFEDCF2091830294
:101DC00021FFF0CF8091820284FDE5CF87EE90E085
:101DD00008952091820223FFE5CF24FDDCCFF6CFCA
:101DE0002091820223FD2EC03091830231FFE3CF88
:101DF00084EE90E008952091820225FFD3CFBECFDC
:101E00002091820225FD21C02091830223FFCACFA9
:101E100089E390E0C7CF2091820226FFC3CF8AE2F8
:101E200090E008952091820226FFBCCF81E390E0EC
:101E3000089583EE90E0089582EE90E0089580EE9C
:101E400090E0089586EE90E0089585E390E008958F
:101E50009091820292FF06C0282F28712830F9F451
:101E6000877F846093FF06C0282F28712831F1F402
:101E7000877E84612091830220FF06C0382F38714D
:101E80003830D9F4877F816021FF06C0282F287160
:101E90002831D1F4877E816194FD877E0895282FB3
:101EA00024712430F9F68B7F8860DCCF282F2471D1
:101EB000243101F78B7E8861DDCF382F31713130CD
:101EC00019F78E7F8860E0CF282F2171213121F70B
:101ED0008E7E8861E1CF80E008950E94EA0B08952C
:101EE0000E947C102FEF86E791E0215080409040C7
:101EF000E1F700C000000E947C1080E00E94B00F5B
:101F000080FF04C00E946D0F0E94C61708950E94B2
:101F1000700F08950E94F10B811102C00E949A0C6B
:101F20000E94FC0B809340020E94060C9093830257
:101F3000809382020E94870F0E94010C90E00E9411
:101F4000E1068091AC019091AD010E9402070895D5
:101F500008950E94A80F089508950E94AC0F089557
:101F6000E82FF0E0EE0FFF1FE257FD4F80819181D7
:101F70000895089580EA8A95F1F7089500C00895BC
:101F80000E94BA0F0895F894E82FE295EF70F0E000
:101F900041A18F7021E030E0B90102C0660F771FC8
:101FA0008A95E2F7CB01962F9095942391A392A165
:101FB000892B82A378940895CF93DF93CFE7D1E064
:101FC00089918F3F11F00E94C30F81E0C438D80778
:101FD000B9F7C3E7D1E089918F3F11F00E94C30F99
:101FE00081E0CF37D807B9F7DF91CF910895AF924D
:101FF000BF92DF92EF92FF920F931F93CF93DF93E5
:10200000EC01D62E062F10E0C80181589E4F7C01AE
:10201000FC0180818F3F09F44FC0F894E82FE295CE
:10202000EF70F0E091A18F7021E030E001C0220F4D
:102030008A95EAF7892F822B81A382A120952823F4
:1020400022A378940E94BE0FE3E7F1E06FE771E00E
:1020500041E050E0B12CA12C21912F3F81F0A22F23
:10206000A295AF70A05EB0E08C9190E02F7002C09E
:10207000959587952A95E2F79A0180FF02C020E0A6
:1020800030E0A22AB32A440F551F6E177F0721F7AD
:10209000F70180818F3F11F00E94C30F61E0A1140E
:1020A000B10409F460E08D2D0E94C00F000F111FD4
:1020B000C00FD11FB982A882DF91CF911F910F91DC
:1020C000FF90EF90DF90BF90AF9008950E94DC0FDB
:1020D0008AE0EEE8F2E0DF01982F1D929A95E9F789
:1020E000E4E8F2E0DF011D928A95E9F785E00E94BD
:1020F000BB100E9490020895AAE0B0E0E2E8F0E18F
:102100000C94E81EFE0131968AE0DF011D928A954B
:10211000E9F710E0FE2E0F2F612F8F2D902F0E94D8
:10212000F70F1F5F1530C1F74AE050E06F2D702F99
:1021300084E892E00E94261FAC0121E0892B09F47B
:1021400020E0452B49F08AE0EF2DF02FA4E8B2E023
:1021500001900D928A95E1F745E06EE872E084E81F
:1021600092E00E94BC10182F0E949302812F2A96A1
:10217000E5E00C94041F0895B0E0A0E0E2ECF0E18B
:102180000C94E61ED82EE92EF62E072FC42F2223FC
:1021900049F081E0809343020E946A1790934202C3
:1021A0008093410210914302111107C010E0812F6A
:1021B000CDB7DEB7E7E00C94021F80914102909109
:1021C00042020E949317059788F3D0E0CC0FDD1FE1
:1021D000AE016D2D7E2D8F2D902F0E94261F892BF5
:1021E00051F0AE016D2D7E2D8F2D902F0E94331F4B
:1021F00010924302DCCF10E0FBCF0E94A0190E9496
:10220000D90C0E94AD1908950E94B2190E94ED0CDC
:102210000E94CC1908950E9403170E9486190E94FB
:10222000BF0C0E94FD100E9404110E94CF0CFBCF36
:1022300080914A0280FF0DC06091070170E0660F37
:10224000771F6038710570F56115710569F1862F8A
:10225000089581FF07C06091070184E0689FB00185
:102260001124EFCF6091070182FD0AC080914902DD
:102270008823A9F02091060160910701821710F0D0
:1022800088E0ECCF869FC001112433E0880F991FAE
:102290003A95E1F7622F70E00E94C11ED2CF68E04C
:1022A00070E0D5CF8FE7089581E0089580914A02CC
:1022B00080FF0CC06091030170E07595679575957E
:1022C00067956115710549F1862F089581FF06C054
:1022D0006091030170E075956795F3CF60910301FC
:1022E00082FD0BC0909148029923A1F060910201F8
:1022F00080910301961738F0682F70E060387105FF
:1023000000F38FE70895899FC001112470E00E94B7
:10231000C11EF4CF61E070E0D7CF81E00895E3E122
:10232000E80FE331E0F5F0E0E457F04E0C94D51EF1
:102330000E941811819580934E0208950E941811F1
:10234000FACF0E941811819580934D0208950E9442
:102350001811FACF0E94561180934F0208950E94DF
:1023600056118195F9CF0E945611819580935002A4
:1023700008950E945611FACF815F990B21E030E059
:1023800001C0220F8A95EAF780914C02822B80933C
:102390004C02089580914A02816080934A02089518
:1023A00080914A028260F9CF80914A028460F5CF21
:1023B00040914D028D3E59F480914E0287FF0DC031
:1023C00010924E0241110BC01092490208C08E3E7D
:1023D00081F480914E0218169CF3442381F0809181
:1023E0004F0290915002892B09F05AC01092480276
:1023F00008958F3E49F447FFF0CF10924D0280912F
:102400004E028111ECCFE0CF803F19F41416ACF3EB
:10241000E4CF90914F02893F29F41916F4F61092F7
:102420004F02DBCF8A3F19F497FFD7CFF8CF9091B7
:1024300050028B3F29F497FFD0CF10925002CDCF9E
:102440008C3F19F41916CCF3C8CF9FE0980F983041
:1024500090F4815F990B21E030E0B90102C0660F72
:10246000771F8A95E2F7CB01809590914C028923E2
:1024700080934C02B2CF8D3F31F480914A028E7F1F
:1024800080934A02AACF8E3F21F480914A028D7F29
:10249000F7CF8F3F09F0A1CF80914A028B7FF0CF19
:1024A00008950E946A1720914D0230914E02232B0D
:1024B00021F0809346029093470220914F02309181
:1024C0005002232B21F080934402909345028BE429
:1024D00092E00E94BD15089586E0EBE4F2E0DF0192
:1024E0001D928A95E9F710924902109248021092C3
:1024F0004A020895FC01828181110DC083818111FE
:102500000AC08481811107C081E09581911101C0C9
:1025100080E08170089581E0FCCFA6E0B0E0E3E9BF
:10252000F2E10C94E81E86E0EBE4F2E09E012F5FFE
:102530003F4FD90101900D928A95E1F710924D021B
:1025400010924E0210924F02109250028B819C8189
:10255000892B890189F080914602909147020E945F
:1025600093179C01809149028823B1F19091080151
:102570009217130608F43DC08D819E81892B91F03E
:1025800080914402909145020E9493179C01809192
:102590004802882309F46EC0909104019217130633
:1025A00008F476C0B8018BE492E00E94BE16811157
:1025B00005C08BE492E00E947A1281110E945112B0
:1025C00086E0F801ABE4B2E001900D928A95E1F764
:1025D0002696E5E00C94041F409109019AE0499F7A
:1025E000A00111244217530738F68F5F80934902E8
:1025F00002C08F3FD1F7FB80FF2059F00E941811D5
:102600009FEF1F140CF491E0899F802D112480937B
:102610004D02FC80FF2059F00E9418119FEF1F14FB
:102620000CF491E0899F802D112480934E0230910B
:102630004D02332309F4A0CF20914E02222309F446
:102640009BCF45EB3403C0011124992359F090939B
:102650004D0245EB240390011124332339F03093CC
:102660004E028ACF81E080934D02F3CF81E08093C8
:102670004E0282CF409105019AE0499FA0011124AA
:102680004217530708F08ECF8F5F8093480202C035
:102690008F3FD1F7FD80FF2059F00E9456119FEF28
:1026A0001F140CF491E0899F802D112480934F0218
:1026B000FE80FF2059F00E9456119FEF1F140CF46A
:1026C00091E0899F802D11248093500230914F0218
:1026D000332309F467CF20915002222309F462CFFB
:1026E00045EB3403C0011124992359F090934F0214
:1026F00045EB240390011124332339F03093500229
:1027000051CF81E080934F02F3CF81E0809350025C
:1027100049CFCF93DF93EC01FB018281882309F439
:1027200015C1C236FDE5DF0749F048F5C631ECE5D5
:10273000DE07E0F4C230FCE5DF07F0F00E94060C93
:102740009093830280938202C631ECE5DE0778F530
:10275000C230FCE5DF07F0F48091820290918302A1
:102760000E94140C0E94890680E006C09E012B5F27
:102770003C452930310510F3DF91CF910895C63AD9
:102780009DE5D907D9F29E012E5A3D4523303105EA
:1027900098F7D4CFFE01E350FC458091820281601E
:1027A000E331F10550F5E156F04E0C94D51EC430DE
:1027B0008DE5D80770F4CB3F9CE5D90768F2FE01A0
:1027C000EC5FFC45E830F105E8F5EE54F04E0C9472
:1027D000D51ECE3AEDE5DE0719F190F4C2368DE54F
:1027E000D80709F4ACC090918202892F8E7F90FFA8
:1027F0008160C63ADD4509F0AFCF80938202ACCF4D
:10280000CF3AEDE5DE0709F443C0C03BDD4509F0F2
:10281000A3CF90918302892F877F93FF886003C0A5
:102820008091830288608093830296CF8091820298
:102830008260E3CF809182028460DFCF8091820248
:102840008860DBCF809183028160EDCF809183022D
:102850008260E9CF809182028061CFCF8091820235
:102860008062CBCF809182028064C7CF0E948906AC
:10287000809182028068C1CF809182028C60BDCF3E
:10288000809183028360CFCF809182028E7FB5CF0B
:1028900080918302877FC7CF809182028D7FADCFE9
:1028A000809182028B7FA9CF80918202877FA5CF02
:1028B000809183028E7FB7CF809183028D7FB3CFCB
:1028C000809182028F7E99CF809182028F7D95CFF9
:1028D000809182028F7B91CF0E9489068091820233
:1028E0008F778BCF80918202837F87CF8091830205
:1028F0008C7F99CF8091820282FB992790F921E009
:10290000922790FB82F990FB83F977CF8091830225
:10291000982F909591708E7F892B90FB81F983CFB2
:102920000E94890690918202892F97FB87F980582F
:1029300064CF81E00E949D0C0FCF80E0FBCF90918F
:102940008202892F8F7E94FF806157CF81E014CF60
:10295000CF93DF93EB0186319C4511F50E94010B6B
:102960009A81992399F08A7A91E009F490E0909302
:102970005102811109C089E20E94D90A0E94440BC8
:1029800080E0DF91CF91089585E3F6CF80915102E9
:10299000811104C089E20E94E10AF0CF85E3FBCFF8
:1029A00081E0EFCF0F931F93CF93DF93C42FD22FEC
:1029B000FC0182818823C9F0409354020E946A1767
:1029C000909353028093520280E28C0F883040F43F
:1029D000C77081E001C0880FCA95EAF70E941D0404
:1029E000DF91CF911F910F9108951091540214130C
:1029F00032C080915202909153020E949317883CFA
:102A0000910548F5C0E2CD0F1D17B9F080E2810FA6
:102A1000883040F4177081E001C0880F1A95EAF7FA
:102A20000E942404C83048F481E09D2F977001C0B3
:102A3000880F9A95EAF70E941D04802F0E941404C3
:102A4000C83070F6D77081E001C0880FDA95EAF7D8
:102A50000E942404C5CF80E28C0F883008F6C7702E
:102A600081E001C0880FCA95EAF7F2CF0F939C016D
:102A7000CB01243F4CE53407A1F190F4293DFCE55E
:102A80003F0749F12A3D4CE53407E9F1283D3C4533
:102A9000C1F0FC0182818823E1F11092540219C037
:102AA000263FFCE53F0719F1273F4CE5340729F1A4
:102AB000253F3C4571F707E225EE44EE65EF7CE5E6
:102AC00005C006E221EE41EE68ED7CE50E94D214DD
:102AD00080E00F91089507E225EE45EE69ED7CE573
:102AE000F5CF06E221EE40EE64EF7CE5EFCF06E2A3
:102AF00021EE42EE66EF7CE5E9CF07E225EE46EEF9
:102B000067EF7CE5E3CF08E221E045EE6AED7CE586
:102B1000DDCF81E0DECF909385018093840108951D
:102B200090935A02809359020895E0915902F091CE
:102B30005A02309729F00190F081E02D099508950F
:102B400080E00895DC01E0915902F0915A0230973B
:102B500099F080911601882351F08091820287FFBD
:102B600006C08C9111968C93119786E08C9302800D
:102B7000F381E02DCD0109950895DC01E091590222
:102B8000F0915A02309739F082E08C930480F581FD
:102B9000E02DCD01099508952091570230915802FA
:102BA0002817390771F09093580280935702E091EB
:102BB0005902F0915A02309721F00680F781E02DFA
:102BC000099508952091550230915602281739072A
:102BD00071F09093560280935502E0915902F09162
:102BE0005A02309721F00084F185E02D099508956F
:102BF000FC01329680911601882321F08091820297
:102C00009EE187FF96E080E0915008F408952191BD
:102C10002223D1F38F5FF8CF9C01662301F18091CD
:102C200016018823F1F08091820287FF1AC0462F97
:102C3000469546954695603F90F4677081E090E038
:102C400002C0880F991F6A95E2F7240F311DF90120
:102C5000228130E02823392381E0232B71F480E0A6
:102C60000895F9013296285F3F4F8191861721F030
:102C7000E217F307D1F7F3CF81E008959C01FC013F
:102C800032968FEF90E04191461751F08F3F19F443
:102C9000411101C0892F9F5F9630A9F78F3F09F43A
:102CA0000895280F311D87FD3A95F9016283089533
:102CB0009C01FC013296285F3F4F8191861303C02F
:102CC000DF0111971C92E217F307B9F70895FC0191
:102CD000862F869586958695603F60F4E80FF11DF6
:102CE000677021E030E001C0220F6A95EAF7828127
:102CF000822B82830895FC01862F86958695869582
:102D0000603F68F4E80FF11D677081E090E001C05A
:102D1000880F6A95EAF780959281892382830895C6
:102D200020911601222339F02091820227FF03C04F
:102D30000E94671608950E943E160895209116017C
:102D4000222339F02091820227FF03C00E947B16C4
:102D500008950E9458160895FC013296809116013C
:102D6000882351F08091820287FF06C08EE1DF0147
:102D70001D928A95E9F7089586E0F9CF46E050E084
:102D80000E94261F9C0181E0232B09F480E0089516
:102D900008950E94C81608958F5F80935B020E9479
:102DA000C916089583E080935B020E94C9160895B6
:102DB0000E94CC16089581E080935B020E94C916A0
:102DC00008950E94DB160895089508950E94E5165F
:102DD0000895089508950E94E4160895CF930E94DF
:102DE000E9160E947C100E94EA16C0E08C2F0E9417
:102DF000B00F892B31F4CF5FC530C1F780E0CF91A0
:102E0000089581E0FCCF85B7806885BF85B780686D
:102E100085BF08951F921FB61F9211248F939F9311
:102E2000AF93BF9380915C02811113C0809198028F
:102E300090919902A0919A02B0919B024196A11D96
:102E4000B11D8093980290939902A0939A02B09337
:102E50009B02BF91AF919F918F911F901FBE1F90BA
:102E600018958091A002843031F10E9405031092E0
:102E70005C0288E190E020E40FB6F894A895809376
:102E800060000FBE2093600083B7817F846083BFA2
:102E900083B7816083BF7894889583B78E7F83BF23
:102EA0000FB6F894A89580916000886180936000C7
:102EB000109260000FBE08950E9489060E940A03C6
:102EC000089582E084BD93E095BD9AEF97BD80930D
:102ED0006E0008952FB7F89480919802909199020E
:102EE000A0919A02B0919B022FBF0895A4E0B0E098
:102EF000ECE7F7E10C94EB1E8FB7F8942091980261
:102F00003091990240919A0250919B0229833A8311
:102F10004B835C838FBF69817A818B819C812496EE
:102F2000E2E00C94071F9C014FB7F894809198023F
:102F300090919902A0919A02B0919B024FBF821B7F
:102F4000930B089578941F921FB61F9211248F93AC
:102F50009F93AF93BF938091980290919902A09113
:102F60009A02B0919B020196A11DB11D8093980217
:102F700090939902A0939A02B0939B02BF91AF9154
:102F80009F918F911F901FBE1F90189581E0809395
:102F9000E00080E28093D8001092C9008FE19EE4A7
:102FA0000197F1F700C0000087E090EBDC0180930F
:102FB000A9029093AA02A093AB02B093AC0288E15D
:102FC0009CE00FB6F894A895809360000FBE909394
:102FD0006000FFCF88E19CE00FB6F894A89580933D
:102FE00060000FBE90936000FFCF80918002089533
:102FF000089522E02093E9002FEF3091E80021505E
:1030000035FD06C035ED3A95F1F700002111F5CFF9
:103010002091E80025FF0BC050E040E066E070E042
:103020000E94401A8091E8008E778093E80008950E
:10303000CF93DF93D82FC92F809116018823C1F138
:103040008091820287FF34C060E282E08093E900D1
:103050008FEF9091E800815095FD06C095ED9A950F
:10306000F1F700008111F5CF8091E80085FF1DC0C8
:103070008091160170E050E040E0811104C050E002
:1030800040E068E070E08D2F9C2F0E94401A8091F4
:10309000E8008E778093E80080E2ED2FFC2FA0E619
:1030A000B2E001900D928A95E1F7DF91CF910895FA
:1030B00068E081E0CBCF80935D0270935F02609304
:1030C0005E028091A002843001F582E08093E900E5
:1030D0008FEF9091E800815095FD06C095ED9A958F
:1030E000F1F700008111F5CF8091E80085FF0DC058
:1030F00050E040E063E070E08DE592E00E94401A0D
:103100008091E8008E778093E8000895BC0184E008
:103110000E945B180895BC0183E00E945B1808952B
:1031200080919F02811109C00E94C81B0E94251C2A
:103130008091E20084608093E200089510929F02E3
:1031400008950E94DB16089560919C0281E0611150
:1031500001C080E00E94D21608959091A00281E003
:10316000943009F080E060919C020E94D816089586
:1031700042E061EC81E00E94441B42E261EC82E0AB
:103180000E94441B9091A00281E0943009F080E0FD
:1031900060919C020E94CC1608958091A202893011
:1031A00089F148F4823009F4A0C0833009F45AC090
:1031B000813041F008958A3009F487C08B3009F4DA
:1031C0006CC008958091A102813A09F04AC08091B3
:1031D000E800877F8093E8008091A5029091A60285
:1031E000892B61F460E280E692E070E00E948F1A21
:1031F0008091E8008B778093E800089560E090E08C
:1032000080E0F3CF8091A102813259F58091A5022F
:103210009091A602029728F58091E800877F80931D
:10322000E8008091E80082FF18C09091F30080913F
:10323000F200029731F48091F100813011F0863074
:1032400021F48091F100809380028091E8008B77D7
:103250008093E8000E94781B04C08091A002811135
:10326000E0CF08958091A102813AD9F78091A5021B
:103270009091A602892BA9F78091E800877F80931F
:10328000E8008091E80080FFFCCF809116018093D8
:10329000F1008091E8008E77DBCF8091A10281322E
:1032A00001F78091A5029091A602892BD1F6809119
:1032B000E800877F8093E8000E94781B8091A3023A
:1032C000809316010E94890608958091A10281329F
:1032D00041F68091E800877F8093E8000E94781B88
:1032E0008091A4028093810208958091A102813A85
:1032F00009F0B7CF8091E800877F8093E800809144
:10330000E80080FFFCCF80918102C1CF84B7877F26
:1033100084BF0FB6F894A89580916000886180936F
:103320006000109260000FBE80E890E00FB6F89445
:1033300080936100909361000FBE0E94E116089592
:103340000E94C81B0E94251CE2EEF0E08081846090
:10335000808378940E94A71E08958AE091E00E94DD
:10336000901508958091A002853031F48091A002DB
:10337000853019F00E945C1708950E9431178091E2
:103380009E02882399F30E94EE16882379F30E9407
:103390002A1A0E948906EACF08950E94D01908953A
:1033A000FC01CB01DA012F2F332723303105D1F077
:1033B00070F42130310509F43EC02230310569F442
:1033C0008BE390E026EC32E02D933C93089521327C
:1033D0003105E9F02232310521F190E080E030E062
:1033E00020E0F2CFCF019927E13059F082309105EA
:1033F00059F0E2ECF2E0892B81F7849190E09F0193
:10340000E3CFECEAF2E0F9CFECE8F2E0F6CF892B7B
:10341000B9F06130710509F789E090E021EF32E001
:10342000D3CF892B91F061307105B9F686EB90E02E
:1034300023E133E0C9CF82E190E021E033E0C4CF63
:1034400089E090E028ED32E0BFCF80E490E029EC05
:1034500033E0BACF80E189BD82E189BD09B400FEC5
:10346000FDCF8091D8008F7D8093D8008091E000BF
:1034700082608093E0008091E00081FDFCCF0895A0
:10348000AF92BF92CF92DF92FF920F931F93CF9391
:10349000DF936C01EB018A010E94971BF82E8111CA
:1034A00023C00115110539F0F80180819181C81BF5
:1034B000D90BC80ED91EB12CA12C2097A9F0809150
:1034C000E80085FD22C08091E8008E778093E800B7
:1034D00001151105A1F0F801808191818A0D9B1DD4
:1034E0009183808385E0F82E8F2DDF91CF911F91FE
:1034F0000F91FF90DF90CF90BF90AF9008950E9402
:10350000971B8823D1F2F82EEFCFF60181916F013E
:103510008093F1002197FFEFAF1ABF0ACECFFC01D5
:10352000CB012091A7023091A8022617370790F00F
:10353000009729F42091E8002E772093E80040E0DE
:10354000009751F4411108C08091E80082FF31C01A
:1035500080E00895C901F3CF2091A0022223A9F1B0
:103560002530A9F12091E80023FD2DC02091E8002D
:1035700022FDEACF2091E80020FFE2CF3091F30056
:103580002091F200009719F02830310558F041E001
:103590002830310509F040E02091E8002E77209393
:1035A000E800CECF41914093F10001972F5F3F4F4C
:1035B000E9CF8091A002882341F0853041F08091CD
:1035C000E80083FFC1CF81E0089582E0089583E0A1
:1035D0000895FC01CB012091A7023091A802261783
:1035E000370790F0009729F42091E8002E77209378
:1035F000E80040E0009751F4411108C08091E800D4
:1036000082FF32C080E00895C901F3CF2091A0026B
:103610002223B1F12530B1F12091E80023FD2EC025
:103620002091E80022FDEACF2091E80020FFE2CFC0
:103630003091F3002091F200009719F02830310505
:1036400058F041E02830310509F040E02091E800D1
:103650002E772093E800CECF44914093F10031962D
:1036600001972F5F3F4FE8CF8091A002882341F060
:10367000853041F08091E80083FFC0CF81E008955C
:1036800082E0089583E00895982F973028F08F7096
:103690008093E90081E008959093E900242F762F2C
:1036A00050E0981731F07091EC002091ED005091AE
:1036B000F00021FD02C09F5FE8CF3091EB003E7F1C
:1036C0003093EB003091ED003D7F3093ED00309171
:1036D000EB0031603093EB007093EC002093ED0031
:1036E0005093F0002091EE0027FDE5CF80E0089593
:1036F0008091A10287FF13C08091E80082FF06C07D
:103700008091E8008B778093E80004C08091A0024C
:103710008111F2CF08958091A0028823D9F380917E
:10372000E80080FFF8CF8091E8008E77ECCF209101
:10373000E4003091E50095E6A9012091EC00822F8C
:10374000817020FF06C08091E80080FF06C080E005
:1037500008952091E80022FD1AC08091A0028823DC
:1037600089F0853089F08091EB0085FD0FC02091B4
:10377000E4003091E50042175307F9F29150E1F669
:1037800084E0089582E0089583E0089581E008953B
:103790000E94371C0E943F1CE0EEF0E080818160B7
:1037A0008083E8EDF0E080818F77808319BCA7EDFE
:1037B000B0E08C918E7F8C9380818F7E808310927D
:1037C0009F0208950F931F93CF93DF930E94371C9E
:1037D0000E943F1CC8EDD0E088818F778883888164
:1037E0008068888388818F7D888319BC1092A002AD
:1037F00010929C0210929E0210929D0200EE10E028
:10380000F80180818B7F808388818160888342E09A
:1038100060E080E00E94441BE1EEF0E080818E7F5A
:103820008083E2EEF0E08081816080838081886027
:103830008083F80180818E7F808388818061888386
:10384000DF91CF911F910F910895E8EDF0E0808115
:103850008F7E8083E7EDF0E080818160808384E06B
:1038600082BF81E080939F020E94E21B0895E8EDF1
:10387000F0E080818E7F80831092E20008951092A4
:10388000DA001092E10008951F920F920FB60F9286
:1038900011242F933F934F935F936F937F938F9355
:1038A0009F93AF93BF93EF93FF938091E10082FFCB
:1038B0000BC08091E20082FF07C08091E1008B7F06
:1038C0008093E1000E94A61E8091DA0080FF19C05B
:1038D0008091D80080FF15C08091DA008E7F8093A0
:1038E000DA008091D90080FF94C080E189BD82E137
:1038F00089BD09B400FEFDCF81E08093A0020E9443
:1039000090188091E10080FF19C08091E20080FF53
:1039100015C08091E2008E7F8093E2008091E200EA
:1039200080618093E2008091D80080628093D8000B
:1039300019BC85E08093A0020E94A4188091E10048
:1039400084FF29C08091E20084FF25C080E189BD09
:1039500082E189BD09B400FEFDCF8091D8008F7D42
:103960008093D8008091E1008F7E8093E100809168
:10397000E2008F7E8093E2008091E200816080937C
:10398000E20080919C02882309F449C084E080937E
:10399000A0020E94AD188091E10083FF29C08091B0
:1039A000E20083FF25C08091E100877F8093E100E2
:1039B00082E08093A00210929C028091E1008E7FB1
:1039C0008093E1008091E2008E7F8093E2008091FD
:1039D000E20080618093E20042E060E080E00E94CB
:1039E000441B8091F00088608093F0000E94A11831
:1039F000FF91EF91BF91AF919F918F917F916F91C7
:103A00005F914F913F912F910F900FBE0F901F909C
:103A1000189519BC1092A0020E949E1872CF809136
:103A2000E30087FD02C081E0B2CF83E0B0CF1F92F8
:103A30000F920FB60F921124FF920F931F932F93A3
:103A40003F934F935F936F937F938F939F93AF9326
:103A5000BF93CF93DF93EF93FF9309EE10E0F8014C
:103A60008081C091EC00C795CC27C7958F70FC2E44
:103A7000F82A1082C0EFD0E08881877F888378940D
:103A80000E94601DF8011082888188608883CF2D94
:103A9000CF70C083FF91EF91DF91CF91BF91AF9134
:103AA0009F918F917F916F915F914F913F912F9156
:103AB0001F910F91FF900F900FBE0F901F901895C0
:103AC000AAE2B0E0E6E6FDE10C94EA1E81EA92E0AB
:103AD000FC0101962091F100208322E0893A9207AF
:103AE000B9F70E94CD188091E80083FF1DC1809135
:103AF000A1029091A2029A3008F016C1E92FF0E0DD
:103B0000E654F04E0C94D51E803899F0823809F0B6
:103B10000BC18091A5028F70873008F005C180939A
:103B2000E9008091EB0085FB882780F91092E9007D
:103B300006C080919D0290919E02911182609091A9
:103B4000E800977F9093E8008093F1001092F100D5
:103B50008091E8008E77E4C0882309F4D2C08230D7
:103B600009F0E2C08091A3028111D5C08091A50225
:103B70008F702FEF280F263008F0D6C08093E90011
:103B80002091EB0020FFC7C0933031F48091EB000F
:103B900080628093EB00BFC09091EB0090619093A6
:103BA000EB0021E030E001C0220F8A95EAF7209374
:103BB000EA001092EA008091EB008860EACF811160
:103BC000B3C01091A3021F778091E3008078812B0E
:103BD0008093E3008091E800877F8093E8000E9453
:103BE000781B8091E80080FFFCCF8091E300806823
:103BF0008093E30082E0111183E08093A00294C0DF
:103C00008058823008F090C08091A3029091A40265
:103C10008C3D23E0920799F583E08A838AE28983C9
:103C20004FB7F894DE01139620E03EE051E2E32F17
:103C3000F0E050935700849120FF03C082958F706D
:103C40003F5F8F708A30C8F0895C90E08D939D93C0
:103C50002F5F243161F74FBF8091E800877F809309
:103C6000E8006AE270E0CE0101960E948F1A80910E
:103C7000E8008B778093E80057C0805DE6CF6091C5
:103C8000A5027091A602AE014F5F5F4F0E94CD1951
:103C9000BC01892B09F448C08091E800877F80939C
:103CA000E80089819A810E94E91AE1CF8038E1F524
:103CB0008091E800877F8093E80080919C02809348
:103CC000F10046CF811130C09091A302923060F58F
:103CD0008091E800877F8093E80090939C020E9487
:103CE000781B80919C02882311F084E005C08091AC
:103CF000E30087FDFACF81E08093A0020E94B8180C
:103D000013C08091A302813079F481E0933009F0EF
:103D100080E080939E021092E9008091E800877F06
:103D20008093E8000E94781B8091E80083FF0AC01E
:103D30008091E800877F8093E8008091EB008062AB
:103D40008093EB00AA96E3E00C94061F0895CF93AE
:103D50008091A002882399F08091E900C091EC0045
:103D6000C795CC27C7958F70C82B1092E90080911A
:103D7000E80083FD0E94601DCF70C093E900CF91E1
:103D8000089597FB072E16F4009407D077FD09D00D
:103D90000E94121F07FC05D03EF4909581959F4F1D
:103DA0000895709561957F4F0895EE0FFF1F059060
:103DB000F491E02D09942F923F924F925F926F926F
:103DC0007F928F929F92AF92BF92CF92DF92EF92AB
:103DD000FF920F931F93CF93DF93CDB7DEB7CA1B2C
:103DE000DB0B0FB6F894DEBF0FBECDBF09942A8857
:103DF000398848885F846E847D848C849B84AA84FF
:103E0000B984C884DF80EE80FD800C811B81AA818B
:103E1000B981CE0FD11D0FB6F894DEBF0FBECDBF56
:103E2000ED010895AA1BBB1B51E107C0AA1FBB1FD0
:103E3000A617B70710F0A61BB70B881F991F5A9536
:103E4000A9F780959095BC01CD010895FB01DC0197
:103E500004C08D910190801921F441505040C8F761
:103E6000881B990B0895FB01DC0102C001900D92A3
:103E700041505040D8F70895F999FECF92BD81BDC9
:103E8000F89A992780B50895A8E1B0E042E050E0A3
:103E90000C94701F262FF999FECF92BD81BDF89A20
:103EA000019700B4021639F01FBA20BD0FB6F8947E
:103EB000FA9AF99A0FBE08950396272F0E944B1F76
:103EC0000E944A1F252F0E944B1F242F0C944B1F2A
:103ED0000196272F0E944B1F0C944A1FDC01CB0137
:103EE000FC01F999FECF06C0F2BDE1BDF89A31960A
:103EF00000B40D9241505040B8F70895F894FFCFA8
:103F0000650465049604960426054205C504C504A7
:103F10004D05BF05CE05CE0598119E11A111A71123
:103F2000BC11BC11BC11BC11BC11BC11BC11BC1129
:103F3000AA11AF11B311B911CA11D011D4111614AD
:103F40001A141E142A142E14321436143C14441459
:103F50004C14501454146014641468146C147214C7
:103F600090147A14261458145C1440147614861491
:103F700099149D14841DAC1D941EAC1D941EDF1D50
:083F8000001E941E561E621E75
:103F88000A02280850011E0A1401F5171818F91713
:103F98008B188618F81701E200E900EA00B500B6A8
:103FA80000B700CD008301CC008A01920194012161
:103FB80002230224022502260227022A02B300B4A1
:103FC800006F007000E200E900EA00B500B600B733
:103FD80000CD008301CC008A0192019401210223C3
:103FE8000224022502260227022A02B300B4006F27
:103FF80000700097C63435F4F5F6F731333236934E
:04400800929190946D
:00000001FF
