:100000000C948B030C94C3030C94C3030C94C30390
:100010000C94C3030C94C3030C94C3030C94C30348
:100020000C94C3030C94C3030C94F8290C94B429C6
:100030000C94F52A0C94C3030C94C3030C94C303CF
:100040000C94C3030C94C3030C94C3030C94C30318
:100050000C94C3030C94D12A0C94C3030C94C303D3
:100060000C94C3030C94C3030C94C3030C94C303F8
:100070000C94C3030C94C3030C94C3030C94C303E8
:100080000C94C3030C94C3030C94C3030C94C303D8
:100090000C94C3030C94C3030C94C3030C94C303C8
:1000A0000C94C3030C94C3030C94C303050109020D
:1000B000A10185020901A1000509190129081500FE
:1000C0002501950875018102050109300931158165
:1000D000257F95027508810609381581257F9501D0
:1000E00075088106050C0A38021581257F95017572
:1000F000088106C0C005010980A101850319012AF4
:10010000B700150126B700950175108100C0050CD8
:100110000901A101850419012AA002150126A002E6
:10012000950175108100C005010906A1018506052C
:100130000719E029E71500250195087501810205D9
:1001400007190029EF1500250195F07501810205B9
:10015000081901290595057501910295017503910D
:1001600001C00660FF0961A1010962150026FF00B8
:100170009520750881020963150026FF00952075FA
:10018000089102C005010906A101050719E029E748
:1001900015002501950875018102950175088101F9
:1001A0000507190029FF150026FF0095067508812F
:1001B000000508190129059505750191029501753C
:1001C000039101C0FD377A585A000004E6D6B446C0
:1001D0000200210116000000742FE5A3E001DA00FF
:1001E000C05D003D888986D3DC0AE842C32492586A
:1001F00042588FD8E75CA0D2616E26E888019A67E2
:100200006C7887BC8D3709EA1EB48DA53C7985864C
:10021000633FDCC445A3F020FF20B3687235CC7780
:10022000FE57EDF8ACA06B3EA88E884D7F5FA6F41C
:1002300063EE44CF66762FE17FF93E1C17ABF10EDB
:10024000B4A2082F4718207CC0B453B1891F657F22
:10025000BCCB82ACD651B2BF2F40B3913FA90E1395
:100260001A0CCDA29E42C77A1744B7D38C23258B94
:10027000B9D8E66CC208B0B34B8742B7C2A974AA1A
:10028000CBB8F1CB84538DE9FFEC8F82ECF66C4058
:100290007EE139C8CF068E131962982310622A8E28
:1002A000D67F5A00B920A94FBAC0D9090001DC0194
:1002B000DB030000F8A1DA68B1C467FB02000000AC
:1002C0000004595A01000100C6036A0F4F0F0000D5
:1002D00002000200C2036A0F4F0F0000030001007A
:1002E000C7036A0F4F0F000004000200AC036A0F3F
:1002F0004F0F430705000100C8036A0F4F0F0000AE
:1003000006000200AE036A0F4F0F00000700020054
:10031000C4036A0F4F0F000008000100C9036A0FF1
:100320004F0F000009000200B0036A0F4F0F1E07B5
:100330000A000200B2036A0F4F0F1E070B000200F3
:10034000B4036A0F4F0F1E070C000200B6036A0FBA
:100350004F0F1E070D000200B8036A0F4F0F1E0754
:100360000E000200BA036A0F4F0F1E070F000200B3
:10037000BC036A0F4F0F1E0710000200BE036A0F76
:100380004F0F1E0711000200C0036A0F4F0F1E0718
:1003900012000200CA036A0F4F0F00001300020090
:1003A000CC036A0F4F0F000014000100CE036A0F48
:1003B0004F0F0000150000000000A406BA15000051
:1003C00035001E001F002000210022002300240011
:1003D0002500260027002A002B0014001A00080020
:1003E000150017001C0018000C00120013002F004D
:1003F000290004001600070009000A000B000D0088
:100400000E000F0033003400E1001D001B00060049
:1004100019000500110010003600370038001E7C5E
:10042000E4002352E300E20021522C00000022529B
:100430005000510052004F003A003B003C003D008C
:100440003E003F00400041004200430044004500A0
:100450000100010001000100010001000100010094
:1004600001004C00460030000100010001000100C5
:100470000100010001000100010001000100010074
:100480000100010001000100010001000100010064
:100490000100010031000100010001000100010024
:1004A00001000100000001004A004E004B004D0019
:1004B00001001E1401000100010001000100010003
:1004C00001002D002E004C00010001000100081465
:1004D000010001000100010001002F14301446004A
:1004E000010004140100010009140A14640031021F
:1004F0002F02331434140100010001001B140614F0
:10050000191405141114101436143714381401007A
:1005100001000100010001000100010000000100D4
:100520000100010001000100007C01000100010048
:1005300001000100010001000100010001000100B3
:1005400001000100010001000100010001000100A3
:100550000100010001000100010001000100010093
:100560000100010001000100010001000100010083
:100570000100010001000100010001000100BD00B7
:10058000BE000100010001000100010001000100A6
:100590000100AE0000000100AC00AA00A900AB0001
:1005A00009025B00030100A0FA0904000001030135
:1005B0000100092111010001224000070581030803
:1005C00000010904010002030000000921110100DB
:1005D00001222200070582032000010705030320F2
:1005E00000010904020001030000000921110100BB
:1005F0000122B60007058403200001120100020059
:10060000000008EDFE00000001010203011C03765A
:1006100000690061006C003A006600360034006337
:1006200000320062003300630000001E0373006D9F
:10063000006F006C0062006F006100740072006562
:10064000006D006900780064000000140346007229
:100650000061006E0074006900610165006B0000BC
:100660000004030904000000000000000000000076
:10067000000000000000000000000000000000007A
:100680000000000000000000007E0F00D4FFFFFF0C
:10069000C70000007800000000000000002A2B289E
:1006A000000000000000000000000000000000004A
:1006B00029000000002C1E34202122243426272566
:1006C0002E362D3738271E1F20212223242526339E
:1006D00033362E37381F0405060708090A0B0C0DA0
:1006E0000E0F101112131415161718191A1B1C1DB2
:1006F0002F3130232D350405060708090A0B0C0D90
:100700000E0F101112131415161718191A1B1C1D91
:100710002F3130354C0011241FBECFEFDAE0DEBFA1
:10072000CDBF04B603FE18C0809125059091260523
:10073000A0912705B09128058730904BA740B04B7A
:1007400059F4109225051092260510922705109253
:100750002805E0E0F8E3099511E0A0E0B1E0EEE063
:10076000F9E602C005900D92A837B107D9F725E048
:10077000A8E7B1E001C01D92A532B207E1F70E94DF
:100780001C2B0C9431340C940000482F209123052D
:100790009091DA0459E0291302C080E0089530E016
:1007A000529FF001539FF00D1124E552FB4F8181C0
:1007B000681306C08081481303C085818111EECF84
:1007C0002F5F3F4F2770E7CFE8EDF0E080818E7F0D
:1007D00080831092E2001092DA001092E100A0EE05
:1007E000B0E08C9181608C9380818F77808319BC7D
:1007F000A7EDB0E08C918E7F8C9380818F7E80837B
:100800001092AB0408952091E4003091E50095E644
:10081000A9012091EC00822F817020FF06C08091F9
:10082000E80080FF06C080E008952091E80022FDE6
:100830001AC08091D004882389F0853089F0809196
:10084000EB0085FD0FC02091E4003091E5004217D8
:100850005307F9F29150E1F684E0089582E008959B
:1008600083E0089581E008958091D20487FF13C04A
:100870008091E80082FF06C08091E8008B7780932A
:10088000E80004C08091D0048111F2CF08958091D6
:10089000D0048823D9F38091E80080FFF8CF8091BD
:1008A000E8008E77ECCF982F9093E900242F762FD5
:1008B00050E0891731F07091EC002091ED005091DB
:1008C000F00021FD07C09F5F973071F78093E9002A
:1008D00081E008953091EB003E7F3093EB00309142
:1008E000ED003D7F3093ED003091EB0031603093AF
:1008F000EB007093EC002093ED005093F0002091FA
:10090000EE0027FDE0CF80E00895B0E0A0E0EBE846
:10091000F4E00C947433C8EDD0E088818F7E888336
:10092000E7EDF0E080818160808384E082BF81E038
:100930008093AB0488818E7F888302EE10E0F801FB
:1009400010821092DA0081EEC82ED12CF6011082AE
:1009500088818F77888388818068888388818F7D6C
:10096000888319BC1092D0041092D1041092CF0445
:100970001092CE0490EEE92EF12CF70180818B7F4E
:10098000808388818160888342E060E080E00E940B
:100990005304F60180818E7F8083F801808181601D
:1009A0008083808188608083F70180818E7F80834F
:1009B000888180618883CDB7DEB7E8E00C949033FE
:1009C000FC018091D8049091D90486179707A0F074
:1009D0006115710529F49091E8009E779093E800E5
:1009E00090E06115710551F4911108C08091E80003
:1009F00082FF34C080E00895BC01F2CF8091D00422
:100A00008823C1F18530C1F18091E80083FD30C0B9
:100A10008091E80082FDEACF8091E80080FFE1CF7D
:100A20008091F3002091F200382F6115710519F0C3
:100A30002830310558F091E02830310509F090E078
:100A40002091E8002E772093E800CBCF819180930E
:100A5000F100615071092F5F3F4FE7CF8091D004C3
:100A6000882341F0853041F08091E80083FFBECFBC
:100A700081E0089582E0089583E008958091AD04B7
:100A800008959C014FB7F8948091A5049091A60415
:100A9000A091A704B091A8044FBF821B930B0895A7
:100AA0002FB7F8946091A5047091A6048091A704D3
:100AB0009091A8042FBF08952FB7F8948091A504B2
:100AC0009091A604A091A704B091A8042FBF089507
:100AD000209115012223C1F02091A90427FF14C001
:100AE000E62FE695E695E695EE31F8F4E80FF92F56
:100AF000F11D677021E030E001C0220F6A95EAF72E
:100B00008281822B82830895FC0132962FEF30E0A0
:100B10004191641751F02F3F19F4411101C0232F67
:100B20003F5F3630A9F72F3F09F40895820F911DDA
:100B300027FD9A95FC0162830895A3E0B0E0E3EA03
:100B4000F5E00C947A332091A2043091A304281785
:100B50003907A1F09093A3048093A204E091A0042C
:100B6000F091A104309751F024E029839B838A837C
:100B70000680F781E02DCE01019609952396E2E0EB
:100B80000C949633A3E0B0E0E8ECF5E00C947A33F3
:100B900020919E0430919F0428173907A1F090936B
:100BA0009F0480939E04E091A004F091A1043097EB
:100BB00051F023E029839B838A830680F781E02D0F
:100BC000CE01019609952396E2E00C949633E091CC
:100BD000A004F091A104309729F00190F081E02D5C
:100BE0000995089580E00895CF93DF93EC0140913B
:100BF0008E0450918F0460919004709191042FB7EE
:100C0000F8948091A5049091A604A091A704B091B6
:100C1000A8042FBF841B950BA60BB70B843F9140F4
:100C2000A105B10518F580918E0490918F04A091D3
:100C30009004B091910480938A0490938B04A093C4
:100C40008C04B0938D0484EF91E0A0E0B0E0809339
:100C5000860490938704A0938804B0938904D0936A
:100C60009604C0939504DF91CF9108950E9450059A
:100C700060938A0470938B0480938C0490938D040A
:100C800082E390E0A0E0B0E0E2CFFC018481862323
:100C900051F492819923B9F06923808583FF05C0BF
:100CA00081E061110FC080E00895892F8F709295C7
:100CB0009F70982B862F8F7062956F70682B81E0E4
:100CC0009613F1CF089581E0FDCFDC01609180049F
:100CD00080918104962F891301C00895292F30E057
:100CE000F901EE0FFF1FE858FB4F408151814A1771
:100CF0005B07A1F487E08A9FA0018B9F500D112410
:100D000049525C4F81E0FA0184839613E6CF2F5F4E
:100D10003F4F237033272093800408952F5F3F4F68
:100D2000922F9370D8CF1092D5031092D403E7ED91
:100D3000F3E08581811102C014821682379684E027
:100D4000EF30F807B1F70895B0E0A0E0EAEAF6E086
:100D50000C9472338FEF9FEF4430510508F469C053
:100D60004091A90441FB882780F990E0880F991FE2
:100D700042FB002700F910E0000F111F000F111FA8
:100D8000802B912B40FBCC24C0F8D12C8C299D29A1
:100D900043FB222720F9C22FE0E0DE2F53E0CC0FE7
:100DA000DD1F5A95E1F78C2B9D2B44FBAA27A0F958
:100DB000B0E0E4E0AA0FBB1FEA95E1F78A2B9B2B7A
:100DC00045FBEE27E0F9F0E0A5E0EE0FFF1FAA9546
:100DD000E1F78E2B9F2B46FB222720F930E0B6E06F
:100DE000220F331FBA95E1F7822B932B47FB222763
:100DF00020F930E03695322F222737952795822B20
:100E0000932B2091AA04322F3170F32EE82EF92A69
:100E100026952170B22EBB0CA82EBF28C501BB0C95
:100E2000AA0BBB0BFB0180839183A283B38390E069
:100E300080E0CDB7DEB7EAE00C948E33ECEAF3E065
:100E4000848195812AE030E0B9010E9435336093B6
:100E50001001868180930F01828580930E01848525
:100E600080930D0186859785B9010E943533609383
:100E70000C01808980930B01828980930A01848907
:100E80008093090108958091AC039091AD039093F4
:100E90001201809311010895E0E4F2E090E080E017
:100EA00065EF78E24CE159E22BE638E2778366831E
:100EB00051874087338722879587848701963E969E
:100EC0008830910599F7089581152CE7920741F430
:100ED0002091840430918504232B11F490E080E06C
:100EE00008950E945C059C0190912802809129023E
:100EF000982B21F0309325022093240290912A020E
:100F000080912B02982B21F0309323022093220210
:100F1000E091A004F091A104309749F082E0809321
:100F200026020480F581E02D86E292E0099508957D
:100F30008091210280FF0CC060910A0170E07595DC
:100F40006795759567956115710549F1862F089527
:100F500081FF06C060910A0170E075956795F3CF37
:100F600060910A0182FD0BC0909120029923A1F0AB
:100F70006091090180910A01961738F0682F70E09E
:100F80006038710500F38FE70895899FC00111242F
:100F900070E00E944933F4CF61E070E0D7CF81E088
:100FA0000895809121026091B4037091B50380FF90
:100FB00016C020910E01269FC001279F900D11247D
:100FC000BC0176956795769567956038710508F050
:100FD00043C06115710509F441C0862F089581FF52
:100FE0000BC020910E01269FC001279F900D112458
:100FF000BC0176956795E9CF82FF09C080910E010B
:101000009B01829FB001839F700D1124DECF209140
:101010001F022223D1F290910D0180910E01482FE1
:1010200050E0291748F0CB01849FB001859F700DD7
:10103000949F700D1124C9CF289F90011124269FE1
:10104000A001279F500D369F500D1124692F70E08D
:10105000CA010E943533B9CF8FE7089581E0089522
:1010600080E00895F894E82FE295EF70F0E031A168
:10107000282F2F7081E090E001C0880F2A95EAF7B1
:10108000982F9095932391A392A1892B82A3789472
:1010900008959091A90492FF06C0282F2871283046
:1010A000F9F4877F846093FF06C0282F28712831C8
:1010B000F1F4877E84612091AA0420FF06C0382FB6
:1010C00038713830D9F4877F816021FF06C0282F1E
:1010D00028712831D1F4877E816194FD877E08953F
:1010E000282F24712430F9F68B7F8860DCCF282FDD
:1010F0002471243101F78B7E8861DDCF382F317167
:10110000313019F78E7F8860E0CF282F217121318F
:1011100021F78E7E8861E1CF82389105B9F1B0F474
:101120008133910509F47DC048F48932910509F4B1
:101130006DC08A32910509F47BC00895853391050D
:1011400009F45FC08933910509F10895833E910543
:10115000D9F138F4803E910529F1823E910579F16B
:101160000895863E9105D9F1873E910509F43EC068
:10117000843E910541F52091AA0421FF24C080916D
:10118000A90484FD19C087EE90E008952091A90478
:10119000237009F05AC02091AA0423FF14C089E2E9
:1011A00090E008952091A90420FD38C03091AA0450
:1011B00030FF09C024FF43C090E080E008952091F3
:1011C000A90422FDF7CF08952091A90422FD3AC079
:1011D0003091AA0430FD39C024FFF5CFEDCF209126
:1011E000A90423FFF0CF24FDE7CFCDCF2091A904A0
:1011F00023FD2EC03091AA0431FFEECF84EE90E0A3
:1012000008952091A90425FFDECFC9CF2091A9041C
:1012100025FD21C02091AA0423FFD5CF89E390E0CA
:10122000D2CF2091A90426FFCECF8AE290E0089584
:101230002091A90426FFC7CF81E390E0089583EEB3
:1012400090E0089582EE90E0089580EE90E0089599
:1012500086EE90E0089585E390E008951F93CF9384
:10126000DF930E948C08EC01C11580E5D807F0F5EA
:10127000C11580E4D80708F09CC0C03ED10520F518
:10128000CD3CD10508F082C0C83AD10578F4C53A02
:10129000D10508F073C0C130D10519F1209709F1CB
:1012A000C430D105F0F4D0E0C0E01BC0C33CD10590
:1012B000D0F7C85AD0E0CC0FDD1FCF5DDE4F0990CC
:1012C000D881C02DD4640DC0C11580E2D80708F0C4
:1012D000D1C0C11581E0D80708F05AC0C83ED10579
:1012E00010F7CE01DF91CF911F910895C03682E5AE
:1012F000D80718F5C03482E5D80708F06BC0C032B3
:1013000082E5D80708F05FC0C11582E5D80708F468
:1013100097C02C2F2695269580E2289F90011124B6
:101320008C2F8370C1E0D0E002C0CC0FDD1F8A9506
:10133000E2F7C22BD32BDD68D4CFC03A82E5D807C1
:1013400060F4C03882E5D80708F459C0CF71D0E006
:10135000DC2FCC27C46FD06AC4CFC03C82E5D8074D
:1013600008F462C0C03E82E5D80708F09CCFDC2FAD
:10137000CC27CC27DF71C06FD06AB3CFC55AD0E07D
:10138000C25EDE4FC881D0E0D064ABCFD065A9CFBC
:101390008D2F0E944908182FCE0199270E948C0892
:1013A000C12FD0E0DC2FCC27CC27DF71C82BD92B65
:1013B00098CFCE0199270E948C08CC27DF70C82BCC
:1013C000D92BD06A8ECFCF71D0E0DC2FCC27C16F64
:1013D000D06A87CF2C2F26952695277080E2289FEC
:1013E000900111248C2F8370C1E0D0E002C0CC0F9B
:1013F000DD1F8A95E2F7C22BD32BDC6872CF2C2F2E
:1014000026952695277080E2289F900111248C2F25
:101410008370C1E0D0E002C0CC0FDD1F8A95E2F7F7
:10142000C22BD32BDA685DCF8C2F8F710E944908B5
:10143000C82FD0E0DC2FCC27CC27DF71D06251CF72
:101440008C2F8F710E94490855E0D695C7955A9503
:10145000E1F7CF70D0E0DC2FCC27282F30E084FFDD
:1014600005C044E0220F331F4A95E1F7C22BD32B6E
:10147000D06937CF8D2F8F710E944908182FCE0168
:1014800099270E948C08C12FD0E0DC2FCC27CC27D5
:10149000DF71C82BD92BD2CF8091E601882331F0A0
:1014A0001092E6011092E5011092E4010895CF93A5
:1014B000C82F8091AA0482FF0CC08091E6018C178E
:1014C00041F00E945C059093E5018093E401C09394
:1014D000E601CF9108959091E601292F282361F02C
:1014E000809589238093E601882339F00E945C056A
:1014F0009093E5018093E401089590E080E0F8CFB7
:1015000080959091240598239093240508958095C3
:1015100090918B03982390938B03089590918B0364
:10152000892B80938B0308951092C3011092C201FE
:101530001092C10108958091AE039091AF03892B61
:1015400089F00E945C052091E4013091E501AC0135
:10155000421B530B81E02091AE033091AF03421741
:10156000530708F480E0817008959091C001292FFD
:10157000282321F0809589238093C00108959091BC
:1015800015019923D1F09091A90497FF16C0E82F77
:10159000E695E695E695EE31E0F4F0E0E658FE4F8C
:1015A000282F277081E090E001C0880F2A95EAF784
:1015B00080959281892382830895ECE7F1E09191EF
:1015C000891303C0DF0111971C9291E0E238F907FB
:1015D000B1F70895809123059091DA04981301C022
:1015E00008958F5F8770FACF292F953078F58C306A
:1015F00068F590E03CE0239F800D911D1124682F39
:10160000677023E0969587952A95E1F7FC01EE0F28
:10161000FF1FE80FF91FE156FE4F50E040E080E069
:10162000219130E0062E02C0369527950A94E2F704
:1016300021703327042E01C0220F0A94EAF7822B6F
:101640004F5F5F4F4330510559F7089580E008958B
:10165000292F953098F58C3088F590E03CE0239F59
:10166000800D911D1124282F277041E001C0440FE7
:101670002A95EAF723E0969587952A95E1F7FC01EC
:10168000EE0FFF1FE80FF91FE156FE4F30E020E09C
:1016900070E05191DF011197CB01022E02C09695A7
:1016A00087950A94E2F781708195852784238527A1
:1016B0008C932F5F3F4F2330310559F70895809366
:1016C000F70108959091F70121E030E0F90101C0A0
:1016D000EE0F8A95EAF7D90102C0AA0FBB1F6A95DF
:1016E000E2F7EA2B01C0220F4A95EAF7892F8E23F1
:1016F000E81305C0292B822F0E945F0B08952095C7
:101700002923F9CF21E030E001C0220F8A95EAF7C2
:1017100020958091F70182230E945F0B089590919C
:10172000C301809589238093C301282F277069F412
:10173000891759F09091AA0492FF07C08695869563
:1017400086950E94820B0E94940A089521E030E061
:1017500001C0220F8A95EAF78091F701822B0E943F
:101760005F0B08959091AA0492FF10C098E0899FA2
:1017700090011124622B6093C3010E94A60B0E946A
:101780005C059093C2018093C10108950E94A60B4D
:1017900008958093F601089592959F70963091F088
:1017A00058F4925F9F70923058F4803F19F030F4F3
:1017B000883E30F481E008959A5FF4CF843FD1F3FE
:1017C00080E00895883EB0F3813FD1F7F3CF6623E0
:1017D00009F45DC08D3C41F40E94D107819580934E
:1017E00029020E94710708958E3C19F40E94D107C6
:1017F000F6CF8F3C31F40E94D10781958093280267
:10180000F0CF803D19F40E94D107F8CF893D29F42B
:101810000E94980780932A02E4CF8A3D21F40E9417
:1018200098078195F7CF8B3D31F40E9498078195F9
:1018300080932B02D6CF8C3D19F40E949807F8CFE5
:101840009FE2980F983070F4815D990B21E030E0B1
:1018500001C0220F8A95EAF780912702822B80939C
:101860002702BFCF8D3D31F48091210281608093AA
:101870002102B7CF8E3D21F4809121028260F7CF03
:101880008F3D09F0AECF809121028460F0CF40916E
:1018900028028D3C59F48091290287FF0DC01092D7
:1018A000290241110BC010921F0208C08E3C81F426
:1018B0008091290218169CF3442381F080912A021A
:1018C00090912B02892B09F08CCF1092200289CFA6
:1018D0008F3C49F447FFF0CF1092280280912902F3
:1018E0008111ECCFE0CF803D19F41416ACF3E4CFB6
:1018F00090912A02893D29F41916F4F610922A02D1
:10190000DBCF8A3D19F497FFD7CFF8CF90912B0208
:101910008B3D29F497FFD0CF10922B02CDCF8C3D79
:1019200019F41916CCF3C8CF9FE2980F983090F4B1
:10193000815D990B21E030E0B90102C0660F771F8D
:101940008A95E2F7CB0180959091270289238093B5
:101950002702B2CF8D3D31F4809121028E7F80939A
:101960002102AACF8E3D21F4809121028D7FF7CFF5
:101970008F3D09F0A1CF809121028B7FF0CF9C0198
:101980003A9521153F4150F5FC01EE27F170BC015D
:1019900066277270AC01442754709C01222738706E
:1019A00094FF0EC080E1EF2B09F480E0672B09F073
:1019B0008062452B09F08064232B89F080680895AC
:1019C00081E0EF2B09F480E0672B09F08260452B62
:1019D00009F08460232B19F08860089580E0089551
:1019E0000F931F93CF93DF938B01EA019091D00463
:1019F000943061F58093E9008FEF9091E800815079
:101A000095FD06C095ED9A95F1F700008111F5CF8F
:101A10008091E80085FF1AC00E940304811111C063
:101A20008091E80085FD06C08091E8008E77809364
:101A3000E800F2CFF80181918F018093F1002197A6
:101A400079F78091E8008E778093E800DF91CF915D
:101A50001F910F91089543E050E0BC0184E00E9483
:101A6000F00C089546E050E0BC0184E00E94F00CC8
:101A70000895CF93DF93EC0180911501811111C07E
:101A800048E050E0BE0181E00E94F00C80E2FE01DF
:101A9000AEEAB4E001900D928A95E1F7DF91CF9123
:101AA00008958091A90487FF05C040E284E050E0DA
:101AB000BE01EACF48E081E0FACF81E08093E00008
:101AC00080E28093D8001092C9008FE19EE40197D4
:101AD000F1F700C0000087E090EBDC018093250562
:101AE00090932605A0932705B093280588E19CE0F4
:101AF0000FB6F894A895809360000FBE9093600095
:101B0000FFCF019708F40895EFE9FFE03197F1F76F
:101B100000C00000F6CFCF93DF93CDE1D3E060E0CB
:101B2000CE010E94F5332196C11584E0D807B9F79C
:101B3000DF91CF9108951F93CF93DF93122F8430BD
:101B4000E0F46530D0F44C30C0F4C42FD0E0CC0FBA
:101B5000DD1F98E1699FC00DD11D112498E7899F71
:101B6000C00DD11D1124632FCE0189960E94F5333B
:101B7000612FCE018A960E94F533DF91CF911F919C
:101B80000895CF93C82F6FEF811169EF85E290E040
:101B90000E94F5336FEFC11162ED86E290E00E9482
:101BA000F5336FEFC1116FE187E290E00E94F533EA
:101BB000CF9108959B01883070F49AE0899FB0011D
:101BC0001124635D7D4F4AE050E0C9010E94C73394
:101BD00090E080E008958FEF9FEF0895AAE0B0E0D5
:101BE000E4EFFDE00C947A339C0137552F3F31052B
:101BF00009F068F4BE016F5F7F4F0E94DA0D892BF8
:101C000031F489859A852A96E2E00C949633809186
:101C1000C4039091C503F7CF0F931F93CF93DF9326
:101C2000843030F5653020F54C3010F5C42FD0E00D
:101C3000CC0FDD1F28E1629FC00DD11D112438E7B4
:101C4000839FC00DD11D1124CE0189960E94D733E8
:101C5000082F10E0102F0027CE018A960E94D7335C
:101C60009801282BC901DF91CF911F910F91089501
:101C700090E080E0F8CF462F20911D0230911E02A7
:101C8000232B99F4703F39F4603F79F480912C0252
:101C900090912D020895753040F46C3030F484300A
:101CA00020F4672F0E940C0E089590E080E00895C4
:101CB000CF92DF92FF920F931F93CF93DF936C012C
:101CC0000091F7018091F601082BC3E0D0E010E00D
:101CD000FC2EC8010C2E02C0959587950A94E2F758
:101CE00080FD0CC02197A0F7F12C8F2DDF91CF91B3
:101CF0001F910F91FF90DF90CF900895B6018C2F28
:101D00000E943B0E0E942E09019761F3EECFCF9304
:101D1000DF93EC010E94580EBE010E943B0E0E9410
:101D20002E09DF91CF910895FC018481882371F001
:101D300087819085009729F00E942E090E94CC0B84
:101D40000895808191810E94870EF8CF80E00895E8
:101D5000A6E0B0E0EEEAFEE00C94793349835A83C2
:101D600049815A819923A1F0222391F0CA010E944E
:101D7000580E182F682F89819A810E94280B69813B
:101D80007A81812F0E943B0E2696E3E00C949533D6
:101D9000CA010E94F40A182FF2CFFC01262F878176
:101DA0009085009741F440815181628173818481E3
:101DB00095810E94A80E08950F931F93CF93DF93F0
:101DC0000CEA13E0C9E0D2E0CE010E94D733F8015B
:101DD00061918F01681719F0CE010E94F5332196A9
:101DE000CD32F2E0DF0781F7DF91CF911F910F91A4
:101DF00008950F931F93CF93DF930CEA13E0C9E08C
:101E0000D2E0CE010E94D733F80181938F01219651
:101E1000CD32F2E0DF07A9F7CEECD2E0FE018591EA
:101E20009491009711F0FC0109952C96F3E0CA3CBF
:101E3000DF07A1F7DF91CF911F910F91089585E200
:101E400090E00E94D733893F89F486E290E00E94B7
:101E5000D733823D59F487E290E00E94D73391E076
:101E60008F3109F090E0892F8170089580E0FCCFD8
:101E70009091AA0492FB222720F9281779F080FB81
:101E800092F99093AA046091A9047091AA0484E045
:101E900090E00E94133482E00E948F0B0895DA01D3
:101EA0009C012E5F3F4FF90145915491F901259115
:101EB0003491A217B30758F0FC01349685919491A0
:101EC0000E94B7330E94DC0E90E080E008958FEF0F
:101ED0009FEF0895DB01FC01329625913491421762
:101EE000530758F0FC01349665917491A901CD0116
:101EF0000E94B73390E080E008958FEF9FEF089540
:101F0000AAE0B0E0E6E8FFE00C94703303E113E0F0
:101F100081E0C82E83E0D82E9DECE92E92E0F92EC8
:101F200027E0922E30E0A32E33E0B32E8824839452
:101F3000D6010D931D936D014AE050E0B701CE012B
:101F400001960E94C733F8013896DF01892D1D9252
:101F50008A95E9F789819A81D80111969C938E938D
:101F60008F8112968C9312978D8113968C93139771
:101F7000888514968C931497898515968C9315975C
:101F80008B819C8117969C938E93169718961C9222
:101F900018978A8587FF3CC01E961C921E921D973B
:101FA00080FF03C0D80118968C9281FF04C0F8010D
:101FB00090859260908782FF07C0D80118969C9107
:101FC0001897946018969C9383FF04C0F80190853D
:101FD0009860908784FF07C0D80118969C91189745
:101FE000906118969C9385FF04C0F80180858062FB
:101FF0008087015F1F4FFAE0EF0EF11C8DE1E816BC
:1020000083E0F80609F094CF2A96ECE00C948C3328
:10201000F801B686A586C4CFAAE0B0E0E2E1F0E11F
:102020000C947433E0EBF2E080E5DF011D928A95B9
:10203000E9F7E7EDF3E088E3DF011D928A95E9F720
:1020400080EBC82E82E0D82E7F010DE712E0F70169
:10205000D182C0824AE050E0B801CE0101960E94D0
:10206000C73388E0FE013196D60101900D928A9522
:10207000E1F789859A85D70113969C938E931297E1
:10208000BAE0CB0ED11CE7E0EE0EF11C065F1F4F4D
:102090000D3CF2E01F07D9F62A96E8E00C94903345
:1020A000AAE0B0E0E6E5F0E10C9470338E010F5F3A
:1020B0001F4F8AE0F80111928A95E9F797E5E92E1A
:1020C00091E0F92E6801AA24A394B12CF701819123
:1020D0007F018F3F09F446C0F894E82FE295EF7036
:1020E000F0E021A18F70A50102C0440F551F8A9511
:1020F000E2F7CA01922F982B91A392A18095892390
:1021000082A3789400C0ECE5F1E021E030E0912C6E
:10211000812C41914F3F09F467C0A42FA295AF7065
:10212000B0E090968C9190E04F7002C095958795A5
:102130004A95E2F780FD58C0C901882A992A220FE2
:10214000331F51E0E836F50721F7F7013197808119
:102150008F3F11F00E94320880EA8A95F1F7F6016C
:1021600091828082F2E0CF0ED11C4CE5E41641E072
:10217000F40609F0ABCF4AE050E0B8018CEE91E0F4
:102180000E94AA33892B99F18AE0F801ACEEB1E004
:1021900001900D928A95E1F781E08093EB010E9416
:1021A0005C059093EA018093E9018091E9019091A7
:1021B000EA010E9441050597F0F04AE050E06CEE1C
:1021C00071E083E192E00E94AA33892BC9F08AE092
:1021D000ECEEF1E0A3E1B2E001900D928A95E1F717
:1021E00081E01092EB0108C090E080E0A6CF8091E2
:1021F000EB018111DACF80E02A96ECE00C948C336D
:1022000080E0EFCFCF9380918B0390912405892BB1
:1022100080937A018091E601882329F18091AE03B1
:102220009091AF03892B29F00E949B0A81110E9493
:102230004C0A80917A019091E601892B80937A0172
:1022400080911501882309F447C08091A90487FF74
:1022500043C08EE1ECE7F1E090E0815008F03EC031
:1022600091110E944C0AC0919204C09580917A010C
:10227000C82380919304C82BC0937A0140E250E0B8
:1022800064EC71E08AE791E00E94AA33892B11F196
:1022900080E2EAE7F1E0A4ECB1E001900D928A95CA
:1022A000E1F7E091A004F091A104309799F08091BA
:1022B0001501882349F08091A90487FF05C0C093C8
:1022C0007B0186E080937A010280F381E02D8AE72A
:1022D00091E00995CF91089586E0BCCF219122230A
:1022E00009F4BBCF9F5FB9CFCF93DF93EC01EA85B1
:1022F000FB85309719F06C857D8509958B810E944F
:10230000800A8C810E94870A0E94021186E0FE01E9
:1023100011928A95E9F7DF91CF910895CF93DF93DA
:10232000EC018D8181FD15C082608D838091240533
:102330009B81892B809324058C810E948E0A0E94A8
:102340000211E885F985309721F06C857D85CE01F5
:10235000099510929D0410929C048D8180FD03C00C
:10236000CE010E947411DF91CF91089580911301E5
:10237000877F8093130182E00E94800A809113017D
:1023800084FF06C08F7E8093130182E00E948E0A34
:102390008091130185FF06C08F7D8093130180E239
:1023A0000E948E0A0E940211089510928B03809160
:1023B0001501ECE7F1E0882329F18091A90487FF5A
:1023C00021C08EE1DF011D928A95E9F790E080E05F
:1023D0000E94C20590E080E00E949D0510922405B5
:1023E0000E94021186E0E6E2F2E0DF011D928A958A
:1023F000E9F710921F0210922002109221020E940F
:102400007107089586E0DECFAAE2B0E0EAE0F2E1EB
:102410000C94793382ED94E02091F100DC012D934E
:10242000CD01B4E08A3D9B07B9F78091D304833096
:1024300009F472C0B8F4813009F449C0823009F45B
:10244000B3C08091E80083FF96C28091D20490913E
:10245000D3049A3008F08FC2E92FF0E0ED5CFB4C1A
:102460000C945D338A3009F48EC08B3009F471C04E
:10247000893039F78091D204813219F78091D604DE
:102480009091D704009711F00297D9F68091E80057
:10249000877F8093E8008091E80082FF38C09091A8
:1024A000F3008091F200029731F48091F1008130C5
:1024B00011F0863021F48091F1008093AD04809179
:1024C000E8008B778093E8000E943404BACF8091B3
:1024D000D204813A09F0B5CF8091E800877F8093DC
:1024E000E8008091D6049091D704892B61F460E2D2
:1024F0008EEA94E070E00E94E0048091E8008B771F
:102500008093E8009ECF60E090E080E0F3CF809180
:10251000D0048111C0CF95CF8091D204813A09F0C7
:1025200090CF8091D6049091D704892B09F089CF60
:102530008091E800877F8093E8008091E80080FF29
:10254000FCCF809115018093F1008091E8008E7797
:10255000B9CF8091D204813209F073CF8091D60433
:102560009091D704892B09F06CCF8091E800877F88
:102570008093E8000E9434048091D4048093150174
:102580000E94D5115ECF8091D204813209F059CFDB
:102590008091E800877F8093E8000E943404809156
:1025A000D5048093AC044DCF8091D204813A09F0D8
:1025B00048CF8091E800877F8093E8008091E80011
:1025C00080FFFCCF8091AC04BECF803899F0823878
:1025D00009F0D1C18091D6048F70873008F0CBC14B
:1025E0008093E9008091EB0085FB882780F91092A9
:1025F000E90006C08091CE049091CF0491118260D1
:102600009091E800977F9093E8008093F1001092FA
:10261000F1008091E8008E77AAC1882309F498C15F
:10262000823009F0A8C18091D40481119BC18091AE
:10263000D6048F702FEF280F263008F09CC18093AE
:10264000E9002091EB0020FF8DC1933031F480919F
:10265000EB0080628093EB0085C19091EB0090616C
:102660009093EB0021E030E001C0220F8A95EAF759
:102670002093EA001092EA008091EB008860EACF94
:10268000811179C11091D4041F778091E300807883
:10269000812B8093E3008091E800877F8093E8009E
:1026A0000E9434048091E80080FFFCCF8091E30019
:1026B00080688093E30082E0111183E08093D0046E
:1026C0005AC18058823008F056C12091D40430910C
:1026D000D5042C3DE3E03E07A1F583E08A838AE23E
:1026E00089834FB7F894DE01139620E03EE051E273
:1026F000E32FF0E050935700E49120FF03C0E295F0
:10270000EF703F5FEF708E2F90E0EA30C0F0C79619
:102710008D939D932F5F243159F74FBF8091E8002F
:10272000877F8093E8006AE270E0CE0101960E9404
:10273000E0048091E8008B778093E8001CC1C0968C
:10274000E7CF8091D6049091D704432F552743308B
:10275000510509F44AC078F54130510509F485C0A6
:102760008BE590E0E0EAF5E04230510509F003C165
:102770002091E800277F2093E8002091D804309131
:10278000D9048217930708F49C0140E02115310514
:1027900009F070C041116EC08091E80082FDC9CF80
:1027A0008091D004882329F2853019F28091E800C5
:1027B00083FFF2CFBECF4132510509F447C0423208
:1027C000510509F0D8C08330910508F0D4C0FC0150
:1027D000EE0FFF1FE559FE4F0190F081E02D885963
:1027E0009E4FDC018C9190E01DC0332721303105D4
:1027F000E9F02115310579F022303105F9F0233067
:10280000310509F0B8C0EDE0F6E0E4918E2F90E0DC
:10281000EDE0F6E007C0E1E6F6E0E4918E2F90E00F
:10282000E1E6F6E0009709F4A6C0A2CFEBE4F6E0FB
:10283000E4918E2F90E0EBE4F6E0F4CFEBE2F6E0EB
:10284000E4918E2F90E0EBE2F6E0ECCF833091053F
:1028500008F091C0880F991FFC01EF58FE4F0190BE
:10286000F081E02D89E090E083CF82E190E0EBEF12
:10287000F5E07ECF8091D004882309F45ACF8530CB
:1028800009F457CF8091E80083FD53CF8091E80091
:1028900082FD82CF8091E80080FF78CF9091F30095
:1028A0008091F2002115310519F08830910550F022
:1028B00041E0089709F040E08091E8008E7780932E
:1028C000E80064CF44914093F100319621503109E2
:1028D0000196E8CF803809F04EC08091E800877FEC
:1028E0008093E8008091D1048093F10092CE811111
:1028F00042C01091D4041230F0F58091E800877F37
:102900008093E8001093D1040E943404112311F045
:1029100084E005C08091E30087FDFACF81E08093D9
:10292000D00442E061EC81E00E94530442E261EC99
:1029300084E00E94530442E261EC82E00E9453046E
:1029400042E260EC83E00E9453048091D00413C003
:102950008091D404813079F481E0933009F080E0F3
:102960008093CF041092E9008091E800877F8093E4
:10297000E8000E9434048091E80083FF0AC080913F
:10298000E800877F8093E8008091EB00806280936D
:10299000EB00AA96E3E00C949533ECEAF3E0128E98
:1029A000138E8FEA90E09183808325E0248F88E85E
:1029B00093E1938382838AE090E09583848344E16A
:1029C00050E05783468348E050E051874087938723
:1029D00082876EE170E0758764879787868780E5D8
:1029E00090E0918B808B538B428B48E250E0558B6B
:1029F000448B42E350E0578B468B48EC50E0518FBC
:102A0000408F158E178E168E91A380A322A30E944D
:102A1000DC0E0E94D5111092AA041092A904EAEAD1
:102A2000F4E08081846080836091A9047091AA049D
:102A300084E090E00E9413340E94F90E0895AEE104
:102A4000B0E0E5E2F5E10C946F33A0908404B0901F
:102A5000850481E090E0909385048093840480EC69
:102A6000C82E83E0D82E00E0760110E015C0F401F6
:102A700025913491472D612F802F0E949B0D82E07C
:102A8000880E911C7394ECE07E12F1CFF8E1EF0E0A
:102A9000F11C1F5F153019F04701712CE8CF0F5F53
:102AA00088E7C80ED11C0430F9F60E94CD141A82B2
:102AB00019821C821B821E821D8218861F8288EC4E
:102AC00090E09A8789870DE212E04AE050E0B80171
:102AD000CE0101960E941934065F1F4F0D37E2E0C8
:102AE0001E0799F77E01FBE0EF0EF11C8AE0F7016B
:102AF00011928A95E9F74AE050E0B801C7010E94B7
:102B00001934065F1F4F0D3CF2E01F07A1F77E014D
:102B100085E1E80EF11C8AE0F70111928A95E9F748
:102B20008FEF9FEF9A8F898F87E08E8F4AE050E07A
:102B3000B801C7010E941934065F1F4F0D31F3E041
:102B40001F07A1F7B0928504A09284046E96EDE071
:102B50000C948B3380E00E94C10D60E088E290E02D
:102B60000E94F5330E941F150E948B0D81E00E9488
:102B7000C10D0895CF92DF92EF92FF928FEF9FEFFA
:102B80004430510508F46CC0FB01C080D180E28064
:102B9000F3800E94D5118091A904C0FA80F9B70191
:102BA000A601769567955795479540FB81F9B70142
:102BB000A60122E076956795579547952A95D1F716
:102BC00040FB82F9B701A60133E0769567955795EA
:102BD00047953A95D1F740FB83F9B701A601E4E0A8
:102BE0007695679557954795EA95D1F740FB84F917
:102BF000B701A601F5E07695679557954795FA9543
:102C0000D1F740FB85F9B701A601A6E07695679557
:102C100057954795AA95D1F740FB86F9B701A601CC
:102C2000B7E07695679557954795BA95D1F740FBEC
:102C300087F98093A9048091AA04D0FA80F9D1FA87
:102C4000CC24C0F8C0FA81F98093AA046091A90449
:102C50007091AA0484E090E00E94133490E080E038
:102C6000FF90EF90DF90CF9008950E94D5112FEF45
:102C700084E39CE0215080409040E1F700C00000D8
:102C800088E19CE00FB6F894A895809360000FBE91
:102C900090936000FFCF882321F00E94800A0E9459
:102CA00002110895882339F090912405982B909370
:102CB00024050E9402110895882321F00E94870AAA
:102CC0000E9402110895882321F00E948E0A0E941A
:102CD00002110895882381F19CEF980F913A28F40E
:102CE0000E94BF0A0E940211089590E2980F983046
:102CF00050F4877091E001C0990F8A95EAF7892F07
:102D00000E94870AEFCF9BE5980F933028F490E05C
:102D100080E00E94C205089598E5980F9B3128F441
:102D200090E080E00E949D05089593E3980F933111
:102D300018F460E00E94E70B0895FF920F931F9331
:102D4000CF93DF93F82E009197041091980401150A
:102D5000110509F449C0109296041092950410923E
:102D6000920410929304D8011696CD91DC919E01A5
:102D70003A9521153F4108F4D07ED1E0C11101C040
:102D8000D0E0D8011996ED91FC911A97309731F067
:102D90001B966D917C9180E00995D823DD2339F055
:102DA0008CEF8C0F813A30F58C2F0E94BF0AFF20E8
:102DB00099F0E0919704F0919804808584FD0CC00F
:102DC00080919404882341F0808191819C0121505D
:102DD00031092F333E47A0F00E940211109298044F
:102DE0001092970410929404C801CDB7DEB7E5E0C5
:102DF0000C9493330E9402118C2F0E946A16D7CF35
:102E00000E94F405E9CFCF93DF93EC010E946A168C
:102E1000CE010E94BF0C9E01205E31092830310591
:102E200010F0CD2B29F40E945C16DF91CF9108950C
:102E30000E944B16FACFCF93C82F8823C1F18CEF95
:102E40008C0F813AB0F580911501882301F18091B2
:102E5000A90487FF1CC0EC2FE695E695E695F0E007
:102E6000E658FE4F828190E04C2F477021E030E021
:102E700002C0220F331F4A95E2F782239323892B46
:102E800079F08C2F0E94BF0A0E94021109C0ECE762
:102E9000F1E08191C817A9F381E0E238F807C9F79A
:102EA0006C2F8AE791E00E9468050E940211CF9181
:102EB000089580E28C0F883048F4C77081E001C02B
:102EC000880FCA95EAF70E948E0AEFCFEBE5EC0F68
:102ED000E33040F4F0E0E25EFE4F808190E00E943B
:102EE000C205E5CFE8E5EC0FEB3150F4F0E0EE0F72
:102EF000FF1FEF5DFE4F808191810E949D05D7CF1E
:102F000083E38C0F833198F661E08C2F0E94E70BEE
:102F1000CECF1F93CF93DF93182FC091CC03D091C6
:102F2000CD03893321F0C091CA03D091CB03812F07
:102F30000E941B17209739F4812F0E946A16DF9197
:102F4000CF911F9108958FE99FE00197F1F700C09D
:102F500000002197EFCFB0E0A0E0E1EBF7E10C94A7
:102F60007233EC018AE0A82E2881222309F48FC055
:102F70002130C9F599818A81913021F422960E94ED
:102F8000891705C0923029F422960E941B172196BA
:102F9000EBCF933021F422960E946A16F8CF94303A
:102FA00011F02196F4CF229630E020E0AE014F5F81
:102FB0005F4F8053990B8A30910550F021503109B1
:102FC00030F38FE99FE00197F1F700C00000F6CFE2
:102FD000A29EB001A39E700D11249C01260F371FE5
:102FE0008981EA01E3CFE22FF0E0EB56F94FB4908C
:102FF000822F86958695869590E0FC01EB57F94FD8
:10300000E4902770F12C022E02C0F594E7940A9404
:10301000E2F731E0E322FF24FC01EB58F94FC490C2
:10302000D12C022E02C0D594C7940A94E2F731E065
:10303000C322DD24FC01EB59F94F049110E002C0DA
:10304000159507952A95E2F701701127E114F1040F
:1030500019F081EE0E941B17C114D10419F086EEFD
:103060000E941B178B2D0E948917C114D10419F0DF
:1030700086EE0E946A16E114F10419F081EE0E94B6
:103080006A160115110509F482CF8CE278CFCDB70D
:10309000DEB7EAE00C948E33B0E0A0E0E2E5F8E1C0
:1030A0000C9472337C015B01C42FD22FFC0185810B
:1030B0008823A9F040939B040E945C0590939A0496
:1030C00080939904C77081E001C0880FCA95EAF720
:1030D0000E946316CDB7DEB7EAE00C948E331091F0
:1030E0009B04141338C08091990490919A040E9413
:1030F00041056C01B701C5010E94EE0DC816D90645
:1031000050F5C0E2CD0F1D17C1F080E2810F88306D
:1031100048F4177081E0012E01C0880F0A94EAF785
:103120000E945C16C83048F481E09D2F977001C062
:10313000880F9A95EAF70E946316802F0E948917DC
:10314000C83040F6D77081E001C0880FDA95EAF701
:103150000E945C16BFCFC77081E001C0880FCA957E
:10316000EAF7F6CFCF93DF93EC010E94BF0C9E01EC
:10317000205E31092830310510F0209741F40E947B
:1031800063168C2F0E941B17DF91CF9108950E9428
:103190005216F7CF662329F0209124052260209350
:1031A00024059C0130522115304308F499270E94D0
:1031B000B2180895B0E0A0E0E0EEF8E10C947433AA
:1031C0006C018B01E42E8091130182FF87C0C091B6
:1031D000D203D091D303CC15DD0521F0C114D10465
:1031E00009F07CC0809113018B7F8093130181FDD6
:1031F0006EC08091D0039091D103A801481B590B58
:1032000081E020911101309112014217530708F417
:1032100080E08170F82E80911301F0FA81F980939B
:103220001301FE0183E0F695E7958A95E1F7EE71CB
:10323000FF27E457FC4F20813181AE014F705527A5
:1032400081E090E002C0880F991F4A95E2F7FF20C5
:1032500009F43FC0822B932B9183808380918B0351
:1032600081FF08C08091130180618093130182E087
:103270000E94870A80918B0385FF08C0809113010B
:1032800080628093130180E20E94870A6F2DCE0135
:103290000E94CA18EE2031F08091C70385FF02C05A
:1032A00086FF30C08091CA039091CB030E94810DAC
:1032B0008091D2039091D3039C0130522115304369
:1032C00008F499270E9403170E94B61117C081E0E5
:1032D000A0CF8095909582239323BECFC6019052B4
:1032E00081159043A0F4C60199270E94031780918D
:1032F000D2039091D3038C159D0531F31093D10324
:103300000093D003CDB7DEB7E8E00C949033C6014C
:10331000ECCFA7E0B0E0EFE8F9E10C946A337C0170
:10332000DC0114968C91882309F45AC161E0C7012D
:103330000E94CD0E8C01F7018581882309F18091CF
:103340009C0490919D040097D9F008171907C1F0CB
:10335000FEE08F9FC0011124FC01EB5BFD4F20813B
:1033600024602083805C9D4FDC010D931C930E94A0
:103370008E111092240561E0C7010E94CD0E8C01D0
:10338000F7018581882309F4B1C0C80197578038B7
:10339000910508F0DDC0D02EFFE0F01708F410C151
:1033A0008FEF93E00E94D73381110AC10DE113E042
:1033B000D11036C019821A821B821C8299249A94D9
:1033C00068013FEFC31AD30AC8010E94D73389832B
:1033D0001A82882309F4F4C0813009F081C05801B1
:1033E00042E0A40EB11CC6010E94D733C82E8A83C6
:1033F000882309F4E5C0C5010E94D733D82E8FEF8A
:103400008C0D8330D8F4580153E0A50EB11CDB823B
:10341000DD2021F0CE0101960E94AB178501D0CFAF
:10342000011524E0120709F4CBC0C8010E94D7336C
:10343000811101C0DA940F5F1F4FBACF8BEF8C0D53
:10344000833030F5C8010396DB825C01DD2031F367
:103450005801A4E0AA0EB11C0E94D7338C838823A4
:10346000E9F28B819C818130BFEF9B0710F0982F90
:103470008827E6E0CE1631F0F7E0CF1631F00E9453
:10348000E428CCCF0E94BF28C9CF0E944628C6CFCF
:1034900024E0C212C3CF580134E0A30EB11CC8010E
:1034A00003960E94D733DD2009F48AC0882309F4EB
:1034B00087C08150990B989E9001999E300D1124E0
:1034C0004D2D4150550BCA01820F931F019708F4EF
:1034D000A5CFAFE9BFE01197F1F700C00000F6CF2C
:1034E000CE0101960E94AB17560198CF6801E7E51F
:1034F000DE1AFFEFCF16D10409F050F566E372E053
:103500008C2D0E94DA0D892B19F58EE08C9DF0012F
:103510008D9DF00D1124E05CFD4F82818130A1F57D
:103520008091360290913702892B91F08091380278
:1035300090913902892B61F080913A0290913B027F
:1035400020913C0230913D02822B932B892B21F15B
:10355000D70115965C90552009F446C00E35BCE79E
:103560001B0759F10F35ECE71E0741F00D35FCE75D
:103570001F07D1F5809100018823F9F01092000116
:1035800080E00E949D161CC0823011F780913A02A3
:1035900090913B02892BE1F22EE02C9DC0012D9DE4
:1035A000900D1124FC01EB5BFD4F20812E7F2083C9
:1035B000805C9D4F0E948E11CBCF81E080930001F3
:1035C0008091C301877061F0D70115968C91882393
:1035D00039F08091AA0482FF03C082E00E948F0B21
:1035E0002796E2E10C94863380910001882309F448
:1035F00057C6480120EE821A91084090E60180915A
:10360000C001482A80918B03482A38E08316910430
:1036100008F086C098012770332781E090E001C050
:10362000880F2A95EAF7552009F477C0482AD70170
:103630008D919C910E94F40A21E030E0390102C092
:10364000660C771C8A95E2F7E0919704F091980454
:10365000FF83EE8320909A0130909B011D822D8183
:10366000E22FF0E0EE0FFF1FEF5FFC4FC080D18034
:10367000C114D10409F478C6411005C0D6011296D0
:103680008C91811189C0F601838190E08621972178
:10369000892B09F481C08085982F977009F487E001
:1036A000F8E08F16910408F055C0552009F44EC07B
:1036B00086958170882309F46FC0D601AD90BC90C7
:1036C0000A151B0519F4552009F466C0EE81FF8127
:1036D000CE16DF0609F460C0D6011D96ED91FC916F
:1036E000309721F08081882309F456C0642DC601EB
:1036F0000E944506882309F44FC00A151B0509F0EE
:103700009CC60115110509F49DC651109DC6A21451
:10371000B30409F041C0512C97C68095482287CF49
:10372000552009F40AC610939B0100939A010E9448
:10373000500560938E0470938F048093900490934F
:103740009104109296041092950471CF82FB882701
:1037500080F9B0CF552001F18170ACCF0E946A167C
:1037600091C60497813A910558F46A2D8AE791E051
:103770000E946805552009F493C50E94021120CFCC
:103780000E9402118FE39CE90197F1F700C000004D
:103790008A2D0E941B17EECF9D819F5F9D835FCF77
:1037A000FC01208131810217130709F072C5511005
:1037B00072C51092940480E00E949D1671C5902FEE
:1037C000812FB6C5F901858181FFE2C5C9010E943B
:1037D0007411DEC590911301892F8E7F90FF816057
:1037E000809313010E94B611FFC5809113018E7F53
:1037F000F7CF809113018F7E013E110531F0053E18
:103800001105E9F4809113018F7D8093130180915C
:10381000130180FF29C0D70115968C91083211053C
:1038200070F50E31110508F07BC004301105C8F5A4
:103830008823D1F01092D3031092D20315C0C8018F
:1038400090528115904318F78091130182FF0CC0AC
:103850008091C90381FD08C025E032E040E0B60157
:1038600090E080E00E94DA18F801E851FC47E73068
:10387000F10508F0C3C5E35CFB4C0C945D330933E0
:10388000110558F40D32110518F40B32110581F6AB
:103890009091C70392FDCCCF08C004361105C1F347
:1038A000C7CF9091C70394FDC3CF882309F4A8C064
:1038B0008091E60190918B03892B8D7FB1F110925D
:1038C000D3031092D2038091C70381FD2EC0F8016B
:1038D00043E0F695E7954A95E1F7EE71FF27E45747
:1038E000FC4F98012F70332781E090E002C0880FD1
:1038F000991F2A95E2F78095909520813181822346
:1039000093239183808360E0C8010E94CA1880914C
:10391000E6018D7F0E94570A82E00E948F0B50CEF5
:103920009091C70393FD84CFC0CF89E0F701A5E054
:10393000B2E001900D928A95E1F710920A0210927E
:103940000802109207028091D2039091D3030817C6
:103950001907D1F52091C70325FF36C03091130117
:1039600031FF02C026FF30C02091D0033091D10337
:103970005601A21AB30AB7010E94EE0DA816B906A5
:1039800018F580918B0381FF08C08091130180613D
:103990008093130182E00E94870A80918B0385FF48
:1039A00008C08091130180628093130180E20E941D
:1039B000870A60911301669561708091D20390919E
:1039C000D3030E94CA18FCCD8091E60190918B032D
:1039D000982B2091130191FB21F9209313018D7FE6
:1039E0000E94570A1093D3030093D203D092D103BD
:1039F000C092D003809113018460809313018CCF17
:103A0000970140E0B601C8010E94DA18D9CD06E25C
:103A100021EE41EE6AE17CE7C7010E944C18D0CD4F
:103A200007E225EE45EE6BE17CE7F6CF06E221EEFC
:103A300040EE68E17CE7F0CF07E225EE44EE69E175
:103A40007CE7EACF06E221EE42EE6CE17CE7E4CFD0
:103A500007E225EE46EE6DE17CE7DECF08E221E0ED
:103A600045EE6EE17CE7D8CF8091A9048160809318
:103A7000A90495C08091AA0488608093AA048FC08D
:103A80008091A9048260F3CF8091A9048460EFCF74
:103A90008091A9048860EBCF8091AA048160EDCF6A
:103AA0008091AA048260E9CF8091A9048061DFCF70
:103AB0008091A9048062DBCF8091A9048064D7CF74
:103AC0000E94D5118091A9048068D1CF8091A9046A
:103AD0008C60CDCF8091AA048360CFCF8091A90460
:103AE0008E7FC5CF8091AA04877FC7CF8091A9041C
:103AF0008D7FBDCF8091A9048B7FB9CF8091A90420
:103B0000877FB5CF8091AA048E7FB7CF8091AA041A
:103B10008D7FB3CF8091A9048F7EA9CF8091A90416
:103B20008F7DA5CF8091A9048F7BA1CF0E94D51155
:103B30008091A9048F779BCF8091A904837F97CF31
:103B40008091AA048C7F99CF8091A90482FB992748
:103B500090F921E0922790FB82F990FB83F987CFBF
:103B60008091AA04982F909591708E7F892B90FB5D
:103B700081F983CF9091A904892F8F7B96FF806470
:103B800076CF0E94D5119091A904892F97FB87F9D0
:103B900080586DCF61E08EE090E00E94F533609137
:103BA000A9047091AA0484E090E00E9413340E945A
:103BB000D51106CD60E0EFCF9091A904892F8F7EBB
:103BC00094FF806154CF9091A904892F8E7F90FF3C
:103BD00081604DCF9091AA04892F877F93FF8860E1
:103BE0004CCF0631FCE71F07B9F580918B03982F66
:103BF0009A7A3091C60330FF04C0482F447409F00C
:103C000090E031FF04C0482F417109F090E032FF8D
:103C100004C0482F487809F090E033FF03C0827257
:103C200009F090E0222371F081E0911101C080E061
:103C300080939C0169E2911165E38AE791E00E941B
:103C400068059BCD80919C01811104C089E20E948E
:103C5000BF0A93CD85E3FBCF07373CE7130709F491
:103C600058C008374CE7140709F45EC0222381F0DE
:103C700003305CE7150709F477C008F05AC0011556
:103C80009CE7190709F463C001301C4709F472C0AE
:103C9000F70187819085009709F47AC00E942E0968
:103CA000182F092FF701C580B680B2943FE0B322E8
:103CB0008091C3018770F1F0AC2CCC20E1F0892F0A
:103CC000807F803451F080E2810F883098F0B1100D
:103CD00004C0892F807E803269F08091AA0482FF1F
:103CE00009C082E00E948F0B8091C3018770AA24D3
:103CF000A3948111A12C902E92942FE09222FBE0AC
:103D0000F91508F4D5C0E92DF0E0EC5BFB4C0C9400
:103D10005D3381E0222351F00E94A60B43E062E074
:103D200081E00E94620B4CCC82E0F4CF0E94820BB7
:103D3000F5CF0B35BCE71B0749F10C35ECE71E0747
:103D4000D9F00A351C4709F0A3CF81E01CC00E94BE
:103D5000D5112FEF34E34CE0215030404040E1F7E3
:103D600000C000000E945D0D6FEF7FEF90E080E0EB
:103D70000E9413340E9435168091AA0482FB882782
:103D800080F991E089270E94380F82CF80E0FBCF35
:103D9000858100811181882369F0C8010E94580E35
:103DA000D82E682FC8010E94280BB8018D2D0E94C3
:103DB0003B0E74CFC8010E94F40AD82EF6CF202FF4
:103DC0002F70D22E802F807F19F0D29490EFD922BD
:103DD000CC20A9F0DD2059F080E2810F883010F06E
:103DE000111107C08D2D0E948E0A0E940211812F91
:103DF0005DC080912405D82AD0922405F6CF812F6A
:103E00000E946A16DD2009F453C080E2810F8830D9
:103E100010F0111104C08D2D0E94870A03C08D2D52
:103E20000E94800A0E94021143C0302F3F70D32E9F
:103E3000802F807F803219F0D29480EFD822112316
:103E400039F1113009F4B6C0CC2009F4C2C0BB204E
:103E500009F466C020E0D7014C9111965C9111974E
:103E600012966C91129713967C91139714968C91DD
:103E7000149715969C910E94A80E8091C90381FD0C
:103E8000B6CFF701868180FFB2CF8F70868348C09E
:103E90008091AA0482FD40C0CC20C1F1DD2029F030
:103EA0008D2D0E948E0A0E94021180E00E941B1735
:103EB000A92DA850BB0B149710F40E94E705812F81
:103EC000902F0E94CC0B8111C4C110929E011092C0
:103ED0009D01AA20B1F08091C30180FD12C0D701DD
:103EE00015961C928695869586950E94A60BC7010D
:103EF0000E9489198091C3018695869586950E94B6
:103F0000820B60E0C7010E94CD0E6ACB80E00E9468
:103F10006A16DD2069F27FCFCC2091F1B11004C088
:103F20008D2D0E946316C4CF41E0B41211C0809061
:103F3000E6018D2D8821D81609F4BACF0E945C05C0
:103F40009093E5018093E401D828D092E601B0CFA8
:103F50008091C803823008F4ABCFB812A9CF8D2D61
:103F60000E9463168D2D0E946B0A8091C0019D2DC9
:103F70009823D91609F49CCFD82AD092C00198CFA3
:103F8000B1100AC08D2D0E945C168D2D0E946B0A07
:103F90008D2D0E94B50A8CCF8091C803823008F421
:103FA00087CF51E0B51284CF80918B038D2109F426
:103FB0007FCFE8CF8091CE03CC2021F08B1508F481
:103FC00077CFAECFB81608F073CF8D2D0E945C1658
:103FD0006FCFBB20D1F38091CC039091CD031933E7
:103FE00021F08091CA039091CB030E94810D812F13
:103FF0000E946A165DCF802F86958695837069F042
:10400000813009F055CF812F902F9370C11002C0DD
:1040100080E090E00E949D054BCF812F902F937000
:10402000C11002C080E090E00E94C20541CF6C2D1B
:10403000812F0E94E70B3CCF802F837091F5C11038
:1040400037CF412F429546954770440F440F812F3B
:104050008F70042E01C0880F0A94EAF7212F207177
:1040600014FF07C02FE030E001C0220F4A95EAF7A5
:104070002095302F369536953370323069F050F4F4
:104080004091F601313029F0822B84230E94C90B24
:104090000FCF842B822BFACF282B8091F601822719
:1040A000F5CF8695CC2011F0802F8170882309F4FC
:1040B000FFCE412F429546954770440F440F812F04
:1040C0008F70042E01C0880F0A94EAF7212F207107
:1040D00014FF07C02FE030E001C0220F4A95EAF735
:1040E0002095302F369536953370323069F050F484
:1040F0004091F701313029F0822B84230E945F0B1D
:10410000D7CE842B822BFACF282B8091F7018227E0
:10411000F5CFF02FFF70DF2ECC2029F08F2F0E94DB
:10412000A60B812FFECE812F0E945C168D2D0E9442
:10413000820BBECE123F89F160F4103FB9F0113FFF
:1041400081F0CC2009F480C0B11051CE802F8F7146
:1041500028C0133F49F1143FA1F78091AA0482FDC2
:104160002FC0802F8F71CC2011F31BC08091CE0304
:10417000CC2079F0B81608F09BCE202F2F7181E06B
:1041800090E001C0880F2A95EAF79091F7018927FE
:10419000B5CF8B1508F48CCEF0CF802F8F71C11066
:1041A000C6CF0E94A60B84CE80E0CC2009F4A6CF17
:1041B00081E0902F9F7101C0880F9A95EAF79ECFFA
:1041C0008091C803823040F1CC20D1F09091C3019E
:1041D0009770943041F40E94940A802F8F710E944E
:1041E000820BA12C65CEB816E0F7202F2F71D22EAE
:1041F000822F0E94A60B63E08D2D0E94B20BF1CF9F
:10420000B81630F00E94940A64E0802F8F71F5CFC9
:1042100081E00E948F0BE5CFCC2059F0302F3F7109
:10422000D32E832F0E94A60B63E08D2D0E94B20B2C
:104230003FCE81E00E948F0B41E04B1508F038CE55
:1042400082E00E948F0B34CEB110C5CE802F8F71CB
:104250006ECFCC2019F0B11038CE3BCEB11035CE98
:1042600020E0F701408151816281738184819581D1
:104270000E94A80E8091C90383FF27CE80919D01E3
:1042800090919E01029709F020CE812F0E948917FC
:104290001CCE552029F0DC0118968C9185FF8BCA25
:1042A000C80197558F3F910511F008F071C0580172
:1042B000BB24BEE00B9FF00111249F01205C3D4F09
:1042C0006901D70115968C91EB5BFD4F908180FBC6
:1042D00090F99083882309F475CA0E945C05909335
:1042E000040280930302F60182818F5F82838091B2
:1042F000240590918B03892B83838091E60184832D
:104300000680F781E02D309731F0D6011C966D9133
:104310007C91C60109958EE08A9DF0018B9DF00D80
:104320001124E05CFD4F858181FF49CA90E080E067
:1043300090939C0480939D042BC080919A0190914E
:104340009B010817190781F410929B0110929A01A2
:1043500010928E0410928F04109290041092910487
:10436000109296041092950480919704909198046D
:10437000009709F495CFA8E08A16910408F010CAB6
:10438000642D0E944506811103C081E00E949D16A4
:104390008091C70380FF68CA0E945C056C01D70149
:1043A00015968C91882309F424CA8091130182FF09
:1043B00008C025E032E040E0B60190E080E00E94D5
:1043C000DA180431BCE71B0709F40FCA0531ECE722
:1043D0001E0709F4FFC90331FCE71F0729F4809188
:1043E0001301816080931301C8019052811590439D
:1043F00008F00DCA1092D3031092D203F701258161
:10440000222309F4EECB10929B04C80190578397A6
:1044100008F0E7CB84E090E00E94DF339093AA0499
:104420008093A904F801E150F047E232F10508F069
:104430001BCBE05BFB4C0C945D33A114B10409F081
:1044400066C9512CB12CA12C80E00E949D16D092FF
:104450009804C092970481E080939404F6018581CA
:104460008093920451100EC0AB2861F0F601808158
:1044700091819C0124503109213A310508F06EC91F
:104480000E94BF0AD6011696AD90BC90C5019A95C0
:1044900081159F4110F4E0EEBE2277247394C5018C
:1044A00001978F339E4708F0712CD6011996ED9134
:1044B000FC911A97309731F01B966D917C9181E0B9
:1044C00009957822772079F0F601868197810E94FC
:1044D000BF0C80939304C501F8E08F16910408F097
:1044E00040C90E94F4050E94021144C9B0E0A0E056
:1044F000ECE7F2E20C9475338091BD01807F09F006
:1045000054C08091BC01882309F44FC0E091230579
:1045100089E0D82E8091DA048E1709F446C00E2F58
:1045200010E0ED9DF0011124E552FB4F84818823BA
:1045300009F440C0D09EE001D19ED00D1124FE01AF
:10454000E552FB4F91818091B801981333C090815F
:104550008091B70198132EC0858181112BC0E28014
:10456000F3808091B9019091BA01E81AF90A60E0EC
:1045700087EB91E00E94CD0E67EB71E00E94EE0D9B
:10458000E816F906B8F48091BD018F7080618093C0
:10459000BD01CF51DB4F88818F708061888387EBAD
:1045A00091E00E9489190E94EA0ACDB7DEB7E7E0E0
:1045B0000C949133F8013196E770ACCFA8E1B0E0EC
:1045C000E4EEF2E20C946D338C0186E0F801DE013A
:1045D000539601900D928A95E1F7D80114967C903C
:1045E00014971596EC9087EBA82E81E0B82E809159
:1045F000BB0181112AC0711003C0FF24F3941CC0B9
:10460000EE20F9F0C8010E94940EF82E8823C9F01C
:1046100089E0F801A7EBB1E001900D928A95E1F7EE
:104620008091BB01813031F48091B7019091B80144
:104630000E94870E0E9476228F2D6896EFE00C94E0
:104640008933C8010E948919D8CFF8015080618050
:10465000C280D38060E087EB91E00E94CD0EF090A5
:10466000BC018091B9019091BA014601881A990A5A
:1046700060E087EB91E0FF2009F428C10E94CD0E95
:1046800067EB71E00E94EE0D8816990608F0D1C024
:10469000772009F4B2CF8091BD01382F307F20916F
:1046A000B801D80111969C911197311171C029134D
:1046B0001FC02091B7019C9129131AC04091BE01DF
:1046C0005091BF0117962D913C914217530781F4E9
:1046D000E11054C08F7080618093BD0187EB91E041
:1046E0000E9489198091BD01F8018683F12CA4CF25
:1046F000E11044C0662D852D0E94C503E82E882355
:1047000081F08091C90380FFF1CF87EB91E00E9497
:10471000891989E0E7EBF1E0DF011D928A95E9F75D
:10472000E5CF5B8A6C8A8B899C890E94870E292F32
:1047300022952F70243058F49F70223088F09923EE
:1047400099F0F8019681907F79F4FE2C75CF2A5F5D
:104750002F70223068F0C8010E948919EF2CF5CF24
:10476000992311F0882389F3805E883070F3F3CFAA
:10477000803F58F3815F833070F7E7CF8091BD01B0
:1047800081608093BD018091C90381FDAFCFBDCF12
:10479000291320C02091B7019C9129131BC040917F
:1047A000BE015091BF0117962D913C911897421769
:1047B000530781F4E1100EC016968C93C8010E9435
:1047C000891989E0F801A7EBB1E001900D928A9573
:1047D000E1F732CFC8010E94940E882309F431CF4B
:1047E000EE2009F42ECF8091BD018032B8F02091E7
:1047F000B7013091B8013B872A87DD86CC8690913E
:10480000BB019E871F86888B8091BE019091BF015E
:104810009A8B898BCE010A960E94891989E0F8014A
:10482000A7EBB1E001900D928A95E1F70E94762204
:10483000E4CE8091BD01982F907F09F466CF772058
:1048400009F4DBCE2091B801F801918129131AC037
:104850002091B7019081291315C04091BE0150915C
:10486000BF01278130854217530761F4E1100AC068
:104870008683C8010E94891989E0D5011D928A9515
:10488000E9F7DACEC8010E94940E882309F4D9CE44
:10489000EE2009F4D6CE8091BD01803208F4BECF5F
:1048A0002091B7013091B8013A832983DC82CB8211
:1048B0009091BB019D831E828F838091BE01909158
:1048C000BF0199878887CE010196A6CF0E94CD0EA1
:1048D00067EB71E00E94EE0D8816990608F04AC059
:1048E000772009F48ACEFE2CEE2009F4AACE90910E
:1048F000B801F801818198132FC09091B701808190
:1049000098132AC02091BE013091BF018781908504
:104910002817390709F58091B9019091BA01C81A91
:10492000D90AF8ECCF16D10408F04BCF9091BD0115
:1049300090FD47CF907F09F444CF8091BD01D8010D
:1049400016968C931697903F09F438CF982F907F46
:10495000905F8F70892B30CFC8010E94940E811117
:104960005DCF8091BD0181608093BD01C8010E942F
:10497000891962CE89E0F50111928A95E9F75CCE3A
:10498000A2E1B0E0E6ECF4E20C9478330A871B87EE
:104990002C873D874E875F87688B798B8A8BCE010A
:1049A0000A960E94DE2281110CC089E0FE013A962F
:1049B000DE01119601900D928A95E1F78E858111A5
:1049C0000BC019E0809123059091DA04891331C05E
:1049D0006296E4E00C9494332091DA0430E0C9014B
:1049E000019687709927409123054817190699F079
:1049F00099E0929FD001939FB00D1124A552BB4F17
:104A0000FE01319601900D929A95E1F78093DA04B8
:104A10000E94EA0AD6CF0E94D5111092DA041092B1
:104A2000230589E0E7EBF1E0DF011D928A95E9F7C4
:104A3000C8CF819FC001112485529B4F0E94DE2266
:104A4000882331F28091230590E0019687709927A1
:104A500080932305B7CFEF92FF920F931F93CF93CD
:104A6000DF9380910F04882361F0E091D6038DE0FD
:104A7000F82E80910F04E81748F010920F0410925E
:104A8000D603CDB7DEB7E6E00C949233EE24E39480
:104A9000EE0EE092D603CE2FD0E0EF9DF001112470
:104AA000E05FFB4F84818823E9F087819085892B23
:104AB00021F481859285019659F40081118122812A
:104AC0003381448155816681778180850E94C0242D
:104AD000FC9EF001FD9EF00D1124E05FFB4F14825F
:104AE00010922405EE2DC5CF1092830410928204FB
:104AF0001092140180918104809380040E94930697
:104B00000E942B250895B0E0A0E0E9E8F5E20C94BE
:104B10006B33C091800497E0992E01E010E02DE006
:104B2000322E34E0432E55245394809181048C130B
:104B300009C00E942B250E949306CDB7DEB7E1E1A4
:104B40000C948733D0E0FE01EE0FFF1FE858FB4FB7
:104B500080819181989ED001999EB00D1124A95217
:104B6000BC4F14962C911497211159C060900F04DA
:104B7000E0E1F4E030E020E0812C5D01261508F052
:104B80004CC0E384F484D501CD90DC906FEF7FEFCF
:104B9000712C472D50E0DA01AA0FBB1FAC0DBD1DD3
:104BA0000D90BC91A02D109731F0EA16FB0609F488
:104BB000BA017394EECF6F3F7607A9F1D80102C016
:104BC000AA0FBB1F6A95E2F78A2AB801072C02C018
:104BD000660F771F0A94E2F7AB0141505109841622
:104BE000150601F5329EF001339EF00D1124E05FB1
:104BF000FB4F989ED001999EB00D1124A952BC4F35
:104C000012962D913C91139730872783448210820E
:104C100011829287818715965C920E946506219683
:104C2000C37083CF14822F5F3F4F3D96A7CFAEE175
:104C3000B0E0EDE1F6E20C946A334B8B5C8B6D8B4C
:104C40007E8B8F8B988F882349F080919D01909166
:104C50009E01019690939E0180939D01888D811104
:104C600010922405188A198A1A8A86E0FE01739622
:104C7000DE011A9601900D928A95E1F78091AA04BF
:104C800082FF1EC08091AE039091AF03892BC1F0CB
:104C90000E945C052091C1013091C201821B930BDF
:104CA0002091AE033091AF038217930720F08091DB
:104CB000C30182FFE7C10E949B0A81110E944C0A36
:104CC0008E85882389F061E0CE010A960E94CD0E80
:104CD0006C018F8520E5C2162CE7D20689F4882363
:104CE00029F181E0809314010A851B852C853D857F
:104CF0004E855F85688979898A890E94C024CDC0E4
:104D000031E5C3163CE7D30629F4882379F00E94E5
:104D10007425EACF42E5C4164CE7D40639F488235B
:104D200029F0809114018111F2CFDBCF97EDE92EAC
:104D300093E0F92E412CB12CA12C88248394912C42
:104D4000BE016F5F7F4F7A8F698F22242394F70112
:104D50004081518166246A94762C20E0822F90E075
:104D6000FC01EE0FFF1FE40FF51F608171816115DB
:104D7000710531F0C616D70609F43C012F5FEECF5E
:104D8000312CFFEF6F167F0609F448C0F70144810C
:104D900030901401832D411180E0F82FF1703F2EE7
:104DA000F701558086819F85992309F4F7C0332048
:104DB00009F4F4C00091C2031091C303511013C051
:104DC000A401062C01C0440F0A94EAF7842B8683C1
:104DD0008091D4039091D5038017910720F410930C
:104DE000D5030093D403C40102C0880F991F2A95EC
:104DF000E2F70197F70126812817190679F48091C7
:104E0000820490918304009709F44BC00E944105ED
:104E10000817190708F045C0F70124824328FFEF5F
:104E2000AF1ABF0A27E0E20EF11C38E0A316B10466
:104E300009F08DCF8F85882309F410C1442009F42F
:104E40000DC10E945C05909383048093820480913D
:104E50000F04883010F591E0980F90930F0499E0BB
:104E6000FE013A96DE01119601900D929A95E1F7B6
:104E70004DE0849FC0011124805F9B4F29E0FE011B
:104E80003196DC0101900D922A95E1F72FEF3FEF6B
:104E9000FC0132872187D486C3866E96E2E10C94AA
:104EA00086338091800450918104982FF0E0E0E0F7
:104EB000851314C090938004EE16FF0609F4AECF5C
:104EC00090E0FC01EE0FFF1FE858FB4FB182A0827B
:104ED00001968370992780938104A0CF682E712C4E
:104EE000F301EE0FFF1FE858FB4F20813181F7E0FF
:104EF000F29FD001F39FB00D1124A952BC4F2D9108
:104F00003C9111973E8F2D8F40E020E030E0E32F61
:104F1000F0E0EE0FFF1F6D8D7E8DE60FF71F008115
:104F2000118101151105E1F0F7010190F081E02DEB
:104F3000FC8FEB8F20E005C00617170709F4432DFF
:104F40002F5FE22FF0E0EE0FFF1F6B8D7C8DE60FE1
:104F5000F71F608171816115710571F73F5FD7CFD0
:104F60004423C9F0F701231708F0FD012482EE164F
:104F7000FF0621F490938004342E50CF981305C07F
:104F8000AE17BF0711F49F5F937093012F5F3F4FE0
:104F9000822F83708DCFF0E0E0E0F7CF90E05110EA
:104FA00020C0B40102C0660F771F2A95E2F79B016B
:104FB000215031098217930731F4442309F44CC07E
:104FC000C5010E946506C401062C01C0880F0A9421
:104FD000EAF7982F9095F701868189238683352CEF
:104FE0001DCFAC01062C02C0559547950A94E2F7F7
:104FF000BA01617077279C012150310982239323E4
:10500000892B31F5672B21F1F70182819381892B5F
:10501000E1F0E98DFA8D27E011922A95E9F70E94D7
:105020005C05282F8B839C8334E03D83F7018281CC
:105030009381782F8887998709811A813C8144E080
:105040005E816F81892F0E94C024F7011582BBCF3A
:10505000F42FF1705F2EB7CF532CB5CF9091800411
:1050600080918104981729F00E948325411015CF63
:105070003BCE0E942B2510928304109282040E9442
:105080009306F4CF82E00E948F0B15CEA6E0B0E02D
:10509000ECE4F8E20C947A3390932D0280932C0286
:1050A000811520E2920730F40E9403172696E2E071
:1050B0000C94963380EF89838A830E945C0581601B
:1050C000682F9C838B8349815A817C8181E090E0A9
:1050D0000E941726EBCF0F931F93CF93DF938C0182
:1050E000EB0166E372E08C2F0E94DA0D892BA1F4AC
:1050F0008091CA039091CB030E94810DDD27C25D90
:10510000DD4F8881F801128218828330F1F048F473
:10511000813059F0823081F0DF91CF911F910F9152
:1051200008958430B9F08530B9F7809136029091B6
:105130003702009789F306C08091380290913902B6
:10514000009799F30E944628E7CF80913A02909108
:105150003B02F6CF80913C0290913D02009791F77F
:1051600020913602309137028091380290913902B5
:1051700021153105F1F2009729F7C901E3CFA6E027
:10518000B0E0E5ECF8E20C947A3390932D02809332
:105190002C02811520E2920730F40E94B218269664
:1051A000E2E00C94963380EF89838A830E945C0549
:1051B0008160682F9C838B8349815A817C8181E047
:1051C00091E00E941726EBCFCF93DF93EC010E9472
:1051D000BF288091CA039091CB030E94810DCE011C
:1051E0000E944628DF91CF9108950F931F93CF938C
:1051F000DF938C01862F66E372E00E94DA0D892B23
:10520000B1F4C0913602D0913702209781F0F801B5
:105210008281833051F4CE010E94E428CE010E94A5
:10522000E428CE010E94E42802C08430D0F7DF9148
:10523000CF911F910F9108950F931F93CF93DF93F9
:105240008C01EB0166E372E08C2F0E94DA0D892B52
:1052500009F05CC0FE01FF27D80112968C911297CD
:10526000E25DFD4F8130B9F415969C9192FF02C02A
:1052700080830AC090FFFCCF82E080838091380257
:10528000909139020097B9F48091360290913702DB
:105290000097E1F110C08230B9F515968C9182FD2E
:1052A00028C080FD0BC083E0808380913A029091FA
:1052B0003B02009701F10E94BF2828C084E0808350
:1052C00080913C0290913D020097A9F780913602AF
:1052D000909137020097F9F00E94E42880913802FB
:1052E00090913902009739F78091360290913702F8
:1052F000E2CF85E08083809136029091370200975B
:1053000029F00E94E428F0CF86E08083DF91CF91DE
:105310001F910F9108958091380290913902B8CF72
:10532000A6E0B0E0E6E9F9E20C9478330E945C056F
:105330008C018091E7019091E8018017910781F03D
:1053400019821A820E945C05682F49815A81792F3F
:1053500080E090E00E9417261093E8010093E70197
:105360002696E4E00C9494331F920F920FB60F929E
:1053700011242F933F934F935F936F937F938F935A
:105380009F93AF93BF93CF93DF93EF93FF93D0910E
:10539000E900DF708091EC00C82FC17080FDC0E88B
:1053A0001092E9008091F000877F8093F00078945C
:1053B0000E9404121092E9008091F00088608093AE
:1053C000F000CD2BCF70C093E900FF91EF91DF91FA
:1053D000CF91BF91AF919F918F917F916F915F918D
:1053E0004F913F912F910F900FBE0F901F901895E6
:1053F0001F920F920FB60F9211242F933F934F934A
:105400005F936F937F938F939F93AF93BF93EF932C
:10541000FF938091E10082FF09C08091E20082FF4A
:1054200005C08091E1008B7F8093E1008091DA00DC
:1054300080FF24C08091D80080FF20C08091DA00D6
:105440008E7F8093DA008091D90080FF9DC080E13B
:1054500089BD82E189BD09B400FEFDCF81E0809362
:10546000D0048091AB04811109C00E94E4030E9422
:1054700085048091E20084608093E2008091E100E5
:1054800080FF17C08091E20080FF13C08091E2008E
:105490008E7F8093E2008091E20080618093E20041
:1054A0008091D80080628093D80019BC85E08093F9
:1054B000D0048091E10084FF2BC08091E20084FF42
:1054C00027C080E189BD82E189BD89B5982F91709F
:1054D00080FFFBCF8091D8008F7D8093D800809192
:1054E000E1008F7E8093E1008091E2008F7E8093C7
:1054F000E2008091E20081608093E2008091D1041B
:10550000882309F447C084E08093D0048091D004BC
:105510008091E10083FF27C08091E20083FF23C0D8
:105520008091E100877F8093E10082E08093D00446
:105530001092D1048091E1008E7F8093E1008091F0
:10554000E2008E7F8093E2008091E2008061809390
:10555000E20042E060E080E00E9453048091F000AD
:1055600088608093F000FF91EF91BF91AF919F9180
:105570008F917F916F915F914F913F912F910F90FC
:105580000FBE0F901F90189519BC1092D004109266
:10559000AB0474CF8091E30087FD93E09093D00437
:1055A000B5CF78941F921FB61F9211248F939F93AB
:1055B000AF93BF938091A5049091A604A091A704F6
:1055C000B091A8040196A11DB11D8093A5049093EC
:1055D000A604A093A704B093A804BF91AF919F9194
:1055E0008F911F901FBE1F9018951F921FB61F927C
:1055F00011248F939F93AF93BF938091A404811143
:1056000013C08091A5049091A604A091A704B09125
:10561000A8044196A11DB11D8093A5049093A604F2
:10562000A093A704B093A804BF91AF919F918F91CD
:105630001F901FBE1F901895CDB7DEB7EB970FB622
:10564000F894DEBF0FBECDBF85B7806885BF85B734
:10565000806885BF84B7877F84BF0FB6F894A8950C
:1056600080916000886180936000109260000FBE9E
:1056700080E890E00FB6F894809361009093610009
:105680000FBE80E398E090937901809378010E94A7
:105690004C070E940C100E94800F0E94F90E0E947D
:1056A000E4030E9485048091E20084608093E2001C
:1056B00078948091D0048823A1F01091E9001F70A4
:1056C0009091EC00892F817090FD80E8182B10924A
:1056D000E9008091E80083FD0E9404121F7010937E
:1056E000E90082E084BD93E095BD9AEF97BD809379
:1056F0006E000E941F0F811102C00E94AA1507E5CB
:1057000011E0D8018D918D018F3F11F00E94320878
:10571000B1E00C351B07A9F70CE511E0F801819108
:105720008F018F3F11F00E943208F1E008361F0709
:10573000A9F78AE0E3E1F2E0DF01282F1D922A9524
:10574000E9F7ECEEF1E0DF011D928A95E9F790E0D0
:1057500080E00E94DF33863E9E4F21F40E941F0F9F
:10576000811167C066EE7EEF90E080E00E94133406
:1057700060E082E090E00E94F53360E083E090E03A
:105780000E94F5331092F60160E074E184E090E04D
:105790000E94133460E086E090E00E94F5336FEFE2
:1057A00087E090E00E94F53340E050E0BA0188E0E5
:1057B00090E00E94073460E084E290E00E94F533BC
:1057C00060E087E190E00E94F53360E08CE090E0DB
:1057D0000E94F53360E08DE090E00E94F53319827D
:1057E0001A821B821C821D821E821F82188648E03C
:1057F00050E068E170E0CE0101960E94E53340E0A0
:1058000050E0BA0180E290E00E94073480E00E94FC
:10581000C10D0E94AA1540E050E0BA018FE090E06F
:105820000E94073440E050E0BA0183E190E00E941A
:10583000073482E090E00E94D7338093F80184E03F
:1058400090E00E94DF339093AA048093A9040E9401
:105850005010EFEFF6E721E0E150F0402040E1F793
:1058600000C000000E9450108091130280FF08C009
:105870006FEF7FEF90E080E00E9413340E945D0D97
:1058800083E090E00E94D7330E94C90B8091A90465
:1058900080688093A9046091A9047091AA0484E0AF
:1058A00090E00E94133481E091E09093A1048093F2
:1058B000A0041E013BE2230E311C8091D00400E1C4
:1058C00012E1853009F493C00E94501099EFA92E7F
:1058D00091E0B92E23E1822E22E0922E43E052E0A5
:1058E000D401F501219131918D919D914E175F0762
:1058F00009F487C028173907A9F3712C552453944C
:10590000D4010D911D914D01F501C190D1905F0120
:10591000C016D10659F1C026D126612CEE24E3949D
:10592000F12CC6018E219F21892BB1F06CAA7DAA92
:105930000E945C059FAB8EAB58AE91E098012E2182
:105940003F21232B09F490E099AF4CA95DA96EA9E2
:105950007FA988AD0E9417266394EE0CFF1CFCE023
:105960006F12DFCFF501329711830083739425E026
:105970007212C6CF0E9450054AC08091D004843074
:1059800021F11092A40488E190E0A0E40FB6F8940D
:10599000A895809360000FBEA093600083B7817FBD
:1059A000846083BF83B7816083BF7894889583B711
:1059B0008E7F83BF0FB6F894A895809160008861B0
:1059C00080936000109260000FBE8091CF04882306
:1059D00071F00E945010E3E1F2E081919191892BE6
:1059E00009F0F7C52DE132E02E173F07B1F780919E
:1059F000D004853009F4C1CF0E94D5110E94E7057B
:105A000063CF2817390709F078CF0E949029809139
:105A1000950490919604892B09F43EC040918A0424
:105A200050918B0460918C0470918D042FB7F89481
:105A30008091A5049091A604A091A704B091A80418
:105A40002FBF841B950BA60BB70B4091860450917A
:105A50008704609188047091890484179507A607CC
:105A6000B707D0F080919504909196040E94B218E7
:105A7000109296041092950410928A0410928B044E
:105A800010928C0410928D04109286041092870458
:105A90001092880410928904E0909C04F0909D0478
:105AA000E114F10419F180910302909104020E9423
:105AB00041058C0189E0D1011D928A95E9F7B10178
:105AC000C7010E94EE0D8017910780F480919C041D
:105AD000BEE08B9FC0011124FC01EB5BFD4F2081D8
